:020000040000FA
:10000000F01B0020B1010000E7290000E9290000F1
:1000100000000000000000000000000000000000E0
:10002000000000000000000000000000EB290000BC
:100030000000000000000000ED290000EF29000092
:10004000F1290000F3290000F5290000F72900003C
:10005000F9290000FB290000FD290000FF2900000C
:10006000012A0000032A0000052A0000072A0000D8
:10007000092A00000B2A00000D2A00000F2A0000A8
:10008000112A0000132A0000152A0000172A000078
:10009000192A00001B2A0000C30100001D2A0000CD
:1000A0001F2A0000212A000000F002F800F055F895
:1000B0000CA030C8083824182D18A246671EAB467D
:1000C00054465D46AC4201D100F047F87E460F3EF3
:1000D0000FCCB6460126334200D0FB1AA246AB46EF
:1000E00033431847246B0000446B000000230024B6
:1000F00000250026103A01D378C1FBD8520700D35F
:1001000030C100D50B60704710B5642902D104F0EE
:100110009BFF10BD752902D104F096FF10BD782910
:1001200002D104F0C7FF10BD632902D105F0C0FF62
:1001300010BD732902D105F0C3FF10BD002010BD12
:100140001FB505F02DFF04000020002106F030FB54
:10015000401C60601FBD10B510BD06F0C5FA114609
:10016000FFF7EEFF02F065FD06F0DDFA03B4FFF7DE
:10017000F2FF03BC02F068FC70B505460C4616465B
:1001800002E00FCC0FC5103E102EFAD2082E02D37B
:1001900003CC03C5083E042E07D301CC01C5361F8E
:1001A00003E021782970641C6D1C761EF9D270BDA5
:1001B0000748804707480047FEE7FEE7FEE7FEE7FF
:1001C000FEE7FEE704480549054A064B7047000074
:1001D000FB010000A9000000F00F0020F01B002030
:1001E000F0130020F01300203648006870473548AF
:1001F000406870473448006A704710B53348816BD7
:10020000334A1161C16B304841600021016241698C
:100210008907CA0F012191404269D207D20F91404C
:10022000CAB2416940698904890E51438002294A52
:10023000800E504305F0EFFA2249086010BDF8B572
:10024000254F0126204D01280FD000202862214C87
:100250001046214605F0DFFAC0B2012808D8EE6149
:100260006F6101210A46134619E02E620C46EFE742
:100270000021E961FF2101318006800A084368619D
:1002800068698007C00F86406869C007C00F864054
:100290006869F2B28004810E68698002830E20468C
:1002A000084C51436060584305F0B5FA2060F8BD32
:1002B00030B4064B9C6B064D2C61DB6B024C6360CB
:1002C00030BCBCE7000000200010004180FD0300AE
:1002D0000012004100127A00000102003F4A3F4B29
:1002E00001218032984201D1116070473B4B20338D
:1002F000984201D111627047394A394B8032984295
:10030000F2D0374B20339842F4D07047334A334B06
:100310000121C9438032984201D1116070472F4BAF
:100320002033984201D1116270472D4A2C4B803204
:100330009842F2D02A4B20339842F4D0704781681B
:10034000802291438160704781688022914381605F
:1003500000210160202282608161704782688023D1
:100360009A4382600A68026082684B689B0113436B
:100370008A6892001A43CB6809695B0013431943EA
:10038000EF2211408160704720220129816802D04C
:100390009143816070471143FBE70121C1607047C1
:1003A0004069C0B2704780688006C00F704781689E
:1003B0008022114381607047006870470160704778
:1003C0004068704780687047816070470069704777
:1003D0004069704780697047816170470010004034
:1003E0000020004070B51024002101604160BF4A28
:1003F000426142628162426321225206904202D1EE
:10040000BB4BBC4A0CE043221206904204D1B84BCD
:10041000B84A4033403203E0B54BB64A80338032AD
:100420000020602685005E515151401CA042F9D346
:1004300070BDF0B52122002310265206904201D152
:10044000AB4A08E043221206904202D1A84A403249
:1004500001E0A74A8032012425460F689D402F40C5
:10046000AF4243D10F79012F0DD045614D79AD07D2
:100470000DD59C001559AD08AD0015511559022731
:100480003D4315510BE007692F430761EEE79D00DF
:100490005759BF08BF0057515759274357514C79F7
:1004A000640704D59C00155904273D4303E09C00D4
:1004B00015590427BD4315514C79A40604D59C0059
:1004C000155920273D4303E09C0015592027BD43C3
:1004D00015514C79640604D59C00155940273D43BD
:1004E00003E09C0015594027BD4315515B1CB342E6
:1004F000B1D3F0BD7D4901600021017162214171DC
:1005000070470246126800200A4200D0012070475E
:10051000006880B270470246526800200A4200D04C
:1005200001207047406880B270470A06920D01238F
:1005300012189B02D21811600A0A920010185A0071
:1005400080180160704710B50B069B0D0124CA434B
:100550001B18A4021B191A60090A890008186100F7
:100560004018026010BD10B50B069B0D01241B182E
:10057000A4021B191A60090A8900081861004018B2
:10058000026010BD41607047836A0B438362012A99
:1005900003D0426A0A4342627047026A0A43026217
:1005A0007047524A8262012901D04262704702625A
:1005B0007047012A03D0426B0A4342637047026BC3
:1005C0000A4302637047494A012901D042637047D8
:1005D000026370474549816370470246926B002071
:1005E0000A4200D001207047F0B50126414D00239A
:1005F00034469C400C420ED0002810D0012811D067
:100600003C4C9F0080343C192768BF08BF0027601E
:100610002768174327605B1C102BE9DBF0BD9C00AB
:100620006419F1E79C006419276CBF08BF002764B8
:10063000276C17432764EEE77CB504461E460D463B
:100640006846FFF757FF68460095027169462046E5
:10065000FFF7EFFE21204006844201D1002006E092
:1006600043200006844201D1012000E002203246EE
:100670002946FFF7B9FF7CBD7CB5044616460D46FA
:100680006846FFF737FF002069460095087120464D
:10069000FFF7CFFE206A28432062A06A2843A062A9
:1006A000324629462046FFF784FF21204006124E9D
:1006B000844206D1002001222946FFF795FF8020C1
:1006C00012E043200006844207D101200246294659
:1006D000FFF78AFFFF20013006E0022001222946B1
:1006E000FFF782FF0120400230607CBDFFFF000069
:1006F000003000410020004100E100E0E12149021A
:100700000160602181800021C180032201811202E9
:100710004281818170477047F8B50446006B0E46F0
:10072000400840002063FFF765FD8C4F012500283D
:1007300042D03D61FFF758FD7A692946914005F0A6
:100740006AF807463068000105F004FC009038465E
:1007500005F000FC009905F009FB074605F0B6FB23
:10076000009005F0F7FB394606F07EF8062105F00B
:10077000F5FB05F0D1FA0022794B05F079FA05F086
:10078000A7FA014600986062A162E06AEE21884300
:10079000B188F2881143328902431143E162206B30
:1007A0007049B28908407189114301432163206B6C
:1007B000284320630020F8BD02203861786929466B
:1007C00081406948BBE710B5C36A10242343C36264
:1007D0004907890E5207520F1143416310BDC16A88
:1007E00010229143C162704701607047006880B277
:1007F0007047C16A01221143C162704702465268C4
:1008000000200A4200D00120704741607047024634
:10081000926900200A4200D001207047002A826BB2
:1008200001D00A4300E08A43826370470246926B1C
:1008300000200A4200D0012070470246126C0020BE
:100840000A4200D001207047426C0A43426470475C
:1008500010B504464548016B02290AD0006B0328F5
:1008600007D0FFF7C1FC214604F0D5FF40490861DD
:1008700010BDFFF7BCFCF6E710B5FFF7E9FF3C49F8
:10088000886803228008800010438860002010BD23
:10089000704737494A68D207FCD10860704734482E
:1008A000006880B27047324A0146526800200A420E
:1008B00000D0012070472E4A0029916801D00143E1
:1008C00000E0814391607047294A0029916801D076
:1008D000014300E0814391607047254A0146D26898
:1008E00000200A4200D0012070472149CA68024313
:1008F000CA607047016082691207FCD408467047DD
:1009000030B50B4605461C78002C03D021462846FE
:10091000FFF7F0FF5B1C002CF5D130BD8169C906E3
:10092000FCD40068C0B2704700B50346FFF7B1FFC2
:10093000184600BD10B503461C78002C02D0204696
:10094000FFF7A7FF5B1C002CF6D110BD08484168DB
:100950008907FCD50068C0B2704700004011004113
:100960000000E03FFE3CFFFF00127A000010004153
:1009700000600040007870470170704730B5002477
:1009800005E00D19ADB2455D1555641CA4B29C423D
:10099000F7D330BD70B5002405E00E19155DB6B271
:1009A0008555641CA4B29C42F7D370BD70B5140089
:1009B0000FD01A4A83049E18F268400795B2184A6D
:1009C000C00A10430A4623462946FFF7E3FF2819C9
:1009D000F06070BD70B514000FD0104A83049E18EB
:1009E000B26A400795B20F4AC00A10430A4623462E
:1009F0002946FFF7C3FF2819B06270BD10B5002962
:100A00000BD0064A83049B189A6A4007054CC00A1B
:100A10005118204389B20818986210BD000201469F
:100A2000000002460000034670B50446082802D9BB
:100A30000020C04370BDFA48A604301805461021B6
:100A4000FFF79AFF2846FFF795FF0028FAD1F448F0
:100A50001F2118303018FFF78FFFF24801218288DC
:100A6000A1408A438280F04A002061005052ED4943
:100A7000891D0855EA48203034182046FFF77AFFD0
:100A80000028FAD1012070BDF8B51C4616460F4665
:100A90000546082802D90020C043F8BD012F06D022
:100AA000022F04D0042F02D00420C043F8BD6007F9
:100AB000810FDE48FAD1002C0CD0012F02D0022F7A
:100AC00008D103E021210C42F0D003E0A10601D5BA
:100AD0002106EBD52846FFF7A7FF21090901D048D9
:100AE0003943AF0410383818FFF746FF002E0AD1FB
:100AF000CC48CF4A0688711C89B20180914202D14C
:100B0000032189030180C648F03038184661C44883
:100B1000012138180646FFF72FFF3046FFF72AFF5E
:100B20000028FAD1BF48E107C90F4288A940114304
:100B3000418001218288A9408A438280BA4A0020EC
:100B400069005052B749891D4855B54820303C18B6
:100B50002046FFF70FFF0028FAD068B2F8BD70B545
:100B60000646082802D90020C04370BDAC48B40432
:100B700010382018FFF7FEFE0007000F012802D0F2
:100B80000420C04370BDA648203020180546FFF75A
:100B9000F1FE132802D00220C04370BDA0480221FC
:100BA00020180446FFF7E8FE2046FFF7E3FE002882
:100BB000FAD12846FFF7DEFE142805D03046FFF7AD
:100BC00033FF0320C04370BD012070BDF7B50D4653
:100BD0000746082802D90020C043FEBD9048BC0447
:100BE00010382018FFF7C6FE0007000F012802D0BA
:100BF0000420C043FEBD8A48203020180646FFF777
:100C0000B9FE132802D00220C043FEBD29786A78BD
:100C100008028018AA7800028018EA78000280187A
:100C2000421C32D0002830D00298002830D08148B1
:100C30002018FFF7A1FE7F486978401E2018FFF7B3
:100C40009BFE7C48A978801E2018FFF795FE794806
:100C5000E978C01E2018FFF78FFE764902982739E1
:100C6000611808626E48042120180546FFF784FECB
:100C70002846FFF77FFE0028FAD16A4901204988FB
:100C8000B84008421CD00020FEBD0B20C043FEBD72
:100C90000A20C043FEBD2846FFF76CFE000708D5BA
:100CA0005F48082118302018FFF766FE0C20C0436B
:100CB000FEBD3046FFF75EFE002804D1001FFEBDDA
:100CC0005748103025183046FFF754FE1728E2D158
:100CD0000120FEBD70B50646082802D90020C04399
:100CE00070BD4F48B50410382818FFF743FE0007C1
:100CF000000F012802D00420C04370BD48480821DD
:100D000028180446FFF738FE2046FFF733FE002878
:100D1000FAD1444901208A88B04082438A804988B8
:100D200008420CD0002070BD2046FFF723FE0007CC
:100D30000BD53046FFF778FE0C20C04370BD384815
:100D400010302C18364820302D182846FFF712FE98
:100D50000028E9D1012070BDF7B582B00298144691
:100D6000082803D90020C04305B0F0BD86042C48F4
:100D700010383018FFF7FEFD0007000F012802D0E1
:100D80000420C043F0E7002C0CD025482030301858
:100D90000190FFF7EFFD172807D01C2805D006208B
:100DA000C043E1E70D20C043DEE7029801251D4F57
:100DB0008540B888054211D0194810303018FFF727
:100DC000D9FDC006C00EC10621D515481021183026
:100DD0003018FFF7D1FDB888A843B8801548D9303E
:100DE00030180090FFF7C6FD8006000C844200D941
:100DF00004460098406887B20198FFF7BBFD1728AA
:100E00001AD01C2818D00298FFF70EFEC7E700077B
:100E100018D50298FFF708FE0C20C043A4E7000095
:100E2000100001460800002050020020FAFFFFFFDA
:100E3000F0FF000027010146FE484088054203D02C
:100E4000BC4201D900208FE7BC42D2D82246039988
:100E50000298FFF7ABFDF848202130180646FFF74F
:100E60008BFD3046FFF786FD0028FAD1F1488188D6
:100E70000D438580204677E7F7B582B00298144687
:100E8000082802D90020C0436EE78704EA481038DA
:100E90003818FFF76FFD0007000F012802D004206B
:100EA000C04361E7002C19D0E4483818FFF762FD11
:100EB0008006000CA04200D20446DF4820303818DB
:100EC0000090DE4820383E18706A85B20098FFF71F
:100ED00051FD172815D01C2803D00CE00D20C0436D
:100EE00042E7002D1AD13046FFF744FD71688002B9
:100EF00089B2884205D10298FFF796FD0620C043CB
:100F000032E7029901208840CA494988084203D043
:100F1000002D03D1002027E7002DD5D0A54200D217
:100F20002C46224603990298FFF754FDC2484021FF
:100F300038180546FFF720FD2846FFF71BFD00285F
:100F4000FAD1204610E7FFB583B003981E46154638
:100F5000082803D90020C04307B0F0BD8404B64878
:100F600010382018FFF706FD0007000F022804D0F4
:100F7000042802D00420C043EEE7002D1DD03078B5
:100F8000717800024018B17800024018F178000230
:100F9000C84202D10B20C043DEE70C9800280FD0D6
:100FA000A548203020180746FFF7E4FC42280AD065
:100FB000222808D00620C043CEE70D20C043CBE74F
:100FC0000A20C043C8E79D483178F9382018FFF758
:100FD000D3FC9A487178FA382018FFF7CDFC97486F
:100FE000B178FB382018FFF7C7FC9448F178FC383B
:100FF0002018FFF7C1FC90490C98F0316118086285
:101000008E48203820180190FFF7B4FC8006000CB1
:10101000854200D905460399012088400090019837
:10102000406886B23846FFF7A5FC002808D0814901
:1010300000984988084206D0B54204D900208BE7C1
:101040000320C04388E7B542E9D82A4604990398AB
:10105000FFF7ACFC7848202120180746FFF78CFCEE
:101060007548183026183846FFF784FC0028FAD156
:101070007148103024182046FFF77CFCC006C00ED3
:10108000C10605D530461021FFF776FC284663E7F8
:101090000007F0D530460821FFF76EFC0C20C04356
:1010A0005AE7FFB5002485B00646082802D9601E1D
:1010B00009B0F0BD6048B50410382818FFF75AFC95
:1010C00004900007000F022804D0042802D0042056
:1010D000C043EDE70798002805D059487700C05B6A
:1010E000002803D022E00D20C043E1E75348203818
:1010F000281803905048203028180125B540029048
:101100000398406A84B20298FFF734FC002806D0A6
:1011100048484088054207D0002C03D006E0032051
:10112000C043C5E70020C3E7002CE9D041480021B7
:10113000801D81550498B20441073F48490F151896
:1011400002291FD0042957D021463046FFF756FC0C
:101150003B48C45328464021FFF70EFC2846FFF7C2
:1011600009FC0028FAD13648C15B091B0904090CA7
:10117000C15305D02F480122801D815D1143815547
:10118000204695E72E4CE05B002865D10822694691
:101190003046FFF71FFC28464021FFF7EDFB2846AD
:1011A000FFF7E8FB0028FAD168460178089801703B
:1011B000684641780898417068468178089881703F
:1011C0006846C1780898C17068460E990079088011
:1011D00001026846407908180E99088068468079AF
:1011E00001026846C0790818E05332E022463046D2
:1011F0000699FFF7EFFBADE7114CE05B00282BD120
:10120000022269463046FFF7E5FB28464021FFF7FA
:10121000B3FB2846FFF7AEFB0028FAD168460078FA
:10122000010268464078081880B20649E0538842B7
:101230000FD909E0080000201000014620020146F5
:1012400050020020EA0500003046FFF7EDFB9E4803
:101250002EE79E4980208855E45B07988442C5D9D3
:101260000446C3E7F8B514460646082802D900200C
:10127000C043F8BD954B96489B1F0927B2045D8873
:10128000FF4310180B0005F07FFA0805171B1D25FA
:101290002E37314021780120B040012902D00029A9
:1012A00005D032E08949891F284348802BE08749CF
:1012B000891F85434D8026E0F540E807C00F19E0FF
:1012C000844801E0834820301018FFF753FB800268
:1012D000208018E020781F2817D8C1067C48C90E46
:1012E000001D10180DE07A48001F1018FFF742FB90
:1012F000C006C00E207006E021781F2905D8C90657
:10130000C90EFFF739FB0120F8BD3846F8BDF8B526
:101310001546082802D90020C043F8BD84046D4B4F
:101320006B4A6B48803BDC3224380427E618A2184D
:101330002018FF430B0005F027FA084F050910425B
:101340001316444F62482978E43002E06048297857
:10135000E0302018FFF710FB31E0288810612EE004
:10136000288810622BE0FFF705FB0007000F01281B
:101370002DD13046FFF7FEFA002802D00120C043ED
:10138000F8BD53482221143820180546FFF7F4FA17
:101390004F48001F26180DE03046FFF7EBFA000714
:1013A00008D54B480821001D2018FFF7E5FA0C204E
:1013B000C043F8BD2846FFF7DDFA0028ECD1012034
:1013C000F8BDFFF7D7FA0007000F012801D0384613
:1013D000F8BD29783046BDE70920C043F8BDF8B50F
:1013E00014460646082802D90020C043F8BDB504BB
:1013F0003748374A374B2438DC32EF182818AA18F8
:101400000B0005F0C1F90D080D121517305E323EC4
:10141000404248525E00FFF7ADFA0009000102E0C9
:101420002B48E43033E020703DE02948E0302EE0E6
:101430001069F8E72748D9382818FFF79BFA207079
:101440002448DA382818FFF795FA60702148DB380D
:101450002818FFF78FFAA0701E48DC382818FFF70D
:1014600089FAE0701FE0106A1CE0FFF783FA0007BA
:10147000000F01281FD1174880382818FFF77AFA83
:1014800010E078680EE0786A0CE011480C302818FB
:10149000FFF770FAC7E7FFF76DFA0128F3D00E499E
:1014A0007000085A20800120F8BDFFF763FA00079A
:1014B000000F012802D00420C043F8BD0348805D1E
:1014C000B1E70120C043F8BD17FCFFFF0E0000206C
:1014D0002400014600020146500200207047704778
:1014E0007047704700787047017070470020704760
:1014F0007047FE4A002804D0002902D0D1609060D5
:101500007047FB489060FB48D0607047F74A00285E
:1015100004D0002902D0516110617047F648106173
:10152000F6485061704710B5F04A1388DC05FDD5C8
:10153000002804D0002902D0D161906110BDF0488C
:101540009061F048D06110BD10B5E84A13889C0541
:10155000FDD5002804D0002902D0D161906110BDD2
:10156000E9489061E948D06110BD0020C043704750
:101570000020C043704710B5E548FFF7FBF904466B
:10158000E3481030FFF7F6F90002001980B210BDF1
:1015900010B5C1B2040A09090901DD48FFF7ECF9E9
:1015A000DB4821461030FFF7E7F910BDD84810B5E9
:1015B000001FFFF7DFF90446D5480C30FFF7DAF9D2
:1015C0000002001980B210BD10B5C1B2040AD048A3
:1015D00009090901001DFFF7CFF9CD4821460C305C
:1015E000FFF7CAF910BDF0B593B0CA48FFF7C2F9CA
:1015F0001190C848401EFFF7BDF9C64C1090A41EBC
:101600002046FFF7B7F9651E0F902846FFF7B2F99D
:101610000E90A01DFFF7AEF90D90601DFFF7AAF91F
:101620000C90BC480830FFF7A5F90B90B948C01DD5
:10163000FFF7A0F9B74E0A90B61D3046FFF79AF9AA
:101640000990E01DFFF796F90890B01DFFF792F999
:101650000790701DFFF78EF90690301DFFF78AF98D
:101660000590F01CFFF786F90490AA481030FFF7A8
:1016700081F9A84F03900F373846FFF77BF90290A6
:10168000781EFFF777F90190F01DFFF773F90090CE
:101690008021A148FFF770F99F48FFF76BF9A01C64
:1016A0001199FFF769F9601C1099FFF765F9204659
:1016B0000F99FFF761F928460E99FFF75DF9A01D14
:1016C0000D99FFF759F9601D0C99FFF755F9B01CFA
:1016D0000B99FFF751F9701C0A99FFF74DF9304645
:1016E0000999FFF749F9E01D0899FFF745F9B01D81
:1016F0000799FFF741F9701D0699FFF73DF9301D75
:101700000599FFF739F9F01C0499FFF735F9781CB2
:101710000399FFF731F938460299FFF72DF9781E42
:101720000199FFF729F9F01D0099FFF725F913B08A
:10173000F0BDF8B50D4606460024FFF754FF002E15
:1017400014D00022B05C521C001952B244B2082AD4
:10175000F8DB102C17DC714F0024A004315DC01998
:10176000FFF70AF9641C64B2082CF6DB002D19D0CF
:10177000002108462A5C401C511840B249B2082892
:10178000F8DB102902DD0020C043F8BD634E0024C1
:101790002036A004295D8019FFF7EEF8641C64B2BE
:1017A000082CF6DB0020F8BD70B50C46024600217F
:1017B00008464D1E130004F0E7FF0906091511182D
:1017C0001C2E2E202E00FFF70EFF22E0002C02D050
:1017D000214620460831FFF7ACFF70BD2088FFF797
:1017E000F3FE16E0FFF7E2FE05E02088FFF7D0FEEB
:1017F0000FE0FFF7C0FE20800BE03C4882782270AB
:10180000C27862700279A2704279E27080792071A8
:101810006171002070BD284670BD10B504463D487A
:101820004130FFF7A7F820703A483D3000686080EB
:1018300010BD10B50446017836484130FFF79CF8DA
:10184000344960883D31086010BD10B53248FFF75B
:1018500091F810BD70B50446C720044202D00020A4
:10186000C04370BD2C4D2846FFF784F82043014645
:101870002846FFF781F8002070BD10B504462548C2
:10188000FFF778F820702348401EFFF773F8607068
:101890002048801EFFF76EF8A0701E48C01EFFF79C
:1018A00069F8E0701B48001DFFF764F820711948C3
:1018B000C01CFFF75FF8607116480830FFF75AF850
:1018C000A0731448C01DFFF755F8E0731148801D40
:1018D000FFF750F820740F48401DFFF74BF8607475
:1018E0000C480C30FFF746F8A07219E020000020E9
:1018F000DD140000DF140000E1140000E314000018
:10190000E5140000E9140000ED140000F1140000DB
:101910000421004603600046002300460002014601
:101920005F480B30FFF726F8E0725D480A30FFF79A
:1019300021F820735A480930FFF71CF860735848A3
:101940001030FFF717F8A07155480F30FFF712F865
:10195000E07153480E30FFF70DF8207250480D30FB
:10196000FFF708F860724F480178A1744178E1747C
:1019700081782175C07860754A48401E0078A0754E
:1019800010BD10B5044601784548FEF7F5FF444800
:101990006178401EFEF7F0FF4148A178801EFEF7F7
:1019A000EBFF3F48E178C01EFEF7E6FF3C48217997
:1019B000001DFEF7E1FF3A486179C01CFEF7DCFF2D
:1019C0003748A17B0830FEF7D7FF3548E17BC01DC3
:1019D000FEF7D2FF3248217C801DFEF7CDFF304854
:1019E000617C401DFEF7C8FF2D48A17A0C30FEF740
:1019F000C3FF2B48E17A0B30FEF7BEFF2848217B5E
:101A00000A30FEF7B9FF2648617B0930FEF7B4FFC4
:101A10002348A1791030FEF7AFFF2148E1790F305C
:101A2000FEF7AAFF1E48217A0E30FEF7A5FF1C48DC
:101A3000617A0D30FEF7A0FF1A48A17C0170E17CAD
:101A40004170217D8170617DC1701649A07D491E64
:101A5000087010BD10B50C46030004F095FE060496
:101A6000080C1014181D0846FFF78BFF12E00846FB
:101A7000FFF703FF0EE00878FFF7ECFE10BDFFF75D
:101A8000E4FE207006E00846FFF7D3FE02E00846B9
:101A9000FFF7C3FE002010BD0020C04310BD0000B2
:101AA000036000461900002070B58F4C0546208861
:101AB000286161882846FEF738FD012001F05AF9B7
:101AC00061882846FEF73FFD012001F053F970BD03
:101AD000F8B507460020844D04464600698838461C
:101AE000FEF723FD012001F045F969883846FEF72D
:101AF0002AFD012001F03EF929883846FEF701FD54
:101B00003043641C102CE8D3F8BD70B5764C054604
:101B100020886861012001F02DF961882846FEF7D0
:101B200004FD012001F026F961882846FEF70BFD2F
:101B3000012001F01FF970BDF8B5074616462020B8
:101B4000801B81400C46684D18E02988002C3846DF
:101B500002DAFEF7EAFC01E0FEF7F5FC012001F0F5
:101B600009F969883846FEF7E0FC012001F002F926
:101B700069883846FEF7E7FC6400761E002EE4D143
:101B8000F8BD70B50C46002105462022C943FFF779
:101B9000D3FF042206212846FFF7CEFF5248052234
:101BA00041682846FFF7C8FF052221462846FFF76F
:101BB000C3FF2846FFF7A9FF2846FFF789FF044621
:101BC0002846FFF771FF204670BD10B54320012164
:101BD0000006FFF7D6FF4007C00F10BD70B50C46DA
:101BE0001646002105462022C943FFF7A5FF04221F
:101BF00005212846FFF7A0FF3B48052241682846FB
:101C0000FFF79AFF052221462846FFF795FF02229B
:101C100011462846FFF790FF102231462846FFF76D
:101C20008BFF2846FFF740FF70BD01221203904250
:101C300003D021210902084002460021432000066A
:101C4000CCE7F8B54326294F360600240021202290
:101C5000C9433046FFF770FF042206213046FFF7E4
:101C60006BFF052221463046FFF766FF0522012162
:101C70003046FFF761FF3046FFF747FF3046FFF77A
:101C800027FF05463046FFF70FFF002D03D0BD426A
:101C900001D02046F8BD641C082CD7DD14A003F049
:101CA00061F9D2E77CB5054614460E466846FEF754
:101CB00021FC3046204300900120694608712846E7
:101CC000FEF7B7FB012221461046FEF78DFC0122EC
:101CD00031461046FEF788FC034D6E802C80FFF7DE
:101CE000B0FF68607CBD000040000020FFFF0000E6
:101CF0000D0A7068792069642064657465637420D6
:101D00006572726F7221210D0A00000010B5FE4C41
:101D1000FE482178FEF730FEFC486178401EFEF751
:101D20002BFEFA48A178801EFEF726FEF748E178E0
:101D3000C01EFEF721FEF54808342178001FFEF78B
:101D40001BFEF2486178401FFEF716FEEF48A178AF
:101D5000801FFEF711FEED48E178C01FFEF70CFE74
:101D6000EA48241F21780838FEF706FEE748617824
:101D70000938FEF701FEE548A1780A38FEF7FCFDB8
:101D8000E248E1780B38FEF7F7FD10BD10B5E04CE6
:101D900080212046FEF7F0FD2046FEF7EBFDFFF721
:101DA000B5FFD94CD948353421781038FEF7E4FD19
:101DB000D64861781138FEF7DFFDD448A178123893
:101DC000FEF7DAFDD148E1781338FEF7D5FDCF48AC
:101DD00021790C38FEF7D0FDCC4861790D38FEF73B
:101DE000CBFD10BD10B5CA4C80212046FEF7C4FDC6
:101DF0002046FEF7BFFDC44CC44835342178103866
:101E0000FEF7BAFDC14861781138FEF7B5FDBF484D
:101E1000A1781238FEF7B0FDBC48E1781338FEF720
:101E2000ABFDBA4821790C38FEF7A6FDB7486179B9
:101E30000D38FEF7A1FD10BDB34B10B5DB1FB54C3F
:101E40005C62B54C9C62B54CDC62002800D05862E4
:101E5000002900D09962002A00D0DA6210BD30B5A6
:101E6000A94B0120DB1F996B087048700620887011
:101E70000020C8705A6B120E0A715A6B120C4A710C
:101E80009A8E120A8A719A8ECA71996B8022088181
:101E90008A72C872996B1A46087348738873C8733C
:101EA000087448748874C874087548758875C8754E
:101EB000087648768876C8763C3214780C77547861
:101EC0004C7794788C77D478CC770C46157920347D
:101ED00025705279627006228C18521CD2B220777B
:101EE000102AF9D39A6B002154182034491CC9B226
:101EF00020734029F8D39A6B002154186034491C90
:101F0000C9B220738029F8D3986B6321E030017344
:101F10008222427353228273C17330BD0007000FC7
:101F2000092801D83030704737307047FEB5FFF7C9
:101F300096FF754C3522E41FA06BF0210A54012254
:101F4000F1210A54F2210A543D22F3210A540722B6
:101F5000F4210A540122F5210A5421463C310A7821
:101F6000F6210A5421463C314A78F7210A54224688
:101F70003C329378F822135422463C32D378F9222B
:101F8000135422463C321379FA22135422463C322F
:101F90005379FB2213540C21FC2211540023FD2100
:101FA0000B54122225461946423506E08718E037C1
:101FB000521C491C3E7392B289B26E5C002EF5D160
:101FC000514D3535E8780009FFF7A8FFA66BB61824
:101FD000E0363073521C92B2E878FFF79FFFA66B91
:101FE000B618E03630732879521C92B20009FFF718
:101FF00095FFA66BB618E0363073521C92B2287962
:10200000FFF78CFFA66BB618E03630736879521C68
:1020100092B20009FFF782FFA66BB618E036307364
:10202000521C92B26879FFF779FFA56BAE18E036C3
:102030003073521C92B2881D511A4919E03148710F
:10204000A06B37218518E0352973521C91B24518D1
:10205000491C89B246180622E0352A730125E0366C
:102060003573491C89B246180325E036491C35737F
:1020700089B24518E0352A73491C89B245180F22E8
:10208000E0352A73491C89B242183A25E0321573AB
:10209000491C89B242183B25E0321573491C89B2AC
:1020A0004518FF22E0352A73491CFF2589B23935CE
:1020B00004E04618E036491C337389B2A942F8D3CC
:1020C0006846027142718271C27143200090892278
:1020D00001AB9200A078A16BFEF735FFFEBDFEB507
:1020E000FFF7BDFE084B0020DB1FDA1D1856144613
:1020F0002934FF27032844D0042842D068460771BA
:1021000047718771C7710BE04F00002013600046D4
:10211000002300460D1D00008D1D0000E51D000080
:10212000986B3521F02529540121F12529540321EB
:10213000F22529543D21F32529540721F42529545A
:102140000121F5252954F849F62509782954F6493D
:10215000F72549782954F449F82589782954F24912
:10216000F925C9782954F049FA2509792954EE4905
:10217000FB25497929546D46ED791021FF2D16D0A4
:1021800039E0986B00218172C17211780173517826
:10219000417391788173D178C17321786846017158
:1021A00061784171A1788171E178C171ABE7322525
:1021B000FC210D540425FD210D541678FE210E54EA
:1021C0005678FF210E549678491C0E54D278491C3B
:1021D0000A543622491C0A54491C0D542278491CC1
:1021E0000A546278491C0A54A278491C0A54E278BD
:1021F000491C0A541C2143180C22E0331A73491C51
:1022000042180025E032C84B15739B1D2A46491C15
:1022100005E04618E036491C347389B2521C9C5CB8
:10222000002CF6D1C04BD8780009FFF777FEBE4CE2
:102230003C3CA66B7618E0363073491C89B2D878DE
:10224000FFF76CFEA66B7618E03630731879491CE0
:1022500089B20009FFF762FEA66B7618E03630738C
:10226000491C89B21879FFF759FEA66B7618E0363B
:1022700030735879491C89B20009FFF74FFEA66BED
:102280007618E0363073491C89B25879FFF746FE5C
:10229000A36B5E18E0363073491C88B2911D821A18
:1022A000D218E0325171A16B37220B18E0331A7348
:1022B000401C80B20B180822E0331A73401C80B215
:1022C0000B180122E0331A73401C80B20B18032252
:1022D000E0331A73401C80B20B180622E0331A73E5
:1022E000401C80B20B180F22E0331A73401C80B2DE
:1022F0000B183A22E0331A73401C80B20B183B22B1
:10230000E0331A73401C80B20B181F22E0331A739B
:10231000401C80B20B182122E033401C1A7380B29B
:102320000A18E0321773401CFF2280B2393203E0F2
:102330000B18E0331D73401C9042F9DB43200090E2
:10234000892201AB9200A078A16BFEF7FCFDFEBDD7
:102350001CB5FFF784FD744800213C38806B3522A2
:102360008172C172F0210A540122F1210A5404221F
:10237000F2210A543D23F3210B540722F4210A547D
:102380000122F5210A546849F6220B7813544B7840
:10239000F72213548B78F8221354CB78F922135474
:1023A0000B79FA2213544A79FB210A543222FC2178
:1023B0000A540422FD210A545B4935390A78FE216A
:1023C0000A54594935394A78FF210A545649353952
:1023D0008A78FF2101310A5453493539CA78FF21DF
:1023E00002310A543622491C0A540422491C0A5458
:1023F0004D49FF220C390B78053213544B78521C8F
:1024000013548B78521C1354CA78FF2108310A5494
:10241000FF22491C0A541D210023FF22393244188F
:10242000E034491C23739142F9DBFF2069460871AF
:1024300048718871C871432000903B4889223C381C
:10244000816B01AB92008078FEF77DFD1CBD7FB5EE
:10245000354C364A3C3CA07881048918496A0A0404
:10246000120C26D001A9009102ABA16BFEF719FE58
:1024700082B26846808843283BD1A06B2A49037FFB
:102480000D78AB4215D1457F4B789D4211D1837FAA
:102490008D78AB420DD1C37FCD78AB4209D10346D5
:1024A00020331D780E79B54203D15B7849798B4290
:1024B00002D0002004B070BDF03000258118F03942
:1024C00015E00278332A41D008DC002A15D0012A11
:1024D00018D0032A1AD0062A06D129E0352A0ED0B0
:1024E000362A42D0FF2A06D04278801C80188842C3
:1024F000E7D368B2DEE70846F9E7401CF7E78578DE
:10250000C01CF4E7084A83782D3A31E0064A437844
:102510008678313A1670C678567006799670467984
:10252000801DD670C0180FE0840000200002014614
:10253000F84B427886781E70C6785E7006799E7079
:102540004679801DDE708018001FD0E78278A26176
:10255000C37812029A18A261037912029A18A26132
:10256000437912029A18A26109E0EA4A83781D327F
:102570001370C3785370037993704379D370801DBF
:10258000B5E7E44800211338C161052202624170B9
:10259000704770B5DF4C0125133C61570026224679
:1025A0009057022917DAE269216A914223D2012861
:1025B00004D0022805D0042805D102E0FFF7B6FCBC
:1025C00001E0FFF78CFDE661E069401D2062607864
:1025D000401C60700FE0012804D0022805D00428B8
:1025E00007D102E02670002503E0FFF79FFC0120E1
:1025F0002070FFF7C6FF284670BDF8B5C64E3046BE
:10260000FEF7B8F9054603213046FEF7B5F9C14B90
:10261000C2480C3BDC1F00901122C1A1A078FEF73C
:1026200092FC074629463046FEF7A6F90D3708D03A
:10263000FFF78EFEE069E169091A0229FBD3002049
:10264000F8BD0120F8BDF8B5B24C133C207806283F
:102650001ED0A078B74980044018FEF78BF92228D5
:1026600005D0002344220221A078FEF70DFA0125AF
:10267000FFF7EDFEC1B20022A256A64800260127B0
:102680000C38130004F080F805060D1C314C2F00A7
:102690000520F8BD067046708670C670FFF746FCD0
:1026A0005EE002291CD1A16B0A7C02704A7C427058
:1026B0008A7C8270C97CC170FFF711FD02204BE05B
:1026C00005290BD1FFF799FF002801D0606A3FE090
:1026D000FFF757FFE06A8047267004E006293DD0E7
:1026E000FFF757FF05462846F8BDA16904254A1C97
:1026F000F9D0E26949089142F5D286490278103949
:102700000A7042784A7082788A70C078C870606BAC
:10271000401C6063FFF7E3FCFFF733FF04201BE07E
:1027200004250529DAD17B49667010390A780378C7
:102730009A420BD14A7843789A4207D18A788378B3
:102740009A4203D1C978C078814202D0A06A032599
:102750008047FFF716FF03202070C4E7FFF711FF43
:102760002770C0E710B56B4C133CA078FEF75CF9FE
:102770000620207010BDF3B5674F83B006460025D4
:10278000413F38460095FEF7F5F8624C2934207039
:10279000781EFEF7EFF86070B81EFEF7EBF8A07039
:1027A000F81EFEF7E7F8E070381DFEF7E3F8207139
:1027B000F81CFEF7DFF86071014620786278E37854
:1027C0001043A2781A4310432279104308431FD1C3
:1027D000257008206070DC20A070E5702571294606
:1027E00065713846FEF7C8F86178781EFEF7C4F8C0
:1027F000A178B81EFEF7C0F8E178F81EFEF7BCF825
:102800002179381DFEF7B8F86179F81CFEF7B4F8A5
:10281000404F4949133FBE700498B863E07863792C
:10282000421821798A1848409A18584080187863CD
:102830006846017838480C463138FEF79DF86846FE
:1028400040780290014634483238FEF795F86846E1
:1028500080780190014630483338FEF78DF868469D
:10286000C6782D4831463438FEF786F82A48214686
:102870003138FEF781F8284802993238FEF77CF8A3
:10288000254801993338FEF777F823483146343824
:10289000FEF772F8204821463938FEF76DF81E48D9
:1028A00002993A38FEF768F81B4801993B38FEF761
:1028B00063F8194831463C38FEF75EF8FFF761FED1
:1028C0003D7005B0F0BD13481338C169491CC161A2
:1028D000704710490C390A7802704A7842708A7839
:1028E0008270C978C17070470A4908390A78027045
:1028F0004A7842708A788270C978C17070470549F9
:10290000091F0A7802704A7842708A788270C97802
:10291000C17070475B0000204460004688130000CF
:10292000434845434B5F49505F434F4E464C4943F4
:1029300054000000300001467856341206490A78E7
:1029400002704A7842708A788270C978C170E0E774
:10295000014813388069DCE75B000020F0B587B0E0
:1029600001F09AFF04466D46A81DFFF7B2FF03A8C9
:1029700002300690FFF7B8FF02A802300746FFF7C3
:10298000BEFF04A802300646FFF7D8FF2146062204
:102990002931684602F0C0F820460422A91D2F30D4
:1029A00002F0BEF8204604223330069902F0B8F84F
:1029B000204604223946373002F0B2F8204604227D
:1029C0003146513002F0ACF84034E07B002801D0B1
:1029D000022000E00120694688750020FFF73AF8E0
:1029E00007B0F0BD70477047704770477047704739
:1029F000704770477047704770477047704770471F
:102A0000704770477047704770477047704770470E
:102A100070477047704770477047704770477047FE
:102A2000704710B5C0B2FDF77FFF10BD10B5FDF7C0
:102A30008DFFFDF779FF10BD0020C043704710B532
:102A4000C0B2FDF771FF10BDFEE7000010B501F048
:102A500023FF4030C07B002806D0CE4840780128B4
:102A600003D0CDA002F07EFA10BDFFF771FF014642
:102A7000CEA002F077FA10BD70B50024D54904202D
:102A8000FFF779FED549D44A0846FFF7D5F9FFF795
:102A9000DAFD0546042807D0002D01D1641CE4B2FC
:102AA000032C03D9FFF75EFE68B270BD01F03CF95C
:102AB00001F0DBFBEBE738B501F0EEFE0446C8A001
:102AC00002F050FAC7A1D4A002F04CFAD4A002F050
:102AD00049FADDA0009063792279E178DCA002F068
:102AE00041FAC0A1CCA002F03DFA38BD03C880F382
:102AF0000888084700B5C1B000216A460B785354D6
:102B0000491C0829FAD30821435C5354491CA829BD
:102B1000FAD3A82001781154401CFF28FAD972B6C4
:102B200000231A461946122001F088FAFF230133C8
:102B30006A460021222001F081FA62B641B000BD50
:102B4000F0B591B001F0A8FE044600200390049077
:102B5000182105A802F0FFFD18210BA802F0FBFDCB
:102B600020462030417A0025002905D1817A0829A4
:102B700002D1C07ADC284FD0002303AA1946184698
:102B800001F0D0FA6846427C017CC07B6B4607C3EB
:102B90006846837B427B017BB8A002F0E3F968467C
:102BA000007B002807D16846407B082803D168468F
:102BB000807BDC2834D0BD4888212646017005AFD3
:102BC000A036BBA002F0CEF90025FDF7BFFE785578
:102BD0006D1CEDB2152DF8D30BA905A800F0C1F9B5
:102BE00000280BD0B079002803D00BA98AA002F0EE
:102BF000B9F9182105A802F0AEFDE2E7002001F0C6
:102C0000AEFA0023224629321946184601F0CBFAC3
:102C100001F047FE01F071FF0125284611B0F0BD1B
:102C20002046062203A9293002F036FD01F065FF97
:102C3000F3E701F031FE044601F030FE074601F0F3
:102C4000E1FDA04900200A46FDF732FB01F0DAFA67
:102C500001F055FBFDF7C8FA9B4902F0DCFD9B49EA
:102C60000860082028709A4868802846FEF7E1FD31
:102C700001F0ADFD01F0FFFEFFF762FF002803D079
:102C800007200003FFF736FF3878012500260128CA
:102C900013D1032001F0DEFB80280ED13E70F91C19
:102CA000002002F0B0FD3C2005554620055501F0FE
:102CB00024FF07200003FFF71DFF07200003016822
:102CC000491C08D0214620310A7F002A35D003C88C
:102CD00080F3088888473C20274606554037BE7158
:102CE000A034A079002801D0FFF7E5FEF87B00288A
:102CF00003D0FFF7C1FE042825D002F0A1F8A07987
:102D0000002803D001F069FFFFF7A0FE2148714CB5
:102D1000057001F009F8F87B002801D0FFF793FC5B
:102D20002078002806D0002001F098FD012001F055
:102D300095FD267001F099FAEBE70D7746200555D1
:102D400001F0DBFEC7E713484570D8E700B5C1B016
:102D50000020694602780A54401CFF28FAD972B64E
:102D6000FF230A466F2101330902222001F066F990
:102D700062B6E3E601B582B0FDF736FA524902F0D9
:102D80004AFD0299484300E0401E00900028FBD114
:102D90000EBD00009800002020232044484350200E
:102DA0004661696C65640D0A000000002023204420
:102DB000484350204950204C656173656420746914
:102DC0006D65203A202575207365636F6E64730D01
:102DD0000A00000060020020E52900005D290000D3
:102DE0000D0A00003D3D3D3D3D3D3D3D3D3D3D3DF0
:102DF0003D3D3D3D3D3D3D3D3D3D3D3D3D3D3D3D03
:102E00003D3D3D3D3D3D3D3D3D3D3D3D3D3D3D3DF2
:102E10003D3D3D3D3D3D000025730D0A0000000095
:102E2000205B57373530305D2053657269616C2007
:102E3000746F2045746865726E65742044657669A8
:102E400063650D0A00000000446576656C6F7000D4
:102E5000203E3E204669726D77617265207665720C
:102E600073696F6E3A20426F6F742025642E25645B
:102E70002E25642025730D0A0000000053746F7224
:102E8000616765204D41433A20252E32783A252E40
:102E900032783A252E32783A252E32783A252E325B
:102EA000783A252E32780D0A000000009C000020A0
:102EB000494E505554204649525354204D41433FAA
:102EC0000D0A000000127A001027000000200046C2
:102ED000C409000014020020F8B500270D4604467E
:102EE0000F70F74E09E002F059FB024620463168A8
:102EF00002F076FB002804D0361D30680028F2D19D
:102F000029E03068002826D0ED48301A8005060EEA
:102F10002B2E07D02C2E11D0A11C284602F018FB16
:102F20003046F8BD207A0D2815D1607A0A2812D1D2
:102F30000622A11C284602F0AFFBF1E7002002E0C8
:102F40002954401CC0B2211889780D29F8D12118C4
:102F5000C9780A2901D0FF20F8BD2F5428184770DE
:102F6000DEE7F0B59BB00D46064601F095FC1490E7
:102F700001F094FC00241990039510A804842746BE
:102F800004211694039802F0E4FBCEA13046FDE341
:102F900004A9FFF7A1FF0646FF286ED004A802F09F
:102FA000FDFA80B200906846007C002859D0C449E0
:102FB00024390A7888210A4260D04D2E5DD27300F0
:102FC0007B449B885B009F4488029D029D02A00277
:102FD000AA02B405BF02B405C902D402EA02020380
:102FE0001C0337034D03620377037D047D047D04D6
:102FF0007D047D047D048C039803B303D0032F0468
:10300000510468047E049404B504CF04ED04130550
:103010004805530563057105D205D2058005D20523
:10302000D205D205D205D205D205D205D205A90511
:103030005800B405D205B5021704C203A403C104A5
:10304000DF02F6020E032803D20558003F045D0498
:1030500073048904A40458005800DE0400052E05FA
:10306000D2059748B100415803980A780270497810
:1030700041700398801C159001E0F5E3F5E33300FF
:1030800003F082FB4D283E464A4D5658565B5F671B
:103090006D777F88919AA8A856A5A8A8ABBDC3F163
:1030A000EFEEEDECEBEAE9E8E7E6E5E4E3E2E2E1A6
:1030B000E2E2E0DFDEDDDCDBDAD956D852D7C6C08B
:1030C000D6636A727AD5D4D3D2D1D0CFD4D4CECD70
:1030D000CCCBD400149820308446634662466146C7
:1030E000807B5B7B127BC97A0091039002930192F3
:1030F0006046837A427A74A1159801F041FFD5E1C8
:10310000149879A14079009014980379C27857E116
:10311000149A78A1921D69E1149840300AE114983C
:103120002030C27E74A190E1149840304279F9E7D2
:1031300000224DE01498803004E11498A030827988
:10314000F0E714986030C27FECE714988030C27CBE
:10315000E8E71498803004E01498803006E0149872
:1031600082304178007814E114988230417D007DEE
:103170000FE11498803002E114988030417E007E87
:1031800007E114982030827C417C01920091037CFD
:10319000C27B19E014982030827E417E019200911A
:1031A000037EC27D10E014982030827D417D019223
:1031B0000091037DC27C07E014984030027DC17C01
:1031C00001920091837C427C4CA1159814E04E4AF8
:1031D00049A10BE120224DA108E114988079002833
:1031E0006CD014982030827B417B00910192149A1C
:1031F000037B47A1921D159801F0C2FE56E1149879
:103200004130AEE714984330C1E014984330A8E74A
:1032100014984130417B007BBBE039E1C0E0B4E071
:10322000ABE099E090E087E07EE043E046E105E135
:1032300099E02BE00FE128E123E113E107E1F9E058
:10324000F1E0E9E0DEE0DAE0D6E0C7E0BCE0B0E0E3
:10325000ABE0A1E096E08BE082E079E070E067E02F
:103260005EE023E0FFE714984030017C002912D192
:10327000027814982030C17F01920091837F427FB1
:10328000A2E7149A1BA155321598AFE0149840306C
:10329000017C002903D0407D00280FD0F1E7827A1D
:1032A000417A01920091037AC2798DE71498A03097
:1032B000427B37E71498A030427D33E799E0000065
:1032C000C00000200D0A0000253032583A25303267
:1032D000583A253032583A253032583A253032584B
:1032E0003A2530325800000025782E25782E257892
:1032F00000000000257300002564000025642E25D1
:10330000642E25642E256400D60B00002563000082
:1033100025732D25303278253032782530327800EB
:103320001498A030827BFDE61498A030827DF9E6E7
:103330001498A030C27BF5E61498A030C27DF1E667
:103340001498A030027CEDE61498A030027EE9E6E5
:103350001498A030427CE5E61498A030427EE1E665
:103360001498613006E014988130417C007C10E0B4
:103370001498A030417F007F0BE01498C23041794F
:10338000007906E01498A230F4E71498C030417A2E
:10339000007A0A020243C5E61498C030027802E0BF
:1033A0001498C030827AFEA14FE01498A030C27900
:1033B000B8E61498A030817A0091437A027AFAA193
:1033C000159801F0DDFD71E01498803080790028B7
:1033D0000FD0149AF8A18632159807E01498C07F90
:1033E000002806D0149AF4A11F32159801F0C8FDE8
:1033F0005CE02022F1A128E08120000255E041207C
:10340000400252E0EE4888210078084201D01020A6
:103410004BE04320400248E0E94888210078084218
:10342000F7D0202041E0E648882100780842F0D01B
:1034300080203AE01498A030007B02E01498A0307D
:10344000007D8100DF484258DBA11598CEE7149833
:103450002030007F02E01498403080798100D84805
:103460000830F0E7D648882100780842D1D0149877
:1034700041304278037810021843012805D00C43EC
:1034800014E01498A030C27A4CE62120C0010CE070
:10349000CB48882100780842BBD014990120203104
:1034A000087714994031887190200443C64804423B
:1034B00008D01598801E0390077043E321208002F6
:1034C0000443C4E7C1A1159802F0DAF8159802F098
:1034D00065F815994018039034E314982030417A28
:1034E000002905D1817A082902D1C07ADC2809D0C7
:1034F000149AB7A104A8293200F046FDC5E2852040
:1035000000021EE3832000021BE300F0F4FC00999C
:103510000129F4D10128F2D814994031C6E100F014
:10352000EAFC00990129EAD10328E8D8149920314E
:10353000C87607E300F0DFFC00990129DFD10328FA
:10354000DDD8149940312BE200F0D5FC0099012917
:10355000D5D10128D3D814998031BDE100F0CBFC3E
:1035600000990129CBD10128C9D81499A0318871BB
:10357000E8E200F0C0FC00990129C0D10128BED8C2
:1035800014996031C877DDE200F0B5FC009901299B
:10359000B5D10128B3D814998031C874D2E216AAE3
:1035A0008CA104A801F04EFE8B4916988842A6D83B
:1035B00014998031C7E016AA86A104A801F042FE42
:1035C0008549169888429AD81499803116E016AA2F
:1035D00080A104A801F036FE7F49169888428ED853
:1035E00014998231AFE016AA7AA104A801F02AFE4C
:1035F00079491698884282D8149982310875000A50
:1036000030E116AA73A104A801F01CFE72491698B5
:1036100088428AD814998031C0E116AA6DA104A805
:1036200001F010FE6C491698884289D814998031AF
:103630000876000A487685E217A904A800F0F8FB8E
:10364000002800D15BE7149810A9097F2030C173CE
:1036500010A9497F017410A9897F417410A9C97FFD
:1036600081746FE217A904A800F0E2FB0028E9D0FA
:10367000149810A9097F2030C17510A9497F0176DF
:1036800010A9897F417610A9C97F81765AE217A9CE
:1036900004A800F0CDFB0028D4D0149810A9097F0D
:1036A0002030C17410A9497F017510A9897F417527
:1036B00010A9C97F817545E217A904A800F0B8FBDD
:1036C0000028BFD0149810A9097F4030417410A978
:1036D000497F817410A9897FC17410A9C97F0175C0
:1036E00030E200991329ADD8202804D0149A32A1D1
:1036F00004A8921DE3E11498D6E116AA35A104A806
:1037000001F0A0FD3449169888429BD814994131A4
:1037100019E016AA2FA104A801F094FD2E491698CD
:1037200088428FD8149943310872000A487209E21E
:1037300016AA28A104A801F085FD274916988842F9
:10374000D1D8149943310870000A4870FAE116AADA
:1037500020A104A801F076FD1F4916988842C2D81E
:10376000149941310873000A6CE017A904A800F00D
:103770005FFB002832D0149810A940300774149AC7
:10378000097F2032517710A9497F00E0FAE1917753
:1037900010A9897FD17710A9C97F0170D2E10000FB
:1037A000253032580000000025303258253032587C
:1037B000253032580000000025730000256300000A
:1037C0009C00002024020020B08000000D0A0000B0
:1037D0002E3A2D00256C6400FFFF00001498012193
:1037E000403001746946097C20291BD0149804A933
:1037F000553001F0ADFEA5E117A904A800F018FBB3
:103800000028EBD0149810A940300774097FC171CB
:1038100010A9497F017210A9897F417210A9C97F3F
:1038200081728FE147758DE118AAF8A104A801F013
:1038300009FD0098022892D810A8008C0D288ED877
:103840001499A03148737DE118AAF0A104A801F0F1
:10385000F9FC00980228EED810A8008C0D28EAD8B0
:103860001499A03148756DE187E183E100F043FBD5
:103870000099012900D042E60128FCD81499A03112
:1038800088735FE100F037FB00990129F3D101282B
:10389000F1D81499A031887554E100F02CFB0099FF
:1038A0000129E8D10228E6D81499A031C87349E16A
:1038B00000F021FB00990129DDD10228DBD8149901
:1038C000A031C8753EE100F016FB00990129D2D164
:1038D0000128D0D81499A031087433E100F00BFB13
:1038E00000990129C7D10128C5D81499A0310876BB
:1038F00028E100F000FB00990129BCD10228BAD8C8
:103900001499A0310A7B012A01D14F741AE148743D
:1039100018E100F0F0FA014600980128ABD1022925
:10392000A9D81498A030027D012A01D0417609E17E
:10393000477607E116AAB64904A801F083FCB54909
:103940001698884297D81499613118E016AAB049A0
:1039500004A801F077FCAF49169888428BD81499D7
:1039600081310874000AD2E716AAA94904A801F017
:1039700069FCA849169888428AD81499A03108771A
:10398000000A4877DEE016AAA14904A801F05AFC13
:10399000A0491698884286D81499C2310871000A45
:1039A0004871CFE018AA99A104A801F04BFC009837
:1039B00003288ED810A8008CFF288AD8C1B214988A
:1039C000A2300177090A4177BCE018AA8FA104A8A8
:1039D00001F038FC0098032886D810A8008CFF2836
:1039E0008DD8C1B21498C0300172090A4172A9E0A1
:1039F0000098022892D104A800F065FA002800D1AE
:103A00007DE518AA84A104A801F01CFC10A8008C74
:103A1000C1B21498C0300170002902D00121017197
:103A200090E007718EE000980228E9D104A800F028
:103A30004AFA0028E4D018AA77A104A801F002FCF1
:103A400010A8008CC1B21498C0308172002902D035
:103A50000121817376E0877374E000F04CFA0099DD
:103A60000129CDD10128CBD81499A031C87169E0C2
:103A700000980628C4D104A800F025FA0028BFD079
:103A8000149904A8A83100F054FA0028B8D059E0DD
:103A900000990929B4D8202804D0149A5FA104A859
:103AA00086320CE01498803087714BE00099092928
:103AB000A6D8202806D0149A58A104A81F3201F0D5
:103AC000C1FB3FE01498C7773CE016AA504904A810
:103AD00001F0B8FBC72116980902884205D9199947
:103AE0000020C91C01F08FFE09E5199980B2C91C9C
:103AF00001F089FE199901200870402004431498B0
:103B0000474B2030827C417C009102930192037CE0
:103B1000C27B44A1039801F033FA13E000F0EBF903
:103B200000990129E0D10128DED81499A031C8728A
:103B300008E000F0E0F900990129D5D10128D3D897
:103B400000E0044320041BD5AF70FF2E02D03A489A
:103B5000B10045580120C003201A001281003748E7
:103B60002B46425836A1039801F00AFA10E0812052
:103B70000002E6E743204002E3E721208002E0E77D
:103B80002CA1002001F0A4FC050001D0FFF700FAF1
:103B900020461BB0F0BDF3B599B0054600F07CFEA1
:103BA0000446254E0020243E169030702648FCF72F
:103BB000E1FE00287ED0222826D12448406A020453
:103BC000120C21D015A800901A9F17AB294602208D
:103BD000FDF767FA80B2281800212038C17705A9BF
:103BE0002846FFF779F92B2865D1062218A105A8E8
:103BF00001F080FC00282FD021460622293105A89B
:103C000001F078FC00282AD08CE000002564000038
:103C1000D4370000FFFF0000257800002573000066
:103C200052C30000465725642E25642E25642E2598
:103C3000643A25640D0A0000C0000020F80100204D
:103C400025733A25730D0A00300009460002094623
:103C5000FFFFFFFFFFFF00003078802101E0307898
:103C6000882108433070000654D520462030867BDA
:103C7000437B027BC17A019102A94CC1817A0091F8
:103C8000437A574857A1C26A384601F079F90A3594
:103C900005A928460A37FFF71FF92C2842D16846A4
:103CA000007D202802D1E07F002809D021461F3165
:103CB00005A801E030E02DE001F050FD002831D1F1
:103CC00005A801F06BFC021D2946384601F0E4FC12
:103CD00005A801F063FC451905A82D1D01F05EFC47
:103CE000C419241D21462846FFF73BF9169005A864
:103CF00001F054FC0546204601F050FC28180E3017
:103D000082B210A8808A00903BA302201A99FDF786
:103D10001AF907E000203CE702210023384A084650
:103D2000FCF7B2FE169834E770B500F0B5FD054615
:103D300000F0B4FD33493448FFF72DFF044600047A
:103D400008D5A035A879012803D121462FA001F07C
:103D500009F970BD002CFCD0200702D500F0D8FA7C
:103D600012E0E00602D500F0C8FE0DE0E0040BD53D
:103D70002CA001F0F7F8002000F0F1F9012000F08C
:103D8000EEF9022000F0EBF960060CD5052000F0FA
:103D900061FB8028DDD101203C2148554035A871C8
:103DA00000F0ABFE01E02006D3D500F0CAFA70BDEA
:103DB0000B48A4384178002910D082881A4B002182
:103DC0009A4203D28288521C828000E081808288DD
:103DD000164B9A4202D30122827081807047000004
:103DE0004001002025732563256325632563256332
:103DF00025630D0A00000000FFFFFFFF0000000028
:103E000051C30000600C0020600A0020203E2053B7
:103E1000454743503A4552524F523A253034580D97
:103E20000A0000000D0A0000FFFF0000983A0000A1
:103E3000F3B5002583B02E462C46039801F0AEFB67
:103E4000C7B2002001900090F81F092839D22EE057
:103E500001F080F801680398405D095C202902D0D8
:103E60002E2811D02DE00A214C43303C01198CB290
:103E7000FF2C26D8009901AA50540098401CC0B2CB
:103E8000009003281DD810E0FF2C1AD8761CF6B23B
:103E9000042E16D8002401A801F00DFB04998919FD
:103EA0002039C8770020019000906D1CEDB2BD4212
:103EB000CED301A801F0FFFA04998855012005B07E
:103EC000F0BD0020FBE770B5054600240CE001F0D2
:103ED00041F80068295D415C88004840000601D433
:103EE000002070BD641CE4B2284601F057FBA042DC
:103EF000EDD8012070BD10B50446112801D2FF2075
:103F000010BD01F027F80168085D202805D0204683
:103F100028383F2803D2513C08E0303C06E02046D8
:103F2000402C04D9472C02D90446313CE4B2204647
:103F300010BD70B50E460546002401F02FFBC1B23E
:103F4000C80706D1102904D82878002801D00020FD
:103F500016E0002070BD2A5C392A01D9373A00E00A
:103F6000303AD3B22A185278392A01D9373A00E0C8
:103F7000303A1B0113433355641C801CE4B2C0B2B9
:103F80008842E8D3012070BDF7B584B0054600240F
:103F900001F004FB2978C0B2002901D0112802D019
:103FA000002007B0F0BD002601AF600020184119C5
:103FB0000322684601F070FB68468178002904D02E
:103FC000059801F08DFA0028EBD068468670FFF75F
:103FD0007AFF0028E5D039196846FFF7AAFF641C6C
:103FE000E4B2062CE1D3062201A9069801F054FBA5
:103FF0000120D6E7F8B50D46044601F0CFFAC0B26D
:10400000C10716D1102814D82078002811D0002616
:10401000C1B268460170617841702A4686706D1C95
:1040200005A101F00FF9A078A41C0028F0D101200F
:10403000F8BD0020F8BD00002578000070B5334CB5
:10404000256866172660324EB047256070BD07228E
:104050001203304B10B50021821A9A4202D8122462
:1040600001460EE02C4A904204D32C4A104201D162
:10407000102406E0294A5242904209D3800C07D10D
:10408000112472B600231A462046FFF7D7FF62B606
:1040900010BD10B5410C07D172B6002301461A4677
:1040A0001320FFF7CBFF62B610BD70B514460A4669
:1040B000194B1B49984208D3850C06D1FF250135C1
:1040C000AC420DD8E3188B420AD8002C01D18842AB
:1040D00006D801214904FF23411A5B02994201D20B
:1040E000002070BD72B6234601462220FFF7A6FFCE
:1040F00062B6204670BD10B50346002002E01C5C8D
:104100000C54401C9042FAD310BD000000E200E0C5
:104110000110FF1FFF8F010000FE03000001FCFFE4
:10412000FFFF030070B51C4615460E46030002F063
:104130002BFB0504080C10101500062229462D48FB
:104140000AE0224629462C4806E0224629462B480A
:1041500002E0224629463046FFF7CDFF70BD70B51C
:10416000030002F011FB0504060A0C0F11002148A0
:1041700000E02148FFF76BFF70BD2048FAE70725F4
:104180002D0305E01E4D03E0032801D00428F3D1E0
:10419000C726002420024019FFF759FF641CA4B26F
:1041A000B442F7D370BD70B51C4615460E460300E9
:1041B00002F0EAFA05040B1219191E000020FFF79D
:1041C000CEFF062229460B4810E00120FFF7C7FF6B
:1041D00022462946084809E00220FFF7C0FF224690
:1041E0002946064802E0224629463046FFF75DFF91
:1041F00070BD000000FF010000FE030000FF03008F
:104200000037010035490020C860704770B5334C55
:104210006088401C6080FFF7CBFD00F0E3F9304878
:1042200000250078002808D0E088401C80B2E0809B
:10423000642802D301202070E5807D21C9006088B8
:1042400001F0E9FA002905D16580A088401CA08012
:10425000FEF739FB3C21A08801F0DDFA002903D1EB
:10426000A580A068401CA06070BD10B51B4CE06824
:10427000411CE160232803D3FFF7C8FF0020E06062
:1042800010BD30B50124174985B020030860164DD4
:104290002846FCF723F8FBF7A7FF7D21C90001F0B2
:1042A000BAFA0090002004900290019469460394A9
:1042B0002846FCF753F801212846FCF765F8284604
:1042C000FCF775F805B030BD0448806870470348B6
:1042D000808870470148408870477047140200206A
:1042E0009800002000E100E0001000401FB5684683
:1042F000FCF704FA69460548FCF70EFA1FBD10B535
:10430000E1204002FCF7B8FA10BD000000D00040E8
:1043100010B500F0C6FA00F0F0FB10BD10B5C548AE
:10432000FCF728FB172808D01C2806D00320FCF730
:104330007BFB0220FCF778FB10BD0320FCF7CAFCD6
:10434000F7E7FFF7EBFFBFF34F8FBC49BA48C860F0
:10435000BFF34F8FFEE7BA48002101708170818062
:10436000C1804170C1707047F3B583B000F096FA18
:104370000190039800268704B24834460096381806
:10438000FCF7F8FAAE4D172808D002DC00285FD100
:1043900051E018284FD01C285AD142E0A9481038C3
:1043A0003818FCF7E7FAC00707D00120A870A54825
:1043B000012108383818FCF7DFFAE878012834D0F2
:1043C000A1483818406A0404240C41D0012080021E
:1043D000844200D904460198C01C01F003FAE96840
:1043E0000A19904201D2401A84B2224604990398D5
:1043F000FCF742FD84B2E868210A0019E8606846CB
:1044000001704470022269460398FCF7A5FCEE8017
:104410000198C01C01F0E6F9E968884218D8AE801E
:10442000AE700398FCF756FC12E00398FCF752FCC0
:10443000002005B0F0BD2023844A01210398FCF739
:1044400023FB01460398814202D1EE60FCF787FB13
:104450002046EEE7F1B58AB000F020FA064600F0FB
:104460001BFA05463078A535202700280FD0F01C10
:1044700001F0B8F9C7221202002801D0904209D9F0
:104480006978012903D10146714800F06BFD402095
:104490000BB0F0BD0A996F4C052907D00A460721D9
:1044A0000903032A4ED0042A47D03AE0697801294B
:1044B00003D1014668A000F055FD614900208860E5
:1044C0000420FFF74CFE5E49012008700C4671493C
:1044D0000520FFF749FF03000CD05E48A1686D4A34
:1044E00009180420FFF75FFEA16880B20818A060D9
:1044F0000020A0806078012809D0E07801280AD047
:10450000F01C01F06FF9A1688842E0D80AE06878F1
:1045100001285CD005E06878012802D15EA000F097
:1045200021FD4027F01C01F05DF94549896888426A
:1045300054D16A78012A4CD04FE0032205940092AE
:10454000079103E0042200920794059169780129FC
:1045500003D101465EA000F005FD394C0020A060AB
:104560000A98FFF7FCFD01208002069001202070D0
:1045700060780128CBD0F01C01F034F90122A16849
:1045800092028A18904202D2401A80B2069007988E
:10459000404A4118069B0098FFF7C4FD03041B0C1A
:1045A0000CD00598A1683B4A41180A98FFF7FBFD1B
:1045B000A16880B20818A0600020A080FFF755FE17
:1045C000F01C01F00FF9A1688842D1D8AAE750A0E9
:1045D000A5E702465CA000F0C5FC8027FFF7BBFE04
:1045E000384655E730B516487D230578624A9B0169
:1045F00001240021012D0CD18588954203D28588A4
:104600006D1C858000E0818085889D4201D34470C7
:1046100081808578012D0CD1C588954203D2C2884E
:10462000521CC28000E0C180C2889A4201D3C4708B
:10463000C18030BD30000D460400FA0500ED00E0F9
:104640002C020020300001460002014652C3000047
:10465000A06B000000370100203E20534547435027
:104660003A46575F5550444154453A4E4554574F8A
:10467000524B202D204669726D77617265207369F7
:104680007A653A205B25645D2062797465730D0A52
:104690000000000060060020203E205345474350A4
:1046A0003A46575F5550444154453A4641494C4576
:1046B00044202D204E6574776F726B20646F776E87
:1046C0006C6F61642074696D656F75740D0A00000C
:1046D000203E2053454743503A46575F555044418A
:1046E00054453A464C4153482D746F2D464C415326
:1046F00048202D204669726D776172652073697A52
:10470000653A205B25645D2062797465730D0A004B
:10471000203E2053454743503A46575F5550444149
:1047200054453A4641494C4544202D204669726D16
:1047300077617265207570646174652074696D6558
:104740006F75740D0A000000203E2053454743500A
:104750003A46575F5550444154453A5355434345B3
:104760005353202D202564202F2025642062797446
:1047700065730D0A00000000FFFF0000704710B5D0
:1047800001232120002219464006FBF755FF10BDEA
:104790007047FEB50446022818D23B4E6500705B98
:1047A00000900120694608713848A700C059FBF7FE
:1047B00040FE3648715B401F025D801E005DFBF7C6
:1047C00013FF3248715BC059FBF7AFFEFEBD10B559
:1047D0000020FFF7DEFF0120FFF7DBFF0120FFF7DE
:1047E0007CFD01229203432051000006FDF75AFA96
:1047F0000020FFF772FD2549002008390870FFF7F7
:10480000BEFF10BD2249022008632249886070471C
:1048100010B5212001214006FBF773FE10BD0120D9
:1048200070477047002070470120704710B502287C
:1048300007D2154A4100515A144A80001058FBF71C
:1048400082FE10BD10B5022807D20F4A4100515A0E
:104850000E4A80001058FBF768FE10BD022808D2EF
:104860000A49820089584A68074B4000185A42405A
:104870004A60704710B5044A4100515A034A80000B
:104880001058FBF748FE10BD50690000440200209C
:104890004011004100200041FE487047FD48D830DB
:1048A0007047F8B5FB48D82141770021817707464A
:1048B000397001257D700C46B9700D21B81D00F0CE
:1048C00048FF0D22F4A1B81D00F0E6FE0226FE709E
:1048D0003C713A467C71C0212032D173A8231374F5
:1048E0000B2050749674D174137550759575FF260E
:1048F000D67516765676947600223E4610460A21E4
:104900004843801901462031CD760D77C0234B777F
:10491000A8238B770B23CB77032340210B54E24949
:104920005318014641310B701F0A4F70891C0B70E0
:104930001B0A4B70142151438B19194661310C77B6
:10494000270A4F771F31D94F0F713F0A4F718C469D
:104950000146A0310C77270A4F77891C0C77270A6C
:104960004F77C030047044708470C4700471447117
:104970007F21CD54CE4861460870000A4870CA486D
:1049800082331870000A5870D0008019A030047368
:104990000C2141738573C47304744474521C847471
:1049A000D2B2C474022AA9D3BA4F0120A037B87179
:1049B00038460A21813800F0CCFE00251420294613
:1049C0004143B4480E18304686300A2100F0C1FE3B
:1049D00080366D1CEDB23474022DEFD3AD48082142
:1049E0004030C473047441748174C174017528210A
:1049F000153000F0AEFE0126FE71FC722B203872DD
:104A00007872B872A3480F21C0300174002141743C
:104A1000811C0E7400224A740C2202750022427519
:104A20000C75200A0D46487516352C70A14928468C
:104A30004170090A8170E91C104600F0E4FE502024
:104A400028720020687228460B30AE721E21044680
:104A500000F07FFE132298A1204600F01DFE28469C
:104A600029302821044600F074FE202297A1204618
:104A700000F012FEF8BDF8B5FFF7D3FED823854A43
:104A800000210120FFF74EFB824A5123D83200213A
:104A90000220FFF747FB7F48817F427F08021043D7
:104AA00002D0924988420ED1FFF7FBFED823794A03
:104AB00000210120FFF777FB764A5123D8320021ED
:104AC0000220FFF770FB0024724E0127E0008519D9
:104AD000A035687C03280ED004280CD0FFF7A2FE76
:104AE0002873641CE4B2022CF0D30220F070002082
:104AF00030717071F8BD2F73F3E710B5D823654A94
:104B000000210120FFF74FFB624A5123D8320021D8
:104B10000220FFF748FB10BD10B500F0BDFD10BD31
:104B200010B500F0B9FD10BD10B504460146594856
:104B300006222930FFF7F4FF56480422A11D2F302A
:104B4000FFF7EEFF5348214604220E313330FFF7C2
:104B5000E7FF5048214604220A313730FFF7E0FFD3
:104B60004C482146042212315130FFF7D9FF494801
:104B7000A17D4030012902D00121C17310BD002167
:104B8000FBE710B54349044606222931FFF7C4FF6D
:104B9000404904222F31A01DFFF7BEFF3D492046AA
:104BA000042233310E30FFF7B7FF3A492046042282
:104BB00037310A30FFF7B0FF364920460422513121
:104BC0001230FFF7A9FF33484030C07B012802D0E4
:104BD0000120A07510BD0220FBE7F0B589B02D4D76
:104BE00003A90120FCF736FF6846427C017CC07BAC
:104BF0006B4607C36846837B427B017B3CA000F089
:104C0000B1F92F464337797A387A09020143B81E41
:104C100042780078120202436846407D009001927B
:104C200002916846037DC27C817C3BA000F09AF92A
:104C30006846407F00906846037FC27E817E42A026
:104C400000F090F96846407E00906846037EC27D81
:104C5000817D43A000F086F908A84078009008A85C
:104C600003786846C27F817F43A000F07BF900266D
:104C700030460A214843401904462034E17E012988
:104C800006D05021495D012903D0014643317FE020
:104C90009CE090E0600E002057495A37353253525D
:104CA0002D3132780000000088130000B80B00009E
:104CB000581B000052C300006465766963652E7757
:104CC000697A77696B692E6E657400002F77697A4F
:104CD00037353073722F66772F5737353030785F1E
:104CE0005332455F4170702E62696E00FFFF000015
:104CF0002023204D41433A20253032583A25303286
:104D0000583A253032583A253032583A2530325800
:104D10003A253032580D0A002023204950203A20ED
:104D200025642E25642E25642E2564202F20506FA7
:104D30007274313A2025642C20506F7274323A20FC
:104D400025640D0A000000002023204757203A2048
:104D500025642E25642E25642E25640D0A0000008E
:104D6000202320534E203A2025642E25642E2564CE
:104D70002E25640D0A000000202320444E533A20C3
:104D800025642E25642E25642E25640D0A0000005E
:104D90004A780B7840300290007811021943009055
:104DA0000191E37FA27F617F48A000F0DBF8E07E05
:104DB00003280CD01BE0002E19D178783978020234
:104DC0000A43294655314CA000F0CCF80FE0607F33
:104DD000002809D1A07F002806D1E07F002803D158
:104DE00002980078002809D04DA000F0BBF8761C8E
:104DF000F6B2022E00D23BE709B0F0BD4DA0F4E7B9
:104E000010B5514C5148617AFBF7B6FD4F48A17A75
:104E1000401EFBF7B1FD4D48E17A801EFBF7ACFD6B
:104E20004A48217BC01EFBF7A7FD4848617B001D57
:104E3000FBF7A2FD4548A17BC01CFBF79DFD10BD03
:104E400010B5414C86B0203C2146062229316846E7
:104E5000FFF762FE214601A804222F310230FFF73E
:104E60005BFE214603A8042233310230FFF754FED3
:104E7000214602A8042237310230FFF74DFE2146B9
:104E800004A8042251310230FFF746FE4034E07B93
:104E9000002801D0022000E001206946887500202A
:104EA000FCF7D8FD06B010BD274820300121C173A2
:104EB0007047254820300021C173704701462248C1
:104EC00010B50622093000F0E7FB10BD2023204476
:104ED000657374696E6174696F6E2049503A20255C
:104EE000642E25642E25642E2564202F20506F7299
:104EF000743A2025640D0A002023204465737469E8
:104F00006E6174696F6E20446F6D61696E3A202521
:104F100073202F20506F72743A2025640D0A000010
:104F20002023232055445020313A31204D6F6465B1
:104F30000D0A00002023232055445020313A4E20F2
:104F40004D6F64650D0A0000800E0020036000466E
:104F50007047000010B501F023F8001D10BD00BF20
:104F6000511800000FB4054910B503AA029801F0CA
:104F7000ABF810BC08BC04B0184700009400002037
:104F80000FB41CB5074B06AA7B44694600900598F0
:104F900001F06BF80020694601F07AF81CBC08BCEF
:104FA00004B018470511000070B504468569006813
:104FB000C10601D5302600E02026C00707D070BD0D
:104FC00062683046A1689047206A401C20626D1ECE
:104FD000F6D570BD70B5044685690078C00707D165
:104FE00070BD6268A16820209047206A401C206242
:104FF0006D1EF6D570BD70B50C460546012A05D06C
:105000002878800600D5EA69002302E0012305E044
:105010005B1C934202D2E05C0028F9D1A869E61833
:10502000C01AA861286AC01828622846FFF7BCFF8A
:1050300004E06A682078A968641C9047B442F8D3F9
:105040002846FFF7C7FF70BDF7B500257529106822
:10505000009914A611D0C046C046002802DA40428A
:1050600011A608E0009909688A0701D50FA602E099
:10507000490704D50EA6012501E0C046C046009FA1
:105080000024243704E001F0D9F830313955641C8C
:105090000028F8D12B4632462146009800F088FFC0
:1050A000FEBD0000000000002D0000002B000000ED
:1050B0002000000070B504460D4621461068C04629
:1050C000C0462188090502D50F4A7A4402E00E4AFB
:1050D0007A440E3223460021243305E006070009F6
:1050E000360F965D5E54491C0028F7D120780023C6
:1050F000000705D5702D03D0002901D002231132FD
:10510000204600F055FF70BD86180000F3B5044638
:10511000002081B020622046E168884700287DD0C9
:10512000252802D06268A16883E0454F00257F44AE
:105130002046E16888472028064608DB312E06D243
:10514000B81920380078002801D00543F0E7A807F7
:1051500001D5042085430020E0610746A0612A2E86
:105160000AD0304601F01DFB002827D0B8000019F6
:10517000303E0090866119E00298BA00121902C808
:10518000916102902046E1688847012F064617D1B9
:10519000E06900281FDA202085431CE000980A21DE
:1051A0008069484300998019303888612046E16859
:1051B0008847064601F0F5FA0028EFD1012F0AD002
:1051C0002E2E08D12046E168884706462020054358
:1051D0007F1C022FC3DBA069002803DA4042A061D4
:1051E00001200543E80701D010208543002E24D07C
:1051F00030464138192803D80120C0020543203623
:10520000204625603146029A1546FAF77DFF0028B0
:105210000CD0012807D0ED1DE80800E00DE0C0002B
:105220000830029077E72D1D029574E762683046DA
:10523000A1689047206A401C6CE7206AFEBD000010
:105240004A1800000FB400B58DB010A909900B905A
:105250000020C04300910A9000200C900748784439
:105260000690074878446A4607900F9909A800F00D
:1052700055FF0DB008BC04B018470000DF0E000059
:10528000F90E0000FFB51D460027FF4383B05C68A0
:10529000002001909E68A96904987F1C88470090AF
:1052A000296A88470028F6D10098401C0CD00320BA
:1052B00040028443002E19DD600614D500982B2887
:1052C00009D02D280FD103E00020C04307B0F0BD66
:1052D000012080020443A96904987F1C8847761E38
:1052E000002E009002DD0098302803D00598002899
:1052F00025D035E00120A96940020443761E0498B8
:105300007F1C8847002E009003DD782805D05828A0
:1053100003D00598002810D022E00598002801D07D
:1053200010281DD10120A96940028443761E0498EB
:105330007F1C88470090102002E0082000E00A202F
:1053400005900DE00121059A49020C430199761E52
:10535000514308180190A96904987F1C8847009060
:10536000002E05DD0599009800F0C2FE0028E9DA5C
:10537000E96904988847A00502D40120C043A5E745
:10538000E00722D1600611D56005019800D54042A2
:1053900029680A1D2A600968220501D5087014E0F1
:1053A000220701D5088010E008600EE02868011D82
:1053B00029600068210502D50199017005E02107E7
:1053C000019901D5018000E0016038467EE7FFB514
:1053D000144683B000200026009050680190916927
:1053E0009768049888470C9905460698084305D0A5
:1053F00009E0A1690498761C88470546216A284679
:1054000088470028F5D1681C03D00198C00704D054
:1054100017E00020C04307B0F0BD2068011D2160E7
:10542000006800900DE00198C00704D10098057055
:105430000098401C0090A169761C04987F1E884744
:105440000546002F1CDD681C1AD0069800280FD0D6
:10545000E817C00E4019411140098A000699400121
:1054600051182A1A0968012090400142DBD107E057
:105470000C980028D7D12846216A88470028D2D026
:10548000E169049888470C98002807D1002E05DDB3
:105490000198C00702D1009800210170A068B842AD
:1054A00004DD0C98002804D0002F02D00120C04356
:1054B000B1E73046AFE770B5064600F075FD046809
:1054C000054630460A22002100F05CFE2C6070BDCB
:1054D00010B5024A00F08EFE10BD00004C02002004
:1054E000401ECAB24178401C8A4202D00029F9D13C
:1054F00000207047034610B50B439B070FD1042AC9
:105500000DD308C810C9121FA342F8D018BA21BA87
:10551000884201D9012010BD0020C04310BD002ADF
:1055200003D0D30703D0521C07E0002010BD03783E
:105530000C78401C491C1B1B07D103780C78401CBD
:10554000491C1B1B01D1921EF1D1184610BD000051
:10555000034670B502460B439B070FD10E4CE60184
:1055600000E008C208C91D1B9D433542F9D0D9B2DD
:105570001170521C00290DD01B0AF8E70B78491C4A
:105580001370521C002B05D00B78491C1370521C51
:10559000002BF3D170BD00000101010130B5441CA6
:1055A00003E00178401C00290DD08107F9D10B4B95
:1055B000DD0104C8D11A91432940FAD0001B0A0624
:1055C00003D0C01E30BD001B30BD0A0401D0801EB8
:1055D00030BD0902FCD0401E30BD000001010101B8
:1055E0000346F0B50B439B072DD1244DEF01042A50
:1055F00029D308C810C95E1B9E43121F3E4017D016
:10560000D8B2E1B2401A3106014310D198B2A1B22A
:10561000401A310401430AD118022102000A090A82
:10562000401A3102014302D1180E210E401AF0BD7A
:10563000A342DCD018BA21BA884201D90120F0BDBA
:105640000020C043F0BD002A01D10020F0BD037846
:105650000C78401C491C002B0DD0A3420BD1521ECC
:1056600009D003780C78401C491C002B03D0A342BE
:1056700001D1521EEBD1181BF0BD00000101010148
:10568000421E5378521C002BFBD10B78491C13701F
:10569000521C002BF9D17047F8B5042A2CD383078C
:1056A00012D00B78491C0370401C521E83070BD08C
:1056B0000B78491C0370401C521E830704D00B78E2
:1056C000491C0370401C521E8B079B0F05D0C91A42
:1056D000DF002023DE1B08C90AE0FAF74DFDF8BD04
:1056E0001D4608C9FD401C46B4402C4310C0121F83
:1056F000042AF5D2F308C91A521EF0D40B78491CBB
:105700000370401C521EEAD40B78491C0370401CE5
:10571000012AE4D409780170F8BD01E004C0091F32
:105720000429FBD28B0701D50280801CC90700D059
:105730000270704700290BD0C30702D00270401CD2
:10574000491E022904D3830702D50280801C891ECA
:10575000E3E70022EEE70022DFE70000024670B533
:105760000A4392072AD11E4DEE0104C808C9541BF2
:105770009443344017D0D0B2D9B2401A2106014325
:1057800010D190B299B2401A210401430AD11002FB
:105790001902000A090A401A2102014302D1100E1F
:1057A000190E401A70BD9A42DFD010BA19BA884259
:1057B00001D9012070BD0020C04370BD02780B7874
:1057C000401C491C002A09D09A4207D102780B7864
:1057D000401C491C002A01D09A42EFD0D01A70BD5B
:1057E000010101010378C2781946437812061B02B1
:1057F00019438378C0781B04194311430902090A2D
:10580000000608437047020A08704A70020C8A704A
:10581000020ECA707047002203098B422CD3030A80
:105820008B4211D300239C464EE003460B433CD4ED
:10583000002243088B4231D303098B421CD3030A55
:105840008B4201D394463FE0C3098B4201D3CB0185
:10585000C01A524183098B4201D38B01C01A5241B5
:1058600043098B4201D34B01C01A524103098B42B9
:1058700001D30B01C01A5241C3088B4201D3CB00A4
:10588000C01A524183088B4201D38B00C01A524187
:1058900043088B4201D34B00C01A5241411A00D237
:1058A00001465241104670475DE0CA0F00D04942A0
:1058B000031000D34042534000229C4603098B4210
:1058C0002DD3030A8B4212D3FC22890112BA030A98
:1058D0008B420CD3890192118B4208D3890192111A
:1058E0008B4204D389013AD0921100E08909C3099F
:1058F0008B4201D3CB01C01A524183098B4201D3A1
:105900008B01C01A524143098B4201D34B01C01A8B
:10591000524103098B4201D30B01C01A5241C30803
:105920008B4201D3CB00C01A524183088B4201D372
:105930008B00C01A5241D9D243088B4201D34B008D
:10594000C01A5241411A00D20146634652415B10CF
:10595000104601D34042002B00D5494270476346B0
:105960005B1000D3404201B50020C046C04602BDD6
:105970007047704770470000F0B50C46871A9C418D
:105980000D46861A9D4103D2C01BA141D219634125
:105990000D0D1F0DC94EEC1BAE435CD07F057F0D76
:1059A0000026002F51D02D05AC46A943DD0201236E
:1059B000ED0A1B051D4320231B1B24D41746E7407B
:1059C000381871412F46E740CC199D4028183146C0
:1059D00061410C0D27D161449A4013D50023401C2E
:1059E000594152000ED14008400001224B0052059F
:1059F000D34207D305204007C14201D5B04900E09A
:105A0000B0493046F0BD6B00002A00D001229A1840
:105A10001F23203C1B1B01D5002302E0E540281872
:105A200071410C0DD7D0012424050919C407CD07F5
:105A300040084908E40F28436144002CD5D00024D5
:105A4000401C61419A40D0D1CDE76A05520DD9D1B1
:105A5000C90FC907D5E79C4D4E00002801D001248D
:105A600000E0002434195F00002A01D0012600E084
:105A70000026BE19954FAC420CD8AE420AD8B442AB
:105A800006D001256D05EC42BCD010461946F0BD8C
:105A90009942FCD000203946F0BDF0B51FB40C4649
:105AA0000F46811A9F412546861A9D4106D201253F
:105AB000ED076F40401ABC4152187B41210D1E0D6D
:105AC0008D1BAC467D4D8D437ED075056D0D7CD014
:105AD0000D05AE46AC431B031B0B794D52429D4155
