:020000040000FA
:1070000060360020F1710000599E00005B9E000078
:107010000000000000000000000000000000000070
:107020000000000000000000000000005D9E000065
:1070300000000000000000005F9E0000619E000054
:10704000699E00006B9E00006D9E0000799E00000E
:10705000859E0000879E0000899E00008B9E000098
:107060008D9E00008F9E0000919E0000939E000068
:10707000959E00009D9E00009F9E0000A19E000026
:10708000A39E0000A59E0000A79E0000A99E0000F0
:10709000AB9E0000AD9E000003720000AF9E00009A
:1070A000B19E0000B39E000000F002F800F059F815
:1070B0000CA030C8083824182D18A246671EAB460D
:1070C00054465D46AC4201D100F04BF87E460F3E7F
:1070D0000FCCB6460126334200D0FB1AA246AB467F
:1070E00033431847F4AB000014AC00000023002425
:1070F00000250026103A01D378C1FBD8520700D3EF
:1071000030C100D50B60704710B5642902D108F07A
:107110005FFE10BD752902D108F05AFE10BD782916
:1071200002D108F08BFE10BD632902D109F01AFFCD
:1071300010BD732902D109F01DFF10BD002010BD44
:107140001FB5C046C04609F0D1F809F083FE04001F
:10715000002000210AF08CFA401C60601FBD10B5B1
:1071600010BD0AF021FA1146FFF7EAFF03F006FA14
:107170000AF039FA03B4FFF7F2FF03BC02F0B1FEE4
:1071800030B40C490C684A6823681068C018106055
:10719000241D121D8C4207D28A4208D20C604A601C
:1071A00030BC4000400870470C00DC3CF6E70A00A9
:1071B000DC3AF3E7F429002070B505460C46164684
:1071C00002E00FCC0FC5103E102EFAD2082E02D3CB
:1071D00003CC03C5083E042E07D301CC01C5361FDE
:1071E00003E021782970641C6D1C761EF9D270BDF5
:1071F0000748804707480047FEE7FEE7FEE7FEE74F
:10720000FEE7FEE704480549054A064B70470000C3
:107210003B720000A9700000602A00206036002048
:10722000602E0020602E00203648006870473548E8
:10723000406870473448006A704710B53348816B26
:10724000334A1161C16B30484160002101624169DC
:107250008907CA0F012191404269D207D20F91409C
:10726000CAB2416940698904890E51438002294AA2
:10727000800E504309F02FFA2249086010BDF8B57E
:10728000254F0126204D01280FD000202862214CD7
:107290001046214609F01FFAC0B2012808D8EE6155
:1072A0006F6101210A46134619E02E620C46EFE792
:1072B0000021E961FF2101318006800A08436861ED
:1072C00068698007C00F86406869C007C00F8640A4
:1072D0006869F2B28004810E68698002830E2046DC
:1072E000084C51436060584309F0F5F92060F8BD3F
:1072F00030B4064B9C6B064D2C61DB6B024C63601B
:1073000030BCBCE7000000200010004180FD0300FD
:107310000012004100127A0000010200412109061A
:10732000002801D0032000E00120086070474121BF
:1073300009064860704701204121090688607047AE
:1073400041200006C06880B270474121090600282C
:1073500000D0022008617047412000060069000645
:10736000000E00D00120704701204121090608616C
:1073700070470020D2E700B50120FFF7CFFF0020C3
:10738000FFF7E3FF00BD00003F4A3F4B0121803281
:10739000984201D1116070473B4B2033984201D194
:1073A00011627047394A394B80329842F2D0374BDC
:1073B00020339842F4D07047334A334B0121C943FC
:1073C0008032984201D1116070472F4B2033984290
:1073D00001D1116270472D4A2C4B80329842F2D075
:1073E0002A4B20339842F4D0704781688022914321
:1073F0008160704781688022914381600021016033
:107400002022826081617047826880239A43826073
:107410000A68026082684B689B0113438A68920085
:107420001A43CB6809695B0013431943EF221140EB
:107430008160704720220129816802D091438160D8
:1074400070471143FBE70121C16070474069C0B23A
:10745000704780688006C00F7047816880221143A2
:1074600081607047006870470160704740687047EE
:107470008068704781607047006970474069704755
:107480008069704781617047001000400020004013
:1074900070B51024002101604160BF4A4261426220
:1074A0008162426321225206904202D1BB4BBC4A08
:1074B0000CE043221206904204D1B84BB84A403344
:1074C000403203E0B54BB64A80338032002060265C
:1074D00085005E515151401CA042F9D370BDF0B5FA
:1074E0002122002310265206904201D1AB4A08E027
:1074F00043221206904202D1A84A403201E0A74A34
:107500008032012425460F689D402F40AF4243D171
:107510000F79012F0DD045614D79AD070DD59C0038
:107520001559AD08AD001551155902273D431551A8
:107530000BE007692F430761EEE79D005759BF082D
:10754000BF0057515759274357514C79640704D509
:107550009C00155904273D4303E09C00155904275E
:10756000BD4315514C79A40604D59C00155920271C
:107570003D4303E09C0015592027BD4315514C792C
:10758000640604D59C00155940273D4303E09C0048
:1075900015594027BD4315515B1CB342B1D3F0BD13
:1075A0007D490160002101716221417170470246ED
:1075B000126800200A4200D001207047006880B2A3
:1075C00070470246526800200A4200D001207047EE
:1075D000406880B270470A06920D012312189B0280
:1075E000D21811600A0A920010185A00801801601F
:1075F000704710B50B069B0D0124CA431B18A4024B
:107600001B191A60090A89000818610040180260F5
:1076100010BD10B50B069B0D01241B18A4021B19ED
:107620001A60090A8900081861004018026010BD3C
:1076300041607047836A0B438362012A03D0426A28
:107640000A4342627047026A0A4302627047524A22
:107650008262012901D04262704702627047012AAA
:1076600003D0426B0A4342637047026B0A430263D2
:107670007047494A012901D042637047026370474D
:107680004549816370470246926B00200A4200D050
:1076900001207047F0B50126414D002334469C403F
:1076A0000C420ED0002810D0012811D03C4C9F0075
:1076B00080343C192768BF08BF002760276817433C
:1076C00027605B1C102BE9DBF0BD9C006419F1E71F
:1076D0009C006419276CBF08BF002764276C174300
:1076E0002764EEE77CB504461E460D466846FFF764
:1076F00057FF68460095027169462046FFF7EFFE86
:1077000021204006844201D1002006E043200006EB
:10771000844201D1012000E0022032462946FFF7D1
:10772000B9FF7CBD7CB5044616460D466846FFF79A
:1077300037FF00206946009508712046FFF7CFFE0D
:10774000206A28432062A06A2843A0623246294664
:107750002046FFF784FF21204006124E844206D1C6
:10776000002001222946FFF795FF802012E04320E8
:107770000006844207D1012002462946FFF78AFF0E
:10778000FF20013006E0022001222946FFF782FF98
:107790000120400230607CBDFFFF0000003000414E
:1077A0000020004100E100E0E12149020160602188
:1077B00081800021C18003220181120242818181E6
:1077C00070477047F8B50446006B0E46400840000D
:1077D0002063FFF72FFD8C4F0125002842D03D612B
:1077E000FFF722FD7A692946914008F074FF0746A9
:1077F0003068000109F008FB0090384609F004FBEE
:10780000009909F00DFA074609F0BAFA009009F05C
:10781000FBFA394609F088FF062109F0F9FA09F068
:10782000D5F90022794B09F083F909F0ADF9014649
:1078300000986062A162E06AEE218843B188F28814
:107840001143328902431143E162206B7049B289CE
:1078500008407189114301432163206B2843206351
:107860000020F8BD022038617869294681406948C6
:10787000BBE710B5C36A10242343C3624907890ECE
:107880005207520F1143416310BDC16A1022914348
:10789000C162704701607047006880B27047C16A7A
:1078A00001221143C16270470246526800200A4219
:1078B00000D0012070474160704702469269002065
:1078C0000A4200D001207047002A826B01D00A438F
:1078D00000E08A43826370470246926B00200A42AE
:1078E00000D0012070470246126C00200A4200D0EE
:1078F00001207047426C0A434264704710B5044649
:107900004548016B02290AD0006B032807D0FFF716
:107910008BFC214608F0DFFE4049086110BDFFF7EF
:1079200086FCF6E710B5FFF7E9FF3C4988680322BB
:107930008008800010438860002010BD70473749E0
:107940004A68D207FCD1086070473448006880B2AA
:107950007047324A0146526800200A4200D0012096
:1079600070472E4A0029916801D0014300E081430D
:1079700091607047294A0029916801D0014300E0D5
:10798000814391607047254A0146D26800200A422F
:1079900000D0012070472149CA680243CA6070477D
:1079A000016082691207FCD40846704730B50B4667
:1079B00005461C78002C03D021462846FFF7F0FF2F
:1079C0005B1C002CF5D130BD8169C906FCD4006870
:1079D000C0B2704700B50346FFF7B1FF184600BDBF
:1079E00010B503461C78002C02D02046FFF7A7FFF5
:1079F0005B1C002CF6D110BD084841688907FCD5F6
:107A00000068C0B270470000401100410000E03F34
:107A1000FE3CFFFF00127A000010004100600040B1
:107A2000007870470170704730B5002405E00D19EB
:107A3000ADB2455D1555641CA4B29C42F7D330BD70
:107A400070B5002405E00E19155DB6B28555641CAD
:107A5000A4B29C42F7D370BD70B514000FD01A4A7F
:107A600083049E18F268400795B2184AC00A104372
:107A70000A4623462946FFF7E3FF2819F06070BD48
:107A800070B514000FD0104A83049E18B26A4007E4
:107A900095B20F4AC00A10430A4623462946FFF70B
:107AA000C3FF2819B06270BD10B500290BD0064A7B
:107AB00083049B189A6A4007054CC00A511820435A
:107AC00089B20818986210BD000201460000024603
:107AD0000000034670B50446082802D90020C043C0
:107AE00070BDFA48A604301805461021FFF79AFF2A
:107AF0002846FFF795FF0028FAD1F4481F211830D7
:107B00003018FFF78FFFF24801218288A1408A4395
:107B10008280F04A002061005052ED49891D0855CD
:107B2000EA48203034182046FFF77AFF0028FAD1BF
:107B3000012070BDF8B51C4616460F4605460828BC
:107B400002D90020C043F8BD012F06D0022F04D077
:107B5000042F02D00420C043F8BD6007810FDE4827
:107B6000FAD1002C0CD0012F02D0022F08D103E053
:107B700021210C42F0D003E0A10601D52106EBD56E
:107B80002846FFF7A7FF21090901D0483943AF0470
:107B900010383818FFF746FF002E0AD1CC48CF4ADC
:107BA0000688711C89B20180914202D103218903A8
:107BB0000180C648F03038184661C44801213818A1
:107BC0000646FFF72FFF3046FFF72AFF0028FAD1BD
:107BD000BF48E107C90F4288A940114341800121F4
:107BE0008288A9408A438280BA4A002069005052A4
:107BF000B749891D4855B54820303C182046FFF745
:107C00000FFF0028FAD068B2F8BD70B50646082804
:107C100002D90020C04370BDAC48B404103820180D
:107C2000FFF7FEFE0007000F012802D00420C0432A
:107C300070BDA648203020180546FFF7F1FE132836
:107C400002D00220C04370BDA04802212018044683
:107C5000FFF7E8FE2046FFF7E3FE0028FAD12846AA
:107C6000FFF7DEFE142805D03046FFF733FF032070
:107C7000C04370BD012070BDF7B50D46074608280A
:107C800002D90020C043FEBD9048BC041038201823
:107C9000FFF7C6FE0007000F012802D00420C043F2
:107CA000FEBD8A48203020180646FFF7B9FE13288B
:107CB00002D00220C043FEBD29786A7808028018ED
:107CC000AA7800028018EA7800028018421C32D09C
:107CD000002830D00298002830D081482018FFF7C3
:107CE000A1FE7F486978401E2018FFF79BFE7C4864
:107CF000A978801E2018FFF795FE7948E978C01E04
:107D00002018FFF78FFE764902982739611808621C
:107D10006E48042120180546FFF784FE2846FFF729
:107D20007FFE0028FAD16A4901204988B8400842FC
:107D30001CD00020FEBD0B20C043FEBD0A20C04366
:107D4000FEBD2846FFF76CFE000708D55F480821F6
:107D500018302018FFF766FE0C20C043FEBD3046E9
:107D6000FFF75EFE002804D1001FFEBD574810300B
:107D700025183046FFF754FE1728E2D10120FEBD3A
:107D800070B50646082802D90020C04370BD4F4890
:107D9000B50410382818FFF743FE0007000F01282C
:107DA00002D00420C04370BD48480821281804466A
:107DB000FFF738FE2046FFF733FE0028FAD144498A
:107DC00001208A88B04082438A80498808420CD0CA
:107DD000002070BD2046FFF723FE00070BD530467C
:107DE000FFF778FE0C20C04370BD384810302C18C7
:107DF000364820302D182846FFF712FE0028E9D11A
:107E0000012070BDF7B582B002981446082803D946
:107E10000020C04305B0F0BD86042C48103830184F
:107E2000FFF7FEFD0007000F012802D00420C04329
:107E3000F0E7002C0CD02548203030180190FFF7D7
:107E4000EFFD172807D01C2805D00620C043E1E726
:107E50000D20C043DEE7029801251D4F8540B888FC
:107E6000054211D0194810303018FFF7D9FDC0066F
:107E7000C00EC10621D51548102118303018FFF763
:107E8000D1FDB888A843B8801548D9303018009083
:107E9000FFF7C6FD8006000C844200D90446009816
:107EA000406887B20198FFF7BBFD17281AD01C283D
:107EB00018D00298FFF70EFEC7E7000718D5029802
:107EC000FFF708FE0C20C043A4E7000010000146A5
:107ED0000800002088030020FAFFFFFFF0FF0000E9
:107EE00027010146FE484088054203D0BC4201D923
:107EF00000208FE7BC42D2D8224603990298FFF7B0
:107F0000ABFDF848202130180646FFF78BFD3046C0
:107F1000FFF786FD0028FAD1F14881880D4385805E
:107F2000204677E7F7B582B002981446082802D9B0
:107F30000020C0436EE78704EA4810383818FFF77E
:107F40006FFD0007000F012802D00420C04361E745
:107F5000002C19D0E4483818FFF762FD8006000CA9
:107F6000A04200D20446DF48203038180090DE4896
:107F700020383E18706A85B20098FFF751FD172827
:107F800015D01C2803D00CE00D20C04342E7002D83
:107F90001AD13046FFF744FD7168800289B28842E9
:107FA00005D10298FFF796FD0620C04332E70299FB
:107FB00001208840CA494988084203D0002D03D1D6
:107FC000002027E7002DD5D0A54200D22C4622461E
:107FD00003990298FFF754FDC2484021381805461E
:107FE000FFF720FD2846FFF71BFD0028FAD12046A9
:107FF00010E7FFB583B003981E461546082803D93D
:108000000020C04307B0F0BD8404B64810382018E3
:10801000FFF706FD0007000F022804D0042802D055
:108020000420C043EEE7002D1DD0307871780002A7
:108030004018B17800024018F1780002C84202D11D
:108040000B20C043DEE70C9800280FD0A548203055
:1080500020180746FFF7E4FC42280AD0222808D05F
:108060000620C043CEE70D20C043CBE70A20C04323
:10807000C8E79D483178F9382018FFF7D3FC9A48B3
:108080007178FA382018FFF7CDFC9748B178FB38A3
:108090002018FFF7C7FC9448F178FC382018FFF748
:1080A000C1FC90490C98F031611808628E48203864
:1080B00020180190FFF7B4FC8006000C854200D91F
:1080C000054603990120884000900198406886B2D7
:1080D0003846FFF7A5FC002808D081490098498858
:1080E000084206D0B54204D900208BE70320C043E4
:1080F00088E7B542E9D82A4604990398FFF7ACFC13
:108100007848202120180746FFF78CFC7548183066
:1081100026183846FFF784FC0028FAD17148103041
:1081200024182046FFF77CFCC006C00EC10605D50A
:1081300030461021FFF776FC284663E70007F0D5AC
:1081400030460821FFF76EFC0C20C0435AE7FFB50C
:10815000002485B00646082802D9601E09B0F0BD8B
:108160006048B50410382818FFF75AFC049000073F
:10817000000F022804D0042802D00420C043EDE7F9
:108180000798002805D059487700C05B002803D025
:1081900022E00D20C043E1E753482038281803901F
:1081A0005048203028180125B54002900398406AB5
:1081B00084B20298FFF734FC002806D04848408873
:1081C000054207D0002C03D006E00320C043C5E7DA
:1081D0000020C3E7002CE9D041480021801D8155D3
:1081E0000498B20441073F48490F151802291FD0CF
:1081F000042957D021463046FFF756FC3B48C4536C
:1082000028464021FFF70EFC2846FFF709FC00280E
:10821000FAD13648C15B091B0904090CC15305D0CA
:108220002F480122801D815D11438155204695E72D
:108230002E4CE05B002865D1082269463046FFF7E6
:108240001FFC28464021FFF7EDFB2846FFF7E8FB1F
:108250000028FAD16846017808980170684641788C
:108260000898417068468178089881706846C1789E
:108270000898C17068460E99007908800102684626
:10828000407908180E99088068468079010268468E
:10829000C0790818E05332E0224630460699FFF7CD
:1082A000EFFBADE7114CE05B00282BD102226946C1
:1082B0003046FFF7E5FB28464021FFF7B3FB284691
:1082C000FFF7AEFB0028FAD1684600780102684645
:1082D0004078081880B20649E05388420FD909E077
:1082E00008000020100001462002014688030020FB
:1082F000EA0500003046FFF7EDFB9E482EE79E4959
:1083000080208855E45B07988442C5D90446C3E7BA
:10831000F8B514460646082802D90020C043F8BD27
:10832000954B96489B1F0927B2045D88FF431018A0
:108330000B0009F089F90805171B1D252E37314060
:1083400021780120B040012902D0002905D032E077
:108350008949891F284348802BE08749891F854325
:108360004D8026E0F540E807C00F19E0844801E0A1
:10837000834820301018FFF753FB8002208018E05C
:1083800020781F2817D8C1067C48C90E001D101878
:108390000DE07A48001F1018FFF742FBC006C00E20
:1083A000207006E021781F2905D8C906C90EFFF7FD
:1083B00039FB0120F8BD3846F8BDF8B51546082848
:1083C00002D90020C043F8BD84046D4B6B4A6B4852
:1083D000803BDC3224380427E618A2182018FF431B
:1083E0000B0009F031F9084F050910421316444FEC
:1083F00062482978E43002E060482978E0302018AB
:10840000FFF710FB31E0288810612EE02888106209
:108410002BE0FFF705FB0007000F01282DD13046A8
:10842000FFF7FEFA002802D00120C043F8BD5348F0
:108430002221143820180546FFF7F4FA4F48001F90
:1084400026180DE03046FFF7EBFA000708D54B4839
:108450000821001D2018FFF7E5FA0C20C043F8BDE5
:108460002846FFF7DDFA0028ECD10120F8BDFFF720
:10847000D7FA0007000F012801D03846F8BD297847
:108480003046BDE70920C043F8BDF8B5144606469E
:10849000082802D90020C043F8BDB5043748374A40
:1084A000374B2438DC32EF182818AA180B0009F0D3
:1084B000CBF80D080D121517305E323E404248527F
:1084C0005E00FFF7ADFA0009000102E02B48E4303E
:1084D00033E020703DE02948E0302EE01069F8E7F5
:1084E0002748D9382818FFF79BFA20702448DA3833
:1084F0002818FFF795FA60702148DB382818FFF735
:108500008FFAA0701E48DC382818FFF789FAE0704F
:108510001FE0106A1CE0FFF783FA0007000F012834
:108520001FD1174880382818FFF77AFA10E07868CA
:108530000EE0786A0CE011480C302818FFF770FA4A
:10854000C7E7FFF76DFA0128F3D00E497000085A0B
:1085500020800120F8BDFFF763FA0007000F012813
:1085600002D00420C043F8BD0348805DB1E701207C
:10857000C043F8BD17FCFFFF0E0000202400014699
:10858000000201468803002070477047704770471B
:108590000078704701707047002070477047FE4AAE
:1085A000002804D0002902D0D16090607047FB48B9
:1085B0009060FB48D0607047F74A002804D000293B
:1085C00002D0516110617047F6481061F648506161
:1085D000704710B5F04A1388DC05FDD5002804D09B
:1085E000002902D0D161906110BDF0489061F0483F
:1085F000D06110BD10B5E84A13889C05FDD5002850
:1086000004D0002902D0D161906110BDE948906189
:10861000E948D06110BD0020C04370470020C0432E
:10862000704710B5E548FFF7FBF90446E348103002
:10863000FFF7F6F90002001980B210BD10B5C1B203
:10864000040A09090901DD48FFF7ECF9DB48214676
:108650001030FFF7E7F910BDD84810B5001FFFF73D
:10866000DFF90446D5480C30FFF7DAF900020019AB
:1086700080B210BD10B5C1B2040AD0480909090181
:10868000001DFFF7CFF9CD4821460C30FFF7CAF99E
:1086900010BDF0B593B0CA48FFF7C2F91190C848B1
:1086A000401EFFF7BDF9C64C1090A41E2046FFF7F0
:1086B000B7F9651E0F902846FFF7B2F90E90A01D7E
:1086C000FFF7AEF90D90601DFFF7AAF90C90BC48BA
:1086D0000830FFF7A5F90B90B948C01DFFF7A0F9C6
:1086E000B74E0A90B61D3046FFF79AF90990E01D83
:1086F000FFF796F90890B01DFFF792F90790701DEB
:10870000FFF78EF90690301DFFF78AF90590F01CEF
:10871000FFF786F90490AA481030FFF781F9A84FB7
:1087200003900F373846FFF77BF90290781EFFF76A
:1087300077F90190F01DFFF773F900908021A148AF
:10874000FFF770F99F48FFF76BF9A01C1199FFF72D
:1087500069F9601C1099FFF765F920460F99FFF73A
:1087600061F928460E99FFF75DF9A01D0D99FFF7F5
:1087700059F9601D0C99FFF755F9B01C0B99FFF7DB
:1087800051F9701C0A99FFF74DF930460999FFF726
:1087900049F9E01D0899FFF745F9B01D0799FFF762
:1087A00041F9701D0699FFF73DF9301D0599FFF756
:1087B00039F9F01C0499FFF735F9781C0399FFF794
:1087C00031F938460299FFF72DF9781E0199FFF724
:1087D00029F9F01D0099FFF725F913B0F0BDF8B5A0
:1087E0000D4606460024FFF754FF002E14D0002249
:1087F000B05C521C001952B244B2082AF8DB102CAB
:1088000017DC714F0024A004315DC019FFF70AF98D
:10881000641C64B2082CF6DB002D19D00021084638
:108820002A5C401C511840B249B20828F8DB1029D4
:1088300002DD0020C043F8BD634E00242036A004B2
:10884000295D8019FFF7EEF8641C64B2082CF6DB92
:108850000020F8BD70B50C460246002108464D1EAA
:10886000130008F0F1FE0906091511181C2E2E2020
:108870002E00FFF70EFF22E0002C02D021462046FA
:108880000831FFF7ACFF70BD2088FFF7F3FE16E05C
:10889000FFF7E2FE05E02088FFF7D0FE0FE0FFF7CC
:1088A000C0FE20800BE03C4882782270C278627063
:1088B0000279A2704279E2708079207161710020A2
:1088C00070BD284670BD10B504463D484130FFF7E5
:1088D000A7F820703A483D300068608010BD10B5A0
:1088E0000446017836484130FFF79CF834496088E7
:1088F0003D31086010BD10B53248FFF791F810BD4A
:1089000070B50446C720044202D00020C04370BDA9
:108910002C4D2846FFF784F8204301462846FFF7F0
:1089200081F8002070BD10B504462548FFF778F89F
:1089300020702348401EFFF773F860702048801EA7
:10894000FFF76EF8A0701E48C01EFFF769F8E070D0
:108950001B48001DFFF764F820711948C01CFFF781
:108960005FF8607116480830FFF75AF8A073144892
:10897000C01DFFF755F8E0731148801DFFF750F850
:1089800020740F48401DFFF74BF860740C480C3002
:10899000FFF746F8A07219E020000020898500004A
:1089A0008B8500008D8500008F850000918500007B
:1089B00095850000998500009D85000004210046F2
:1089C0000360004600230046000201465F480B306A
:1089D000FFF726F8E0725D480A30FFF721F82073B0
:1089E0005A480930FFF71CF8607358481030FFF7F9
:1089F00017F8A07155480F30FFF712F8E07153488F
:108A00000E30FFF70DF8207250480D30FFF708F8D0
:108A100060724F480178A1744178E17481782175C2
:108A2000C07860754A48401E0078A07510BD10B52A
:108A3000044601784548FEF7F5FF44486178401E3A
:108A4000FEF7F0FF4148A178801EFEF7EBFF3F489C
:108A5000E178C01EFEF7E6FF3C482179001DFEF7D5
:108A6000E1FF3A486179C01CFEF7DCFF3748A17B83
:108A70000830FEF7D7FF3548E17BC01DFEF7D2FF77
:108A80003248217C801DFEF7CDFF3048617C401DBF
:108A9000FEF7C8FF2D48A17A0C30FEF7C3FF2B4824
:108AA000E17A0B30FEF7BEFF2848217B0A30FEF743
:108AB000B9FF2648617B0930FEF7B4FF2348A1794E
:108AC0001030FEF7AFFF2148E1790F30FEF7AAFF23
:108AD0001E48217A0E30FEF7A5FF1C48617A0D3042
:108AE000FEF7A0FF1A48A17C0170E17C4170217D56
:108AF0008170617DC1701649A07D491E087010BD4E
:108B000010B50C46030008F09FFD0604080C101475
:108B1000181D0846FFF78BFF12E00846FFF703FF1A
:108B20000EE00878FFF7ECFE10BDFFF7E4FE2070C2
:108B300006E00846FFF7D3FE02E00846FFF7C3FE53
:108B4000002010BD0020C04310BD0000036000469F
:108B5000190000207D220021D200504300E0491C72
:108B60008842FCD8704770B504460120C0032061DC
:108B7000451029462046FEF72EFD0120FFF7EAFFAB
:108B800029462046FEF735FD0120FFF7E3FF70BDC3
:108B9000F1B500200126B6030446770045003146B2
:108BA0000098FEF718FD0120FFF7D4FF314600982A
:108BB000FEF71FFD0120FFF7CDFF39460098FEF7B5
:108BC000F6FC2843641C102CE8D3F8BD70B50446AD
:108BD0000120C00360610120FFF7BCFF0125AD0348
:108BE00029462046FEF7F7FC0120FFF7B3FF294690
:108BF0002046FEF7FEFC0120FFF7ACFF70BDF7B585
:108C000014462020001B81400127FF030D467E10E3
:108C100018E00098002D394602DAFEF7DCFC01E08E
:108C2000FEF7E7FC0120FFF795FF31460098FEF7BD
:108C3000D2FC0120FFF78EFF31460098FEF7D9FCE9
:108C40006D00641E002CE4D1FEBD70B50C46002101
:108C500005462022C943FFF7D2FF042206212846F9
:108C6000FFF7CDFF5048052201682846FFF7C7FFF0
:108C7000052221462846FFF7C2FF2846FFF7A6FF38
:108C80002846FFF785FF04462846FFF76CFF20467D
:108C900070BD10B5432001210006FFF7D6FF400745
:108CA000C00F10BD70B50C461646002105462022A7
:108CB000C943FFF7A4FF042205212846FFF79FFFC1
:108CC0003948052201682846FFF799FF0522214609
:108CD0002846FFF794FF022211462846FFF78FFF30
:108CE000102231462846FFF78AFF2846FFF73BFF50
:108CF00070BD01221203904203D0212109020840D5
:108D00000246002143200006CCE7F8B54326274F52
:108D10003606002400212022C9433046FFF76FFFAA
:108D2000042206213046FFF76AFF0522214630461D
:108D3000FFF765FF052201213046FFF760FF30464F
:108D4000FFF744FF3046FFF723FF05463046FFF7A5
:108D50000AFF002D03D0BD4201D02046F8BD641C9F
:108D6000082CD7DD12A006F0BFFFD2E77CB506467F
:108D700014460D466846FEF713FC2543012069465C
:108D8000009508713046FEF7AAFB0122D103104678
:108D9000FEF780FC012291031046FEF77BFCFFF7F3
:108DA000B4FF014908607CBD40000020FFFF0000C7
:108DB0000D0A7068792069642064657465637420A5
:108DC0006572726F7221210D0A00000010B5FE4C11
:108DD000FE482178FEF726FEFC486178401EFEF72B
:108DE00021FEFA48A178801EFEF71CFEF748E178C4
:108DF000C01EFEF717FEF54808342178001FFEF765
:108E000011FEF2486178401FFEF70CFEEF48A17892
:108E1000801FFEF707FEED48E178C01FFEF702FE57
:108E2000EA48241F21780838FEF7FCFDE7486178FE
:108E30000938FEF7F7FDE548A1780A38FEF7F2FD9C
:108E4000E248E1780B38FEF7EDFD10BD10B5E04CBF
:108E500080212046FEF7E6FD2046FEF7E1FDFFF704
:108E6000B5FFD94CD948353421781038FEF7DAFDF2
:108E7000D64861781138FEF7D5FDD448A17812386C
:108E8000FEF7D0FDD148E1781338FEF7CBFDCF488F
:108E900021790C38FEF7C6FDCC4861790D38FEF714
:108EA000C1FD10BD10B5CA4C80212046FEF7BAFDA9
:108EB0002046FEF7B5FDC44CC4483534217810383F
:108EC000FEF7B0FDC14861781138FEF7ABFDBF4831
:108ED000A1781238FEF7A6FDBC48E1781338FEF7FA
:108EE000A1FDBA4821790C38FEF79CFDB74861799D
:108EF0000D38FEF797FD10BDB34B10B5DB1FB54C19
:108F00005C62B54C9C62B54CDC62002800D05862B3
:108F1000002900D09962002A00D0DA6210BD30B575
:108F2000A94B0120DB1F996B0870487006208870E0
:108F30000020C8705A6B120E0A715A6B120C4A71DB
:108F40009A8E120A8A719A8ECA71996B8022088150
:108F50008A72C872996B1A46087348738873C8730B
:108F6000087448748874C874087548758875C8751D
:108F7000087648768876C8763C3214780C77547830
:108F80004C7794788C77D478CC770C46157920344C
:108F900025705279627006228C18521CD2B220774A
:108FA000102AF9D39A6B002154182034491CC9B2F5
:108FB00020734029F8D39A6B002154186034491C5F
:108FC000C9B220738029F8D3986B6321E030017314
:108FD0008222427353228273C17330BD0007000F97
:108FE000092801D83030704737307047FEB5FFF799
:108FF00096FF754C3522E41FA06BF0210A54012224
:10900000F1210A54F2210A543D22F3210A54072285
:10901000F4210A540122F5210A5421463C310A78F0
:10902000F6210A5421463C314A78F7210A54224657
:109030003C329378F822135422463C32D378F922FA
:10904000135422463C321379FA22135422463C32FE
:109050005379FB2213540C21FC2211540023FD21CF
:109060000B54122225461946423506E08718E03790
:10907000521C491C3E7392B289B26E5C002EF5D12F
:10908000514D3535E8780009FFF7A8FFA66BB618F3
:10909000E0363073521C92B2E878FFF79FFFA66B60
:1090A000B618E03630732879521C92B20009FFF7E7
:1090B00095FFA66BB618E0363073521C92B2287931
:1090C000FFF78CFFA66BB618E03630736879521C38
:1090D00092B20009FFF782FFA66BB618E036307334
:1090E000521C92B26879FFF779FFA56BAE18E03693
:1090F0003073521C92B2881D511A4919E0314871DF
:10910000A06B37218518E0352973521C91B24518A0
:10911000491C89B246180622E0352A730125E0363B
:109120003573491C89B246180325E036491C35734E
:1091300089B24518E0352A73491C89B245180F22B7
:10914000E0352A73491C89B242183A25E03215737A
:10915000491C89B242183B25E0321573491C89B27B
:109160004518FF22E0352A73491CFF2589B239359D
:1091700004E04618E036491C337389B2A942F8D39B
:109180006846027142718271C27143200090892247
:1091900001AB9200A078A16BFEF72BFFFEBDFEB5E0
:1091A000FFF7BDFE084B0020DB1FDA1D18561446E2
:1091B0002934FF27032844D0042842D06846077189
:1091C00047718771C7710BE04B00002013600046A8
:1091D00000230046CD8D00004D8E0000A58E0000BE
:1091E000986B3521F02529540121F12529540321BB
:1091F000F22529543D21F32529540721F42529542A
:109200000121F5252954F849F62509782954F6490C
:10921000F72549782954F449F82589782954F249E1
:10922000F925C9782954F049FA2509792954EE49D4
:10923000FB25497929546D46ED791021FF2D16D073
:1092400039E0986B00218172C172117801735178F5
:10925000417391788173D178C17321786846017127
:1092600061784171A1788171E178C171ABE73225F4
:10927000FC210D540425FD210D541678FE210E54B9
:109280005678FF210E549678491C0E54D278491C0A
:109290000A543622491C0A54491C0D542278491C90
:1092A0000A546278491C0A54A278491C0A54E2788C
:1092B000491C0A541C2143180C22E0331A73491C20
:1092C00042180025E032C84B15739B1D2A46491CE5
:1092D00005E04618E036491C347389B2521C9C5C88
:1092E000002CF6D1C04BD8780009FFF777FEBE4CB2
:1092F0003C3CA66B7618E0363073491C89B2D878AE
:10930000FFF76CFEA66B7618E03630731879491CAF
:1093100089B20009FFF762FEA66B7618E03630735B
:10932000491C89B21879FFF759FEA66B7618E0360A
:1093300030735879491C89B20009FFF74FFEA66BBC
:109340007618E0363073491C89B25879FFF746FE2B
:10935000A36B5E18E0363073491C88B2911D821AE7
:10936000D218E0325171A16B37220B18E0331A7317
:10937000401C80B20B180822E0331A73401C80B2E4
:109380000B180122E0331A73401C80B20B18032221
:10939000E0331A73401C80B20B180622E0331A73B4
:1093A000401C80B20B180F22E0331A73401C80B2AD
:1093B0000B183A22E0331A73401C80B20B183B2280
:1093C000E0331A73401C80B20B181F22E0331A736B
:1093D000401C80B20B182122E033401C1A7380B26B
:1093E0000A18E0321773401CFF2280B2393203E0C2
:1093F0000B18E0331D73401C9042F9DB43200090B2
:10940000892201AB9200A078A16BFEF7F2FDFEBDB0
:109410001CB5FFF784FD744800213C38806B352271
:109420008172C172F0210A540122F1210A540422EE
:10943000F2210A543D23F3210B540722F4210A544C
:109440000122F5210A546849F6220B7813544B780F
:10945000F72213548B78F8221354CB78F922135443
:109460000B79FA2213544A79FB210A543222FC2147
:109470000A540422FD210A545B4935390A78FE2139
:109480000A54594935394A78FF210A545649353921
:109490008A78FF2101310A5453493539CA78FF21AE
:1094A00002310A543622491C0A540422491C0A5427
:1094B0004D49FF220C390B78053213544B78521C5E
:1094C00013548B78521C1354CA78FF2108310A5464
:1094D000FF22491C0A541D210023FF22393244185F
:1094E000E034491C23739142F9DBFF20694608717F
:1094F00048718871C871432000903B4889223C38EC
:10950000816B01AB92008078FEF773FD1CBD7FB5C7
:10951000354C364A3C3CA07881048918496A0A04D3
:10952000120C26D001A9009102ABA16BFEF70FFE31
:1095300082B26846808843283BD1A06B2A49037FCA
:109540000D78AB4215D1457F4B789D4211D1837F79
:109550008D78AB420DD1C37FCD78AB4209D10346A4
:1095600020331D780E79B54203D15B7849798B425F
:1095700002D0002004B070BDF03000258118F03911
:1095800015E00278332A41D008DC002A15D0012AE0
:1095900018D0032A1AD0062A06D129E0352A0ED07F
:1095A000362A42D0FF2A06D04278801C8018884292
:1095B000E7D368B2DEE70846F9E7401CF7E78578AD
:1095C000C01CF4E7084A83782D3A31E0064A437814
:1095D0008678313A1670C678567006799670467954
:1095E000801DD670C0180FE08000002000020146E8
:1095F000F84B427886781E70C6785E7006799E7049
:109600004679801DDE708018001FD0E78278A26145
:10961000C37812029A18A261037912029A18A26101
:10962000437912029A18A26109E0EA4A83781D324E
:109630001370C3785370037993704379D370801D8E
:10964000B5E7E44800211338C16105220262417088
:10965000704770B5DF4C0125133C61570026224648
:109660009057022917DAE269216A914223D2012830
:1096700004D0022805D0042805D102E0FFF7B6FC8B
:1096800001E0FFF78CFDE661E069401D2062607833
:10969000401C60700FE0012804D0022805D0042887
:1096A00007D102E02670002503E0FFF79FFC0120B0
:1096B0002070FFF7C6FF284670BDF8B5C64E30468D
:1096C000FEF7AEF9054603213046FEF7ABF9C14B74
:1096D000C2480C3BDC1F00901122C1A1A078FEF70C
:1096E00088FC074629463046FEF79CF90D3708D01E
:1096F000FFF78EFEE069E169091A0229FBD3002019
:10970000F8BD0120F8BDF8B5B24C133C207806280E
:109710001ED0A078B74980044018FEF781F92228AE
:1097200005D0002344220221A078FEF703FA012588
:10973000FFF7EDFEC1B20022A256A648002601277F
:109740000C38130007F080FF05060D1C314C2F006C
:109750000520F8BD067046708670C670FFF746FC9F
:109760005EE002291CD1A16B0A7C02704A7C427027
:109770008A7C8270C97CC170FFF711FD02204BE02A
:1097800005290BD1FFF799FF002801D0606A3FE05F
:10979000FFF757FFE06A8047267004E006293DD0B6
:1097A000FFF757FF05462846F8BDA16904254A1C66
:1097B000F9D0E26949089142F5D286490278103918
:1097C0000A7042784A7082788A70C078C870606B7C
:1097D000401C6063FFF7E3FCFFF733FF04201BE04E
:1097E00004250529DAD17B49667010390A78037897
:1097F0009A420BD14A7843789A4207D18A78837883
:109800009A4203D1C978C078814202D0A06A032568
:109810008047FFF716FF03202070C4E7FFF711FF12
:109820002770C0E710B56B4C133CA078FEF752F9D7
:109830000620207010BDF3B5674F83B006460025A3
:10984000413F38460095FEF7EBF8624C2934207012
:10985000781EFEF7E5F86070B81EFEF7E1F8A0701C
:10986000F81EFEF7DDF8E070381DFEF7D9F820711C
:10987000F81CFEF7D5F86071014620786278E3782D
:109880001043A2781A4310432279104308431FD192
:10989000257008206070DC20A070E57025712946D5
:1098A00065713846FEF7BEF86178781EFEF7BAF8A3
:1098B000A178B81EFEF7B6F8E178F81EFEF7B2F808
:1098C0002179381DFEF7AEF86179F81CFEF7AAF889
:1098D000404F4949133FBE700498B863E0786379FC
:1098E000421821798A1848409A185840801878639D
:1098F0006846017838480C463138FEF793F86846D8
:1099000040780290014634483238FEF78BF86846BA
:1099100080780190014630483338FEF783F8684676
:10992000C6782D4831463438FEF77CF82A4821465F
:109930003138FEF777F8284802993238FEF772F886
:10994000254801993338FEF76DF8234831463438FD
:10995000FEF768F8204821463938FEF763F81E48BC
:1099600002993A38FEF75EF81B4801993B38FEF73A
:1099700059F8194831463C38FEF754F8FFF761FEB4
:109980003D7005B0F0BD13481338C169491CC16171
:10999000704710490C390A7802704A7842708A7808
:1099A0008270C978C17070470A4908390A78027014
:1099B0004A7842708A788270C978C17070470549C8
:1099C000091F0A7802704A7842708A788270C978D2
:1099D000C1707047570000204460004688130000A3
:1099E000434845434B5F49505F434F4E464C4943C4
:1099F00054000000300001467856341206490A78B7
:109A000002704A7842708A788270C978C170E0E743
:109A1000014813388069DCE757000020017840785E
:109A20000902401880B270470A0A02704170801C17
:109A30007047F0B584460020054606460C78491C60
:109A4000002D00D1401C2706BF0F032F0AD1002D87
:109A500000D1401CA4060978A40C6444091901250E
:109A60000C78491C002C19D01B1B5B1E1BB2002B51
:109A700002DA0020C043F0BD002D05D1001903E03B
:109A80000F781770491C521C2746641EA4B2002F81
:109A9000F6D12E241470521C761CCFE7002E02D172
:109AA0002E211170521C00211170F0BD10B593B021
:109AB0000C464B236A46FFF7BCFF411C03D020181D
:109AC000001D13B010BD0020FBE770B593B0154624
:109AD0000C4606464B236A46FFF7ABFF411C46D0B7
:109AE00024182046FFF79AFF0A34030007F0ACFD64
:109AF000103C09133C3C13291313133C3C13183C32
:109B00001F3C2078287060786870A078A870E07892
:109B1000E870241D28E04B236A460BE0241823E05C
:109B20002078641C20180178401C44181CE04B234A
:109B30006A46A41C21463046FFF77BFF411C16D025
:109B4000ECE74B236A4621463046FFF772FF411C83
:109B50000DD024184B236A4621463046FFF769FF93
:109B6000411C04D024181434204613B070BD0020CA
:109B7000FBE7F7B50D460446122106F014FD284612
:109B8000FFF74CFF2080A81CFFF748FF02040121CB
:109B9000002A00DAA1704204120FE270420500D5DB
:109BA0002171820500D56171C20500D5A17102063F
:109BB00000D5E1710007000F2072281DFFF72EFF6E
:109BC0006081A81DFFF72AFFA08128460830FFF713
:109BD00025FFE08128460A30FFF720FF29460C3197
:109BE00000262082771E06E02846FFF75FFF01006F
:109BF00014D0761CB6B26089B042F5D8002607E0D2
:109C00002846029AFFF761FF010007D0761CB6B222
:109C1000A089B042F4D80020E18903E03846FEBDB7
:109C2000401C80B28142FBD80020218A01E0401C08
:109C300080B28142FBD8207A002801D00020FEBDEE
:109C40000120FEBDFFB55E4A0D46518895B0034622
:109C5000491C89B217985180FFF7E6FED902FF31FF
:109C6000013189B2FFF7E0FE0121FFF7DDFE00219F
:109C7000FFF7DAFE0021FFF7D7FE0021FFF7D4FE41
:109C800004462946684606F08DFB6E46304606F0CF
:109C9000AFFB80B213902E21304606F037FB070051
:109CA00002D0B81B85B200E0139D2570641C002D06
:109CB00012D02A463146204606F07AFC6419002F5D
:109CC00007D013987619401B401E80B2761C139063
:109CD000E1E700202070641C01212046FFF7A4FE6C
:109CE0000121FFF7A1FE179919B0401A00B2F0BD8B
:109CF0003348816803290BD300228260017802294E
:109D000002D30270501E7047491C0170002070473A
:109D1000012070472A4A50702A485160508070478D
:109D2000F7B5274C0D46002388B01A46022160780B
:109D3000FDF700FFFF260136334629460020626802
:109D4000FFF780FF3525009582B2089B6078616837
:109D5000FEF74FF91C4F60788004C019406A050473
:109D60002D0C16D0B54200D9354607A8009006AB99
:109D70002A4660786168FEF7EAF90A9A01A86168E4
:109D8000FFF7F7FE05466078FDF7A4FE28460BB006
:109D9000F0BDFFF7ADFF002801DA0020F7E700284B
:109DA000D9D1352000902A46089B60786168FEF77B
:109DB00020F9D0E702488168491C816070470000A3
:109DC000900000202211000000020146F0B587B08B
:109DD00002F092FB04466D46A81DFFF7DAFD03A8CA
:109DE00002300690FFF7E0FD02A802300746FFF7B9
:109DF000E6FD04A802300646FFF700FE21460622D3
:109E00002931684602F0B8FC20460422A91D2F30F3
:109E100002F0B6FC204604223330069902F0B0FC72
:109E2000204604223946373002F0AAFC204604229C
:109E30003146513002F0A4FC4034E07B002801D0D0
:109E4000022000E00120694688750020FEF758FED8
:109E500007B0F0BD7047000070477047704770470B
:109E600010B500F05FFC10BD7047704710B50021C1
:109E7000104804F075FC10BD10B501210E4804F027
:109E80006FFC10BD70477047704770477047704750
:109E90007047704710B504F0C0FB10BD70477047A5
:109EA00070477047704770477047704770477047FA
:109EB0007047704700C0004000D0004010B5C0B2ED
:109EC000FDF788FD10BD10B5FDF796FDFDF782FD8D
:109ED00010BD0020C043704710B5C0B2FDF77AFD39
:109EE00010BDFEE7F0B595B002F006FB044638223F
:109EF0008B4902A8FDF760F9A11D8AA005F0F4FEC8
:109F00008EA005F0F1FE4F20005D01280CD091A13C
:109F100092A005F0E9FE9AA005F0E6FEE07F002899
:109F200004D022461F3202E09BA1F1E79FA2002845
:109F300001D0A0A100E0A1A1A3A005F0D5FEA649F3
:109F4000A6A005F0D1FEA449ACA0491C05F0CCFEAA
:109F5000B2A178A005F0C8FE00260A2070430519BA
:109F60003B20405D8100BA4842583146B9A005F017
:109F7000BBFEBFA005F0B8FE28464130417800780E
:109F800009020143BFA005F0AFFE3146C4A005F0B1
:109F9000ABFE142070430719384680300190007CD6
:109FA000012813D085A1CBA2D2A005F09DFE314699
:109FB000D3A005F099FEDEA005F096FE6137787F0C
:109FC0003A7F0102114303D0DFA003E079A1EAE761
:109FD0007AA158A005F088FEDFA005F085FE019863
:109FE000417900790902014301D0E1A001E073A1A8
:109FF00050A005F079FE3146E1A005F075FE33462C
:10A00000E8A2E8A1E9A005F06FFEF0000719A0376B
:10A01000387B8100EC484158ECA005F065FE787B68
:10A02000810002A84158EFA005F05EFEB97BF04820
:10A03000415CF0A005F058FEF87B8100EE484158E5
:10A04000EEA005F051FE397CED48415CEDA005F035
:10A050004BFE387B002814D0EC480168ECA005F0DA
:10A0600043FE3146EFA005F03FFEFAA005F03CFEAE
:10A070002846A030417F007F0902014306D0BCA0E2
:10A0800006E0787C8100E1484158E7E74BA129A030
:10A0900005F02AFEF2A005F027FE2846A230417FF7
:10A0A000007F0902014301D0F0A001E043A121A0FB
:10A0B00005F01AFEF1A005F017FEC0352879012839
:10A0C0002BD03EA11BA005F00FFE54A119A005F056
:10A0D0000BFE761CF6B2022E00D23EE70223B1A29E
:10A0E000B0A1E9A005F000FEEEA3F0A2F1A1F5A059
:10A0F00005F0FAFD49A10FA005F0F6FDF6A005F068
:10A10000F3FDA034E079012808D02CA1FCA005F0D3
:10A11000EBFDA37A627A217AF6E1FFE101E2000029
:10A1200010180100202D20446576696365206E615A
:10A130006D653A2025730D0A00000000202D204E89
:10A140006574776F726B2073657474696E67733AA8
:10A15000200D0A005374617469630000092D204FBB
:10A16000627461696E696E6720495020736574740A
:10A17000696E67733A205B25735D0D0A000000006D
:10A18000202D2053656172636820494420636F6409
:10A19000653A200D0A0000004175746F6D617469A5
:10A1A00063202D2044484350000000004E6F6E6530
:10A1B00000000000456E61626C6564004469736173
:10A1C000626C656400000000092D2025733A205B55
:10A1D00025735D0D0A00000051C30000202D20549E
:10A1E00043502F5544502073657474696E67207016
:10A1F0006F72743A205B25645D0D0A00202D2046A5
:10A2000069726D7761726520757064617465207024
:10A210006F72743A205B25645D0D0A003D3D3D3D43
:10A220003D3D3D3D3D3D3D3D3D3D3D3D3D3D3D3D5E
:10A230003D3D3D3D3D3D3D3D3D3D3D3D3D3D3D3D4E
:10A240003D3D3D3D3D3D3D3D3D3D3D3D3D3D0000B8
:10A2500030010020202D205B25645D204368616E65
:10A260006E656C206D6F64653A2025730D0A0000E1
:10A27000092D205443502F55445020706F72747331
:10A280000D0A0000092020202B2053324520646154
:10A29000746120706F72743A205B25645D0D0A0052
:10A2A000202D205B25645D204368616E6E656C2007
:10A2B00045746865726E657420636F6E6E65637455
:10A2C000696F6E2070617373776F72643A200D0A44
:10A2D0000000000028544350207365727665722098
:10A2E0002F206D69786564206D6F6465206F6E6CDA
:10A2F00079290000092D2025732025730D0A0000FF
:10A30000202D205B25645D204368616E6E656C20A6
:10A31000436F6E6E656374696F6E2074696D6572EC
:10A320002073657474696E67733A200D0A0000002B
:10A33000092D20496E6163746976697479207469A6
:10A340006D65723A200000005B25645D202873650E
:10A3500063290D0A00000000092D205265636F6E0D
:10A360006E65637420696E74657276616C3A200064
:10A370005B25645D20286D736563290D0A0000006C
:10A38000202D205B25645D204368616E6E656C2026
:10A3900053657269616C2073657474696E67733A92
:10A3A000200D0A005541525400000000092D2044A0
:10A3B00061746120257320706F72743A20205B25D0
:10A3C0007325645D0D0A0000480300200920202049
:10A3D0002B20554152542049463A205B25735D0D90
:10A3E0000A000000092020202B2025642D000000F9
:10A3F0002503002025642D002803002025732D004F
:10A40000340300202564202F2000000038030020A2
:10A41000466C6F7720636F6E74726F6C3A20257391
:10A420000D0A0000202D205B25645D204368616ECD
:10A430006E656C2053657269616C20646174612083
:10A440007061636B696E67206F7074696F6E733AC9
:10A450000D0A0000092D2054696D653A20000000A6
:10A46000092D2053697A653A200000005B25645D60
:10A4700020286279746573290D0A0000092D204394
:10A480006861723A20000000202D204465627567E3
:10A4900020257320706F72743A205B257325645DEC
:10A4A0000D0A000028666978656429004E4F4E4504
:10A4B000000000003131353230302D382D4E2D3135
:10A4C000000000002020202B202573202F20257342
:10A4D0002025730D0A000000202D2053657269614C
:10A4E0006C20636F6D6D616E64206D6F64652073A9
:10A4F000777469636820636F64653A0D0A00000031
:10A50000092D2025730D0A00D6A005F0EDFBDE49CC
:10A510000846E83805F0E8FB15B0F0BD2978DBA067
:10A52000D1E5D9496839F1E538B501F0E5FF0446D0
:10A53000D4A005F0D9FBD4490846E83805F0D4FB8F
:10A540000222D7A1DAA005F0CFFBDEA005F0CCFBFC
:10A55000E6A0009063792279E178E6A005F0C4FBDB
:10A56000C9490846E83805F0BFFB38BD01B5EA48DF
:10A570000099416041680029FCD108BD1FB501F078
:10A58000BBFF074600F046F9E4A103C90191009022
:10A59000E2A103C903910290FCF746FEE14906F0EF
:10A5A0009AF8E149086008202070E0486080204661
:10A5B000FEF795F902A96846FEF711F900F045FA91
:10A5C00002F04EFA05F0BAF802F085F800240126F0
:10A5D0000A206043C01920300677204604F062FA52
:10A5E000641CE4B2022CF3D33C46A034A0790128C9
:10A5F00003D1FFF799FFFFF775FC05F03BFA002840
:10A60000FBD13D464035E87B012803D100F0D3F86B
:10A61000042805D002F044FAA079012803D011E003
:10A62000C3480670F8E702F008F901F065FF403012
:10A63000C07B012806D1BE48007801280AD0BDA001
:10A6400005F052FB2037F87E012820D0287C012815
:10A6500007D01CE0FFF7DCF90146BBA005F044FB86
:10A66000F0E700F067F8C24F012800D13E70A079F2
:10A6700001280CD101F040FF014640310A7C012A3B
:10A6800005D13A78012A0AD0BAA005F02DFBBD48C1
:10A69000BD4F067038780026012814D017E0024616
:10A6A0004332537817781A020B7801463A43203127
:10A6B000CF7F0097019302928B7F4A7F3531B3A001
:10A6C00005F012FBE3E7002001F080FC3E706E49CC
:10A6D0000846E83805F008FB8F48B54F067003F0D0
:10A6E0002AFC01F0E6FCE87B012801D1FFF70BF81A
:10A6F000894E3078002803D005F0BCF90020307076
:10A700000026B85D012808D1A079012803D131467F
:10A71000A8A005F0E9FA0020B855761CF6B2022E82
:10A72000EFD3DCE77C484168002902D04168491E2C
:10A7300041607047FEB501F0DFFE04460026A649E1
:10A740000520FFF7E7FA20464030427C69460A7050
:10A75000827C4A70C27C07468A70007DC8700025E2
:10A760000321284600F0F6F96D1CEDB2022DF7D357
:10A7700020463D305534019021466846019AFFF746
:10A78000CFFA054601280BD0761CF6B2022E07D868
:10A7900003F0D1FBF87B0128EED1FEF7B4FFEBE725
:10A7A00000240121204600F0D5F9641CE4B2022CFB
:10A7B000F7D32846FEBD70B5002587490420FFF772
:10A7C0003AF88749854A0846FEF796FB002403219C
:10A7D000204600F0BFF9641CE4B2022CF7D3FEF768
:10A7E00092FF0646042807D0002E01D16D1CEDB261
:10A7F000032D0CD9FFF716F800240121204600F0A4
:10A80000A9F9641CE4B2022CF7D370B270BD03F056
:10A8100092FBE4E710B500F04EF9724A724901204C
:10A82000FCF766FD03F0D6FE04F090F9FCF7FCFCA3
:10A830007D21C90005F04FFF6C49401E88420CD8AD
:10A840006B4948616B480722C3691B021B0A4C0411
:10A850002343C361002088610A610A20FFF786FE56
:10A8600010BD0000092D205B252E32585D5B252E82
:10A8700032585D5B252E32585D2028486578206F60
:10A880006E6C79290D0A00001CA200005B252E3297
:10A89000585D2028686578206F6E6C79290D0A0054
:10A8A00057495A37353253522D3132780000000063
:10A8B0002025735B25645D4368616E6E656C200DB9
:10A8C0000A000000203E3E2057495A6E657420530E
:10A8D000657269616C20746F2045746865726E657D
:10A8E00074204465766963650D0A00004E75766FC5
:10A8F0004F6E6500203E3E204669726D776172653D
:10A900002076657273696F6E3A2025642E25642E59
:10A9100025642025730D0A00A00000200202020217
:10A92000020200001027000000200046C4090000B9
:10A930004001002020232044484350204661696C98
:10A9400065640D0A00000000202320444843502085
:10A950004950204C65617365642074696D65203AC7
:10A96000202575207365636F6E64730D0A00000007
:10A97000BF000020202320444E53204661696C65AF
:10A98000640D0A00B8000020A80000202023204405
:10A990004E533A202573203D3E2025642E25642EFB
:10A9A00025642E2564203A2025640D0A000000004D
:10A9B0001D030020203E204348414E4E454C5B2560
:10A9C000645D52782052696E6720627566666572B2
:10A9D0002046756C6C0D0A0098030020559E0000FF
:10A9E000CD9D0000006CDC0200127A00FFFFFF002A
:10A9F00000E000E004ED00E0704710B501232120E5
:10AA0000002219464006FCF76DFE10BD7047FEB5EA
:10AA10000446022818D24A4E6500705B009001205F
:10AA2000694608714748A700C059FCF758FD4548DA
:10AA3000715B401F025D801E005DFCF72BFE4148EC
:10AA4000715BC059FCF7C7FDFEBD70B50020FFF774
:10AA5000DEFF0120FFF7DBFF012003F042FE3A4951
:10AA600061200863394B01225A6148619A6188610B
:10AA7000364880308261344902208031886140202C
:10AA800045210906486008614402432501022D065C
:10AA900022462846FEF76AF9224600212846FEF79C
:10AAA00001F9002003F01DFE264900200839087036
:10AAB000FFF7A3FF70BD26490220086323494039F0
:10AAC0008860704710B5FEF7E4F8002801D0002038
:10AAD00010BD012010BD0120704770470020704755
:10AAE0000120704710B5022807D2154A4100515A7B
:10AAF000144A80001058FCF77CFD10BD10B50228E8
:10AB000007D20F4A4100515A0E4A80001058FCF7F4
:10AB100062FD10BD022808D20A49820089584A689D
:10AB2000074B4000185A42404A60704710B5044A2B
:10AB30004100515A034A80001058FCF742FD10BDF5
:10AB400048180100B0000020403000414020004182
:10AB50004011004170B50D46044601F0CDFC214680
:10AB60000A2251433B302B0006F06EFD061204060C
:10AB70000A0E1012012204E002220818427011E0AD
:10AB800003220818427007E00422FAE70522F8E7DA
:10AB900008184078022805D000222146012004F040
:10ABA0000FFF70BD0122F8E7F0B58BB00746002417
:10ABB00001F0A2FCAC30059001F09EFCA53009909C
:10ABC00001F09AFC3B30089001F096FC6846047452
:10ABD000002F0AD0F9480390F80005990690401814
:10ABE00007904079022802D006E0F548F3E738469E
:10ABF00004F076F800287DD1B804F2490A90401894
:10AC0000406A81B2012080020191814200D9019005
:10AC1000142039464143EC480E18F0683169BC00F5
:10AC2000401AB188081A80B2009000282BD0E7495A
:10AC30000A460851083A13590831834220D108596D
:10AC4000401C08510A281ED3002220210398FCF73B
:10AC50003BFE304604A904F0C4FF00280AD020219E
:10AC60000398FCF72AFE0128F9D06846017C039876
:10AC7000FCF710FE012220210398FCF725FE02E0DC
:10AC800000230B511051790279184900D04A0198DC
:10AC90008D18029100285DD0009988425AD8CD497C
:10ACA0000A984018FCF7BCFE172840D01C283ED05C
:10ACB000222845D1C548A91C4638034600902433B4
:10ACC0003846019AFDF743FA0146C0481038015151
:10ACD0000159BF4A09040B0E029953540159697076
:10ACE0000159891C01510146042212390E3805F020
:10ACF0002BFB00E05DE0002822D0B4482238018818
:10AD000081804188C18009984078012818D1AF48D6
:10AD10006438C38B4230C2788178009102930192EB
:10AD2000437802783946ACA004F0DEFF08E02946FB
:10AD3000B44A3846FDF7F6F80146A44810380151E8
:10AD4000A24A00207900363A5052121D5052114644
:10AD50001639C8559D4810380059002829D0079841
:10AD6000C079012803D104F083FE002821D0059981
:10AD70000698085C012804D00798407901281AD069
:10AD80001EE0384603F06AFF9048103803592A46FF
:10AD90003146039803F04FFD9B490020401C80B2D0
:10ADA0008842FBD3384603F082FF884900201039DF
:10ADB00008510BB0F0BD85484438C05D0128F8D17A
:10ADC000824F103F3B592A463146039803F033FD2A
:10ADD00000203851EDE7F0B587B0054601F08CFB57
:10ADE000BC3003901420894968434018019001F059
:10ADF00079FB86B27548AC0018380059A902844A1C
:10AE000005918918009183190A2101206943800264
:10AE10000291834226D308460399471838790028BF
:10AE200019D0012E17D1012204A9019803F02AFD9F
:10AE3000002806D06846017C6448183802590098FA
:10AE400011546248183802590099515C3A7991427C
:10AE500001D100596DE05D48183801590120800288
:10AE6000401A86B203990298471878783978000218
:10AE7000084307D1F878B9780002084302D138793D
:10AE8000002801D0002038E032460099019803F0F4
:10AE9000F9FC4E481838015989190151D9E70122A6
:10AEA00004A9019803F0EEFC002809D04749684640
:10AEB000027C18390859009B1B18401C08511A7055
:10AEC0003879002809D0414918390A59504952188F
:10AED0000599491E515C814209D0F878B978000281
:10AEE000084307D0394918390959884202D13748EF
:10AEF0001838AEE70298401C80B20290B042CED320
:10AF0000787839780002084309D0304E183E30591D
:10AF1000002804D03746383F785D012802D0002051
:10AF200007B0F0BD019801F0DDFA002800D1785596
:10AF3000305980B2F4E7F0B585B0044601F0DCFA90
:10AF40003B30039001F0D8FAA530029001F0D4FA1A
:10AF50007D3000902046FFF73EFF002667000190FD
:10AF600000286FD01B49A0044018FCF759FDA5002C
:10AF70000246142867D02649A0024118172A73D028
:10AF80001C2A71D0222A5DD120460A225043039AFE
:10AF900083189878002808D1D878002805D1187926
:10AFA000002802D15879002834D0587A1A7A000241
:10AFB0001043009020469B1C019A3FE000D00040C7
:10AFC00000C0004000020146C818002020010020F7
:10AFD000980B002030000146203E205B25645D5523
:10AFE000445020506565722049502F506F72743A5A
:10AFF0002025642E25642E25642E2564203A2025E4
:10B00000640D0A0002040000FFFF0000F018002099
:10B0100098030020FE480278002A08D14278002ACE
:10B0200005D18278002A02D1C07800280CD0F848D7
:10B03000F74B4238C08B00902046019AFCF7D9FFAD
:10B0400004B208E00EE03AE002984078012802D10C
:10B05000F04804F049FE002C27DDED480A30415944
:10B06000091B415121E0FFE7E9482A38005D01282A
:10B070001BD12046019AFCF7C5FE01B2002904DD70
:10B08000E3480A304259511A415114200099604353
:10B0900040188078012808D1DD482638015D002954
:10B0A00008D00655DA481038C653D9481438C65364
:10B0B00005B0F0BDD649012038390855F2E7D4482B
:10B0C0000A304651F4E7FEB5044601F015FA3B306C
:10B0D000029001F011FAA530019001F00DFA074637
:10B0E000A004CD490090BC374018FCF799FC0146FC
:10B0F000CA481422264656433018A50000291DD000
:10B1000022291AD101F0EEF9002804D1C0480A30F2
:10B110004059002802D02046FFF70DFFC049009893
:10B120004018406A0004000C04D1B948123040595C
:10B13000002802D02046FFF737FDFEBD03F0A6FB36
:10B14000B848301803F0A2FBB14900200A31485139
:10B15000083148510A20029960434118C879897919
:10B1600002020A43002302212046FCF7E3FCA0422E
:10B17000E3D105212046FFF7EDFC7878397800020D
:10B18000084302D0A2494239C88101984078012879
:10B19000D3D12146A4A004F0A7FDFEBD70B59C4C00
:10B1A0004500183C605B002809D0A749884204D2BA
:10B1B000401C0840605302D00DE00020605303F0B3
:10B1C00097FA05F07DF8FBF7DBFFA04905F08DFA53
:10B1D0009F480818605380B270BD8D4A00213A3AEA
:10B1E00011540A321154083A11540C321154921E5F
:10B1F0001154921D1154921E1154400016321152D6
:10B200000C321152083A11520C321152704770B57B
:10B21000054601F071F904467F49A8043B34401803
:10B22000FCF7FEFB002809D00A216943615C032971
:10B2300009D0172804D01C2802D004E0284670BD8D
:10B240002846FCF79DFD2846FCF744FCF6E710B5C0
:10B2500000220621FDF7B1F810BDF1B584B001F070
:10B260004BF94F30039001F047F90546A53501F041
:10B2700043F90446002000903B3401267548FCF752
:10B28000CFFB0746684607707248401EFCF7C8FBB4
:10B290000146684641706F480291801EFCF7C0FB72
:10B2A0000146684681706B480191C01EFCF7B8FBEF
:10B2B00001466846C17003984078012804D154487B
:10B2C0004238C078002802D0002F05D00CE0687802
:10B2D000012858D160A014E00298002804D10198F8
:10B2E000002801D1002908D004980A2250430019EF
:10B2F00082789446002A07D00FE06878012842D16E
:10B300005FA004F0F1FC3EE0C278002A05D102798A
:10B31000002A02D14279002A10D0674515D1C3789E
:10B32000029A9A4211D10379019A9A420DD1427937
:10B3300091420AD16878012805D024E06878012874
:10B3400021D15E48DDE75EA0DBE7C02F1CD102996A
:10B35000A82919D103990978002915D16146C02976
:10B3600012D1C178A8290FD10079019981420BD05F
:10B370006878012807D1607900902379E278A17874
:10B380005C4804F0B1FC0026304691E6F0B58FB081
:10B39000044601F0B1F87D30059001F0ADF83B3086
:10B3A000019001F0A9F8A530029001F0A5F8A730AE
:10B3B000079001F0A1F8BC30069000206946039088
:10B3C0000884A00414490C904018FCF729FB01469E
:10B3D000144814222746574338180E900F48104A35
:10B3E000381809900C98650080180D9020460A22A4
:10B3F0005043A600009017297ED07EDC00297DD026
:10B4000013297CD014297BD1014E3C3E305D78E07D
:10B41000FE0000204419010030000146F018002011
:10B4200000020146C8180020203E205345475B25F6
:10B43000645D3A5544505F4D4F44453A534F434B3A
:10B440004F50454E0D0A0000FFFF0000102700007E
:10B45000B888000013600046203E205345473A4319
:10B460004F4E4E454354494F4E204641494C45446A
:10B47000202D20444E53204661696C65640D0A00FE
:10B48000203E205345473A434F4E4E454354494F83
:10B490004E204641494C4544202D20496E76616C32
:10B4A000696420495020616464726573733A205A5C
:10B4B00065726F2049500D0A00000000D819010084
:10B4C000203E205345473A434F4E4E454354494F43
:10B4D0004E204641494C4544202D204475706C69EE
:10B4E0006361746520495020616464726573730DF3
:10B4F0000A000000901901006EE019E098E022E0D7
:10B5000014E0002812D1099800F0ECFF00280DD0BB
:10B510002046FFF77CFE0120305505983818017A47
:10B52000C279080210433146303148530FB0F0BDA4
:10B5300018297DD01C29F9D1FE4D0D98406A0004D0
:10B54000000C76D165E1FB484E38005D0128EDD155
:10B55000F8481E38425B059979180B7ACF791902A1
:10B5600039438A42E2D3002747532046FFF775FE4E
:10B5700000281DD0019900984118487A0B7A0202E0
:10B580001A432046891CFCF777FBEA4D303D285DC5
:10B59000401CC0B228550A28C8D32046FFF737FE02
:10B5A0002F55099803F072F9E2484E380755BDE768
:10B5B0002046FFF72CFEDF4830380755099803F086
:10B5C00065F90E9803F062F9DA48083087510830BF
:10B5D000875108308751E7E7D7490C984018FCF7A6
:10B5E0001FFAC0077CD002212046FFF7B3FAD148EA
:10B5F0002638405B00280AD1059839184878097820
:10B600000002084303D0CB4801214C380155C948FA
:10B610002238405B002808D1059838188078012826
:10B6200003D1C44801214A3801550598381801E072
:10B63000F6E0EAE0C07C002807D0BE484E38005D46
:10B64000012802D0002805D011E0BA4801213C3879
:10B6500001550CE0B7483C38005D002807D1B548DB
:10B6600001213E380155B34900201639485302984C
:10B67000407801281BD103AA04212046FCF705FFCE
:10B6800008AA05212046FCF700FFAA486B464E3861
:10B69000005D00286846028CC17B807B07C368463A
:10B6A000437B027B21460AD0A4A004F01DFBA148E5
:10B6B0004E38015D002904D0012912D013E0ABA05F
:10B6C000F3E7099803F0E2F80E9803F0DFF89949E0
:10B6D000002008318851083188510831885102E032
:10B6E0000CE0002101559348002130380155924962
:10B6F0000C98083140180121FCF794F9099800F0E2
:10B70000F1FE002804D18B4808388059002802D067
:10B710002046FFF710FC0D98406A0004000C03D18E
:10B7200084488059002802D02046FFF73DFA81481E
:10B730004C38005D012815D17E482638415B0598BC
:10B740003A18507812780002104381420AD32046FA
:10B75000FFF75DFD774900204A39085528314853E5
:10B760002C39085505983E18B078012830D1714819
:10B770004A38005D01282BD16E483838005D00281A
:10B7800002D0012814D023E06A4F223F795B32793E
:10B79000F3781002184381421AD3002818D02046AB
:10B7A000FFF755FD0020785301203946163908551A
:10B7B000604F223F795BB27973791002184381425E
:10B7C00006D3002804D02046FFF741FD002078531F
:10B7D00058484E38005D002800D0A7E6F07C0128CC
:10B7E000FBD154483C38005D0028F6D1514E163E3E
:10B7F000705B6A498842F0D32046FFF708FD0020BD
:10B80000314628390855705390E62046FFF7CCF9A9
:10B8100093E6A8590028F8D12046FCF7B1FA85E64E
:10B8200001212046FFF796F94248424D4E38005D0F
:10B83000543D002812D03F49002088512046FFF790
:10B84000ADFC0246202301212046FCF773F9A042FB
:10B85000C3D10798007801282CD032E02046FFF7AA
:10B86000BCFC3449002008398851083188510199BD
:10B87000009820234118C879897902020A430121DE
:10B880002046FCF757F9A042A7D107980078012875
:10B8900006D10698417802780802104300D0E8816A
:10B8A0002046FCF7B2F902984078012895D121464C
:10B8B0003BA01AE00698417802780802104300D0B5
:10B8C000E8811C484438015D002908D105997918A0
:10B8D0000A7ACB791102194301D00121015502984E
:10B8E0004078012890D1214638A004F0FDF91DE6EA
:10B8F000F0B58DB0044600F0FFFD7D30059000F0FE
:10B90000FBFDA530009000F0F7FD07463B3700F047
:10B91000F3FDA730029000F0EFFD054600206946D8
:10B92000039008830448A104BC3510300818019125
:10B9300062E000001001002020000146203E20535C
:10B9400045475B25645D3A434F4E4E45435445445D
:10B9500020544F202D2025642E25642E25642E256D
:10B9600064203A2025640D0A00000000203E205388
:10B9700045475B25645D3A434F4E4E45435445442D
:10B980002046524F4D202D2025642E25642E2564FF
:10B990002E2564203A2025640D0A0000881300003B
:10B9A000203E205345475B25645D3A5443505F4D2C
:10B9B000495845445F4D4F44453A534552564552C8
:10B9C0005F534F434B4F50454E0D0A00203E2053CE
:10B9D00045475B25645D3A5443505F4D49584544A3
:10B9E0005F4D4F44453A434C49454E545F534F4396
:10B9F0004B4F50454E0D0A00FCF712F8FE4A0199D4
:10BA0000A60089180C9117280ED002DC00287DD1E1
:10BA1000FFE01828FCD01C2878D1F84D0C98406A1B
:10BA20000004000C73D1EDE0F54901984018FBF7D4
:10BA3000F7FFC107F348142227465743381865001B
:10BA40000B90002957D0EE49019808314018012188
:10BA5000FBF7E8FF02212046FFF77CF8E74826388D
:10BA6000405B00280AD10598391848780978000207
:10BA7000084303D0E14901204C390855059838188E
:10BA8000C07C00280CD0DD4901203E390855DB4838
:10BA900000211638415300984078012805D01BE05A
:10BAA000D64901203C390855F5E703AA0421204670
:10BAB000FCF7EBFC06AA05212046FCF7E6FC6846ED
:10BAC000028BC17B807B6B4607C36846437B027B4E
:10BAD0002146CD4804F008F90B9802F0D7FECB4878
:10BAE000381802F0D3FEC5490020083188510831CA
:10BAF0008851083188510B9800F0F4FC002804D1DB
:10BB0000BE4808388059002805D001E074E075E08F
:10BB10002046FFF710FA0C98406A0004000C03D18D
:10BB2000B6488059002802D02046FFF73DF8B348B8
:10BB30004C38005D012813D1B0482638415B059888
:10BB40003A185078127800021043814208D32046F8
:10BB5000FFF75DFBA94900204A39085528314853B1
:10BB600005983E18B078012830D1A4484A38005DC5
:10BB700001282BD1A1483838005D002802D00128C7
:10BB800014D023E09D4F223F795B3279F378100285
:10BB9000184381421AD3002818D02046FFF757FBDC
:10BBA000002179530120394616390855934F223F19
:10BBB000795BB279737910021843814206D3002869
:10BBC00004D02046FFF743FB00207853F07C012887
:10BBD00012D18A483C38005D00280DD1874E163EB0
:10BBE000705B8B49884207D32046FFF710FB00208B
:10BBF00031462839085570530DB0F0BD2046FEF788
:10BC0000D3FF0BE7A8590028F8D12046FCF7B8F875
:10BC1000F2E701212046FEF79DFF2046FFF7DDFAFF
:10BC20007649002008398851083188510A2060433C
:10BC3000C019C17980790A020243002301212046FC
:10BC4000FBF778FFA042D7D102980078012807D1EE
:10BC5000687829780002084302D068495439C881BD
:10BC60002046FBF7D2FF009840780128C4D1214636
:10BC700068A004F039F8BFE7F0B58FB0044600F0D3
:10BC80003BFC7D30049000F037FC3B30099000F025
:10BC900033FCA730029000F02FFCA530009000F09C
:10BCA0002BFCBC3001900020694605900883544865
:10BCB000A104103008180B91FBF7B2FE4E4A0B9905
:10BCC000264689180D9114216500A7004E431728B8
:10BCD0002ED022DC00287DD013281DD147481E38E5
:10BCE000425B049971180B7ACE79190231438A426A
:10BCF00012D3002141532046FFF7AFFA00280BD0A2
:10BD00000A20099960434118487A0B7A02021A43C3
:10BD10002046891CFBF7B0FF08E41828DBD01C285C
:10BD2000FAD1364D0D98406A0004000C62D103E14F
:10BD300033490B984018FBF773FEC20731491420B2
:10BD4000604340180C90002A55D002212046FEF78F
:10BD500001FF2A482638405B00280AD10498311890
:10BD6000487809780002084303D0244901204C395F
:10BD7000085522482238405B002808D10498301822
:10BD80008078002803D01D4801214A3801551B49FD
:10BD900001203C39085508460838015D012903D1C6
:10BDA000002101552630415300984078012819D1CF
:10BDB00005AA04212046FCF768FB06AA05212046B7
:10BDC000FCF763FB6846028BC17D807D6B4607C331
:10BDD000684600E0B7E0437D027D0B4821463038DD
:10BDE00003F082FF0C9802F051FD0848301802F071
:10BDF0004DFD23E09CE030E00002014610010020F0
:10BE000020000146F01800206CB90000C81800207E
:10BE100088130000203E205345475B25645D3A545B
:10BE200043505F5345525645525F4D4F44453A5338
:10BE30004F434B4F50454E0D0A000000FA49002079
:10BE4000C8510831C8510831C8514A390855F74915
:10BE50000B9840180121FBF7E5FD0C9800F042FB20
:10BE6000002804D1F0481038C059002802D02046DC
:10BE7000FFF761F80D98406A0004000C04D1EA480D
:10BE80000838C059002802D02046FEF78DFEE6484B
:10BE90005438005D012813D1E3482E38415B0498E3
:10BEA00032185078127800021043814208D320469D
:10BEB000FFF7ADF9DC4900205239085528314853C5
:10BEC00004983618B078012800D025E7D6485238B3
:10BED000005D0128F9D1D4484038005D002812D017
:10BEE0000128F2D1D04F2A3F795BB07972790002F4
:10BEF00010438142E9D30028E7D02046FFF7A7F995
:10BF00000020785380E4C84F2A3F795B3279F37878
:10BF1000100218438142F5D30028F3D02046FFF7E2
:10BF200096F9002078530120394616390855D9E78B
:10BF30002046FEF739FEF5E6E8590028F8D12046FC
:10BF4000FBF71EFF60E401212046FEF703FE2046BA
:10BF5000FFF743F9B44900201039C8510831C851DE
:10BF60002046FFF71BF90246002301212046FBF77C
:10BF7000E1FDA042C6D102980078012808D10198BD
:10BF8000417802780802104302D0A7495C39C88181
:10BF9000A5484C38015D002908D1049971180A7A26
:10BFA000CB791102194301D0012101550098407845
:10BFB0000128A7D19C4D3A3D285D0028A2D12146F9
:10BFC0009BA003F091FE012028551DE4F8B504461E
:10BFD00000F092FA0546A53500F08EFA924E07461B
:10BFE0003B375C3E002C0CD0012030700024012136
:10BFF0002046FEF7AFFD0A206043385C022819D0C6
:10C000001CE000203070044604212046FEF7A2FD0B
:10C01000641CE4B2022CF7D36878012806D18EA004
:10C0200003F062FE91A19548FBF7C0FC0120FEF7EA
:10C0300059FD14E07C49002056390855641CE4B2CF
:10C04000022CD4D36878002806D08DA003F04CFED3
:10C0500090A18A48FBF7AAFC0120FEF74FFD0024BF
:10C0600025467148A1001038455044380555801CBC
:10C070000555083005556C4960002E390D52091DD3
:10C080000D5208310D520846263805552046142118
:10C09000484384490746401802F0F8FB82483818A4
:10C0A00002F0F4FB641CE4B2022CDAD3B570B58163
:10C0B000F8BDF8B500F020FA06463B3600F01CFA51
:10C0C0000546AC3500F01AFA0078012856D0564FD4
:10C0D0005C3F3878012851D1787801280FD10024AD
:10C0E0002046FFF794F8641CE4B2022CF8D3002039
:10C0F000FFF76CFF00207870387801283ED10024CB
:10C100000A206043305C002806D0012808D00228AD
:10C110000AD003280FD10BE02046FFF7ADFD0AE05F
:10C120002046FFF7E5FB06E02046FFF72FF902E087
:10C130002046FEF7C8FF002C17D05C4F7868002817
:10C140000BD008213846FBF7AFFB002802D0384659
:10C15000FBF7A2FB7868C0437860E00040194179A2
:10C16000012904D0022902D004E0444FE6E720462A
:10C1700002F002FD641CE4B2022CC1D3F8BD10B57C
:10C18000044600F0B9F90A214C433B3020184078AE
:10C1900010BDF7B584B017460D4600F0ADF9002686
:10C1A00004467D340096019602960B2D00D30A2595
:10C1B0002A466846049904F099F9142047433C192B
:10C1C0000934204604F014F9A84207D120462A4633
:10C1D000694604F0B9F8002800D10126304607B0BE
:10C1E000F0BDF8B50024104E07462546363E06E061
:10C1F00031192D4803F09BFC3555641CE4B2BC4258
:10C20000F6D309485C3885704571F8BD70B50546B0
:10C2100000F072F9044C01465C3C2078A7310128FB
:10C2200046D0002070BD0000180100202800014603
:10C23000203E205345475B25645D3A5443505F439D
:10C240004C49454E545F4D4F44453A534F434B4F35
:10C2500050454E0D0A000000203E205345473A410C
:10C2600054204D6F64650D0A000000005345473AA5
:10C270004154204D6F64650D0A00000000C000406D
:10C28000203E205345473A4757204D6F64650D0ABD
:10C29000000000005345473A4757204D6F64650D35
:10C2A0000A000000C8180020F018002000D000404C
:10C2B00008780028B6D060798C4A002806D001287A
:10C2C00010D002280ED003281ED117E04878A842CB
:10C2D0001AD1A089E189884216D1157001206071B8
:10C2E000A07011E009184978A9420BD1A189E3890E
:10C2F000994207D21554401C607105E0A189E2897A
:10C30000914201D2FFF76DFF0020A081607989E79B
:10C3100070B50E46044600F0EFF805463B3500F0D8
:10C32000EBF821460A23594302464B195B78AC329D
:10C330000020012B06D0022B07D0042B05D0052BA3
:10C3400012D102E0695C02290ED1E1008918497915
:10C350000120012908D16549891F112E05D0132E0E
:10C3600002D10020085500205CE70120FAE770B5F3
:10C37000044600F0C1F80546A73500F0BDF80146B7
:10C380002878BC31012818D158482638007801286F
:10C3900013D10A2060434118487809780002084305
:10C3A0000BD052481438015D002901D101210155FB
:10C3B0004E4A002061001432505233E7F8B500F0C5
:10C3C0009BF84A4EBC300090163E00203146263184
:10C3D000474D0A1F0446335C002B08D04300CF5A58
:10C3E000AF4203D2CF5A7F1CCF5200E0CC523F4B1A
:10C3F0001C3B1B5C002B08D04300D75AAF4203D232
:10C40000D75A7F1CD75200E0D452401CC0B2022839
:10C41000E1D3364E263EB089F189884202D2B089F6
:10C42000401CB081B07800280AD0B089F1898842D8
:10C4300006D1707903281DD0FFF7D3FE7471B47054
:10C440002A4A0020143A115C00291CD0274B4100D5
:10C4500014335F5A0A2603467343009E9E1973786D
:10C4600036781B0233439F42224B06D25E5A761C1B
:10C470005E5208E001207070E0E75C521B4B012126
:10C480001454123B195419491039095C00290AD077
:10C4900018494300091DCE5AAE4203D2CE5A761C2B
:10C4A000CE5200E0CC52401CC0B20228CBD3F8BD23
:10C4B00030B50E4B00201E3B0D4C194626311A5C40
:10C4C000012A06D142008D5AA54202D28D5A6D1C16
:10C4D0008D52401CC0B20228F1D3044901202639F4
:10C4E000087130BDC1680069081A7047E200002079
:10C4F000FFFF0000F6000020FE487047FD48D830DE
:10C500007047F8B5FB48D82141770021817705466F
:10C51000297001266E700C46A9700D21A81D04F02B
:10C5200042F80D22F4A1A81D03F0E0FF0720E870F7
:10C530002C712A466C71C0202032D073A827177442
:10C540000B21517402239374D0741775517596752D
:10C55000FF23D375137653769476002210460A2172
:10C56000484341190B462033DE761E77C0205877AA
:10C57000A82098770B20D877032040235854E2480E
:10C580000B46171841331F70380A58709B1C1F70D8
:10C59000380A5870142353435F193B4661331C77A4
:10C5A000200A58771F33D9481871000A58719C46E1
:10C5B0000B46A0331C77200A58779B1C1C77200A57
:10C5C0005877C0310C704C708C70CC700C714C7101
:10C5D0007F23DE55CE4963461970090A5970CA494E
:10C5E00082373970090AD00040197970A03004737D
:10C5F0000C2141738673C47304744474521C847494
:10C60000D2B2C474022AA9D3BA4F0120A037B8719C
:10C6100038460A21813803F0C6FF0026142031462F
:10C620004143B4480D18284686300A2103F0BBFF69
:10C630008035761CF6B22C74022EEFD3AD4808215B
:10C640004030C473047441748174C174017528212D
:10C65000153003F0A8FF0126FE71FC722B20387202
:10C660007872B872A3480F21C03001740021417460
:10C67000811C0E7400224A740C220275002242753D
:10C680000C75200A0D46487516352C70A1492846B0
:10C690004170090A8170E91C104604F014F850201A
:10C6A00028720020687228460B30AE721E210446A4
:10C6B00003F079FF132298A1204603F017FF2846C4
:10C6C00029302821044603F06EFF202297A120463E
:10C6D00003F00CFFF8BDF8B5FEF7FFF9D823854A43
:10C6E0000021012001F006FF824A5123D8320021A7
:10C6F000022001F0FFFE7F48817F427F0802104345
:10C7000002D0924988420ED1FFF7FBFED823794A26
:10C710000021012001F02FFF764A5123D832002159
:10C72000022001F028FF0024724E0127E000851945
:10C73000A035687C03280ED004280CD0FEF7CEF973
:10C740002873641CE4B2022CF0D30720F0700020A0
:10C7500030717071F8BD2F73F3E710B5D823654AB7
:10C760000021012001F007FF624A5123D832002145
:10C77000022001F000FF10BD10B503F0B7FE10BDA0
:10C7800010B503F0B3FE10BD10B50446014659487C
:10C7900006222930FFF7F4FF56480422A11D2F304E
:10C7A000FFF7EEFF5348214604220E313330FFF7E6
:10C7B000E7FF5048214604220A313730FFF7E0FFF7
:10C7C0004C482146042212315130FFF7D9FF494825
:10C7D000A17D4030012902D00121C17310BD00218B
:10C7E000FBE710B54349044606222931FFF7C4FF91
:10C7F000404904222F31A01DFFF7BEFF3D492046CE
:10C80000042233310E30FFF7B7FF3A4920460422A5
:10C8100037310A30FFF7B0FF364920460422513144
:10C820001230FFF7A9FF33484030C07B012802D007
:10C830000120A07510BD0220FBE7F0B589B02D4D99
:10C8400003A90120FCF75CF96846427C017CC07BAF
:10C850006B4607C36846837B427B017B3CA003F0A9
:10C8600043FA2F464337797A387A09020143B81ED2
:10C8700042780078120202436846407D009001929F
:10C8800002916846037DC27C817C3BA003F02CFAB8
:10C890006846407F00906846037FC27E817E42A04A
:10C8A00003F022FA6846407E00906846037EC27D0F
:10C8B000817D43A003F018FA08A84078009008A8EA
:10C8C00003786846C27F817F43A003F00DFA0026FB
:10C8D00030460A214843401904462034E17E0129AC
:10C8E00006D05021495D012903D0014643317FE044
:10C8F0009CE090E09C13002057495A373532535240
:10C900002D3132780000000088130000B80B0000C1
:10C91000581B000052C300006465766963652E777A
:10C92000697A77696B692E6E657400002F77697A72
:10C9300037353073722F66772F5737353030785F41
:10C940005332455F4170702E62696E00FFFF000038
:10C950002023204D41433A20253032583A253032A9
:10C96000583A253032583A253032583A2530325824
:10C970003A253032580D0A002023204950203A2011
:10C9800025642E25642E25642E2564202F20506FCB
:10C990007274313A2025642C20506F7274323A2020
:10C9A00025640D0A000000002023204757203A206C
:10C9B00025642E25642E25642E25640D0A000000B2
:10C9C000202320534E203A2025642E25642E2564F2
:10C9D0002E25640D0A000000202320444E533A20E7
:10C9E00025642E25642E25642E25640D0A00000082
:10C9F0004A780B7840300290007811021943009079
:10CA00000191E37FA27F617F48A003F06DF9E07E92
:10CA100003280CD01BE0002E19D178783978020257
:10CA20000A43294655314CA003F05EF90FE0607FC0
:10CA3000002809D1A07F002806D1E07F002803D17B
:10CA400002980078002809D04DA003F04DF9761C1B
:10CA5000F6B2022E00D23BE709B0F0BD4DA0F4E7DC
:10CA600010B5514C5148617AFAF7DCFF4F48A17A72
:10CA7000401EFAF7D7FF4D48E17A801EFAF7D2FF41
:10CA80004A48217BC01EFAF7CDFF4848617B001D54
:10CA9000FAF7C8FF4548A17BC01CFAF7C3FF10BDD9
:10CAA00010B5414C86B0203C21460622293168460B
:10CAB000FFF762FE214601A804222F310230FFF762
:10CAC0005BFE214603A8042233310230FFF754FEF7
:10CAD000214602A8042237310230FFF74DFE2146DD
