:020000040000FA
:1070000058360020F1710000199E00001B9E000000
:107010000000000000000000000000000000000070
:107020000000000000000000000000001D9E0000A5
:1070300000000000000000001F9E0000219E0000D4
:10704000299E00002B9E00002D9E0000399E00000E
:10705000459E0000479E0000499E00004B9E000098
:107060004D9E00004F9E0000519E0000539E000068
:10707000559E00005D9E00005F9E0000619E000026
:10708000639E0000659E0000679E0000699E0000F0
:107090006B9E00006D9E0000037200006F9E00005A
:1070A000719E0000739E000000F002F800F059F895
:1070B0000CA030C8083824182D18A246671EAB460D
:1070C00054465D46AC4201D100F04BF87E460F3E7F
:1070D0000FCCB6460126334200D0FB1AA246AB467F
:1070E0003343184794AB0000B4AB000000230024E6
:1070F00000250026103A01D378C1FBD8520700D3EF
:1071000030C100D50B60704710B5642902D108F07A
:107110002FFE10BD752902D108F02AFE10BD782976
:1071200002D108F05BFE10BD632902D109F0EAFE2E
:1071300010BD732902D109F0EDFE10BD002010BD75
:107140001FB5C046C04609F0A1F809F053FE04007F
:10715000002000210AF05CFA401C60601FBD10B5E1
:1071600010BD0AF0F1F91146FFF7EAFF03F0E6F966
:107170000AF009FA03B4FFF7F2FF03BC02F091FE34
:1071800030B40C490C684A6823681068C018106055
:10719000241D121D8C4207D28A4208D20C604A601C
:1071A00030BC4000400870470C00DC3CF6E70A00A9
:1071B000DC3AF3E7F029002070B505460C46164688
:1071C00002E00FCC0FC5103E102EFAD2082E02D3CB
:1071D00003CC03C5083E042E07D301CC01C5361FDE
:1071E00003E021782970641C6D1C761EF9D270BDF5
:1071F0000748804707480047FEE7FEE7FEE7FEE74F
:10720000FEE7FEE704480549054A064B70470000C3
:107210003B720000A9700000582A00205836002058
:10722000582E0020582E00203648006870473548F8
:10723000406870473448006A704710B53348816B26
:10724000334A1161C16B30484160002101624169DC
:107250008907CA0F012191404269D207D20F91409C
:10726000CAB2416940698904890E51438002294AA2
:10727000800E504309F0FFF92249086010BDF8B5AF
:10728000254F0126204D01280FD000202862214CD7
:107290001046214609F0EFF9C0B2012808D8EE6186
:1072A0006F6101210A46134619E02E620C46EFE792
:1072B0000021E961FF2101318006800A08436861ED
:1072C00068698007C00F86406869C007C00F8640A4
:1072D0006869F2B28004810E68698002830E2046DC
:1072E000084C51436060584309F0C5F92060F8BD6F
:1072F00030B4064B9C6B064D2C61DB6B024C63601B
:1073000030BCBCE7000000200010004180FD0300FD
:107310000012004100127A0000010200412109061A
:10732000002801D0032000E00120086070474121BF
:1073300009064860704701204121090688607047AE
:1073400041200006C06880B270474121090600282C
:1073500000D0022008617047412000060069000645
:10736000000E00D00120704701204121090608616C
:1073700070470020D2E700B50120FFF7CFFF0020C3
:10738000FFF7E3FF00BD00003F4A3F4B0121803281
:10739000984201D1116070473B4B2033984201D194
:1073A00011627047394A394B80329842F2D0374BDC
:1073B00020339842F4D07047334A334B0121C943FC
:1073C0008032984201D1116070472F4B2033984290
:1073D00001D1116270472D4A2C4B80329842F2D075
:1073E0002A4B20339842F4D0704781688022914321
:1073F0008160704781688022914381600021016033
:107400002022826081617047826880239A43826073
:107410000A68026082684B689B0113438A68920085
:107420001A43CB6809695B0013431943EF221140EB
:107430008160704720220129816802D091438160D8
:1074400070471143FBE70121C16070474069C0B23A
:10745000704780688006C00F7047816880221143A2
:1074600081607047006870470160704740687047EE
:107470008068704781607047006970474069704755
:107480008069704781617047001000400020004013
:1074900070B51024002101604160BF4A4261426220
:1074A0008162426321225206904202D1BB4BBC4A08
:1074B0000CE043221206904204D1B84BB84A403344
:1074C000403203E0B54BB64A80338032002060265C
:1074D00085005E515151401CA042F9D370BDF0B5FA
:1074E0002122002310265206904201D1AB4A08E027
:1074F00043221206904202D1A84A403201E0A74A34
:107500008032012425460F689D402F40AF4243D171
:107510000F79012F0DD045614D79AD070DD59C0038
:107520001559AD08AD001551155902273D431551A8
:107530000BE007692F430761EEE79D005759BF082D
:10754000BF0057515759274357514C79640704D509
:107550009C00155904273D4303E09C00155904275E
:10756000BD4315514C79A40604D59C00155920271C
:107570003D4303E09C0015592027BD4315514C792C
:10758000640604D59C00155940273D4303E09C0048
:1075900015594027BD4315515B1CB342B1D3F0BD13
:1075A0007D490160002101716221417170470246ED
:1075B000126800200A4200D001207047006880B2A3
:1075C00070470246526800200A4200D001207047EE
:1075D000406880B270470A06920D012312189B0280
:1075E000D21811600A0A920010185A00801801601F
:1075F000704710B50B069B0D0124CA431B18A4024B
:107600001B191A60090A89000818610040180260F5
:1076100010BD10B50B069B0D01241B18A4021B19ED
:107620001A60090A8900081861004018026010BD3C
:1076300041607047836A0B438362012A03D0426A28
:107640000A4342627047026A0A4302627047524A22
:107650008262012901D04262704702627047012AAA
:1076600003D0426B0A4342637047026B0A430263D2
:107670007047494A012901D042637047026370474D
:107680004549816370470246926B00200A4200D050
:1076900001207047F0B50126414D002334469C403F
:1076A0000C420ED0002810D0012811D03C4C9F0075
:1076B00080343C192768BF08BF002760276817433C
:1076C00027605B1C102BE9DBF0BD9C006419F1E71F
:1076D0009C006419276CBF08BF002764276C174300
:1076E0002764EEE77CB504461E460D466846FFF764
:1076F00057FF68460095027169462046FFF7EFFE86
:1077000021204006844201D1002006E043200006EB
:10771000844201D1012000E0022032462946FFF7D1
:10772000B9FF7CBD7CB5044616460D466846FFF79A
:1077300037FF00206946009508712046FFF7CFFE0D
:10774000206A28432062A06A2843A0623246294664
:107750002046FFF784FF21204006124E844206D1C6
:10776000002001222946FFF795FF802012E04320E8
:107770000006844207D1012002462946FFF78AFF0E
:10778000FF20013006E0022001222946FFF782FF98
:107790000120400230607CBDFFFF0000003000414E
:1077A0000020004100E100E0E12149020160602188
:1077B00081800021C18003220181120242818181E6
:1077C00070477047F8B50446006B0E46400840000D
:1077D0002063FFF72FFD8C4F0125002842D03D612B
:1077E000FFF722FD7A692946914008F044FF0746D9
:1077F0003068000109F0D8FA0090384609F0D4FA50
:10780000009909F0DDF9074609F08AFA009009F0BD
:10781000CBFA394609F058FF062109F0C9FA09F0F8
:10782000A5F90022794B09F053F909F07DF90146D9
:1078300000986062A162E06AEE218843B188F28814
:107840001143328902431143E162206B7049B289CE
:1078500008407189114301432163206B2843206351
:107860000020F8BD022038617869294681406948C6
:10787000BBE710B5C36A10242343C3624907890ECE
:107880005207520F1143416310BDC16A1022914348
:10789000C162704701607047006880B27047C16A7A
:1078A00001221143C16270470246526800200A4219
:1078B00000D0012070474160704702469269002065
:1078C0000A4200D001207047002A826B01D00A438F
:1078D00000E08A43826370470246926B00200A42AE
:1078E00000D0012070470246126C00200A4200D0EE
:1078F00001207047426C0A434264704710B5044649
:107900004548016B02290AD0006B032807D0FFF716
:107910008BFC214608F0AFFE4049086110BDFFF71F
:1079200086FCF6E710B5FFF7E9FF3C4988680322BB
:107930008008800010438860002010BD70473749E0
:107940004A68D207FCD1086070473448006880B2AA
:107950007047324A0146526800200A4200D0012096
:1079600070472E4A0029916801D0014300E081430D
:1079700091607047294A0029916801D0014300E0D5
:10798000814391607047254A0146D26800200A422F
:1079900000D0012070472149CA680243CA6070477D
:1079A000016082691207FCD40846704730B50B4667
:1079B00005461C78002C03D021462846FFF7F0FF2F
:1079C0005B1C002CF5D130BD8169C906FCD4006870
:1079D000C0B2704700B50346FFF7B1FF184600BDBF
:1079E00010B503461C78002C02D02046FFF7A7FFF5
:1079F0005B1C002CF6D110BD084841688907FCD5F6
:107A00000068C0B270470000401100410000E03F34
:107A1000FE3CFFFF00127A000010004100600040B1
:107A2000007870470170704730B5002405E00D19EB
:107A3000ADB2455D1555641CA4B29C42F7D330BD70
:107A400070B5002405E00E19155DB6B28555641CAD
:107A5000A4B29C42F7D370BD70B514000FD01A4A7F
:107A600083049E18F268400795B2184AC00A104372
:107A70000A4623462946FFF7E3FF2819F06070BD48
:107A800070B514000FD0104A83049E18B26A4007E4
:107A900095B20F4AC00A10430A4623462946FFF70B
:107AA000C3FF2819B06270BD10B500290BD0064A7B
:107AB00083049B189A6A4007054CC00A511820435A
:107AC00089B20818986210BD000201460000024603
:107AD0000000034670B50446082802D90020C043C0
:107AE00070BDFA48A604301805461021FFF79AFF2A
:107AF0002846FFF795FF0028FAD1F4481F211830D7
:107B00003018FFF78FFFF24801218288A1408A4395
:107B10008280F04A002061005052ED49891D0855CD
:107B2000EA48203034182046FFF77AFF0028FAD1BF
:107B3000012070BDF8B51C4616460F4605460828BC
:107B400002D90020C043F8BD012F06D0022F04D077
:107B5000042F02D00420C043F8BD6007810FDE4827
:107B6000FAD1002C0CD0012F02D0022F08D103E053
:107B700021210C42F0D003E0A10601D52106EBD56E
:107B80002846FFF7A7FF21090901D0483943AF0470
:107B900010383818FFF746FF002E0AD1CC48CF4ADC
:107BA0000688711C89B20180914202D103218903A8
:107BB0000180C648F03038184661C44801213818A1
:107BC0000646FFF72FFF3046FFF72AFF0028FAD1BD
:107BD000BF48E107C90F4288A940114341800121F4
:107BE0008288A9408A438280BA4A002069005052A4
:107BF000B749891D4855B54820303C182046FFF745
:107C00000FFF0028FAD068B2F8BD70B50646082804
:107C100002D90020C04370BDAC48B404103820180D
:107C2000FFF7FEFE0007000F012802D00420C0432A
:107C300070BDA648203020180546FFF7F1FE132836
:107C400002D00220C04370BDA04802212018044683
:107C5000FFF7E8FE2046FFF7E3FE0028FAD12846AA
:107C6000FFF7DEFE142805D03046FFF733FF032070
:107C7000C04370BD012070BDF8B517460D460646DD
:107C8000082802D90020C043F8BD9048B404103839
:107C90002018FFF7C5FE0007000F012802D00420BE
:107CA000C043F8BD894820302018FFF7B9FE1328DB
:107CB00002D00220C043F8BD29786A7808028018F3
:107CC000AA7800028018EA7800028018421C30D09E
:107CD00000282ED0002F2FD081482018FFF7A2FEB9
:107CE0007F486978401E2018FFF79CFE7C48A978E1
:107CF000801E2018FFF796FE7948E978C01E2018EC
:107D0000FFF790FE76482738201807626F48042155
:107D100020180446FFF786FE2046FFF781FE002864
:107D2000FAD16B4901204988B040084207D00020B1
:107D3000F8BD0B20C043F8BD0A20C043F8BD0120A8
:107D4000F8BD70B50646082802D90020C04370BDB2
:107D50005E48B50410382818FFF762FE0007000FD0
:107D6000012802D00420C04370BD584808212818BB
:107D70000446FFF757FE2046FFF752FE0028FAD1CF
:107D8000534901208A88B04082438A80498808424A
:107D90000CD0002070BD2046FFF742FE00070BD537
:107DA0003046FFF797FE0C20C04370BD47481030A7
:107DB0002C18464820302D182846FFF731FE0028A1
:107DC000E9D1012070BDF7B582B0029814460828A9
:107DD00003D90020C04305B0F0BD86043B481038ED
:107DE0003018FFF71DFE0007000F012802D0042005
:107DF000C043F0E7002C0CD03448203030180190FC
:107E0000FFF70EFE172807D01C2805D00620C04318
:107E1000E1E70D20C043DEE7029801252C4F8540A5
:107E2000B888054211D0294810303018FFF7F8FD06
:107E3000C006C00EC10621D52448102118303018C4
:107E4000FFF7F0FDB888A843B8802548D93030182E
:107E50000090FFF7E5FD8006000C844200D904463F
:107E60000098406887B20198FFF7DAFD17280DD017
:107E70001C280BD00298FFF72DFEC7E700070BD593
:107E80000298FFF727FE0C20C043A4E71048408863
:107E9000054203D0BC4201D900209CE7BC42DFD898
:107EA000224603990298FFF7D7FD08482021301891
:107EB0000646FFF7B7FD3046FFF7B2FD0028FAD1BE
:107EC000034881880D438580204684E710000146E1
:107ED0000800002088030020FAFFFFFFF0FF0000E9
:107EE00027010146F7B582B002981446082802D946
:107EF0000020C0436FE78704F8483818FFF790FD6B
:107F00000007000F012802D00420C04363E7002CC3
:107F100019D0F3483818FFF783FD8006000CA04203
:107F200000D20446ED48303038180090EC48203834
:107F30003E18706A85B20098FFF772FD172815D0B9
:107F40001C2803D00CE00D20C04344E7002D1AD1BB
:107F50003046FFF765FD7168800289B2884205D11D
:107F60000298FFF7B7FD0620C04334E702990120CD
:107F70008840DC494988084203D0002D03D1002005
:107F800029E7002DD5D0A54200D22C4622460399E0
:107F90000298FFF775FDD14840211030381805468A
:107FA000FFF740FD2846FFF73BFD0028FAD12046A9
:107FB00011E7FFB583B003981E461546082803D97C
:107FC0000020C04307B0F0BD8404C4482018FFF768
:107FD00027FD0007000F022804D0042802D0042047
:107FE000C043EFE7002D1DD03078717800024018B3
:107FF000B17800024018F1780002C84202D10B208B
:10800000C043DFE70C9800280FD0B4483030201868
:108010000746FFF705FD42280AD0222808D006208F
:10802000C043CFE70D20C043CCE70A20C043C9E7D7
:10803000AB483178F9382018FFF7F4FCA84871787C
:10804000FA382018FFF7EEFCA548B178FB38201865
:10805000FFF7E8FCA248F178FC382018FFF7E2FCB3
:10806000A1490C98611808629D4820382018019099
:10807000FFF7D6FC8006000C854200D9054603991F
:108080000120884000900198406886B23846FFF78A
:10809000C7FC002808D0934900984988084206D0B8
:1080A000B54204D900208DE70320C0438AE7B542DA
:1080B000E9D82A4604990398FFF7CEFC8748202187
:1080C000103020180746FFF7ADFC844828302618EA
:1080D0003846FFF7A5FC0028FAD180482030241844
:1080E0002046FFF79DFCC006C00EC10605D53046F0
:1080F0001021FFF797FC284664E70007F0D53046CB
:108100000821FFF78FFC0C20C0435BE7FFB500247C
:1081100085B00646082802D9601E09B0F0BD6F4838
:10812000B5042818FFF77CFC04900007000F022814
:1081300004D0042802D00420C043EEE707980028AA
:1081400005D06A487700C05B002803D022E00D20EC
:10815000C043E2E762482038281803905F48303077
:1081600028180125B54002900398406A84B202980D
:10817000FFF756FC002806D05A484088054207D031
:10818000002C03D006E00320C043C6E70020C4E76C
:10819000002CE9D053480021801D81550498B20479
:1081A00041074E48490F1030151802291FD00429E5
:1081B00057D021463046FFF777FC4C48C453284639
:1081C0004021FFF72FFC2846FFF72AFC0028FAD1B0
:1081D0004648C15B091B0904090CC15305D041483D
:1081E0000122801D815D11438155204695E73F4C5A
:1081F000E05B00285BD1082269463046FFF740FC6F
:1082000028464021FFF70EFC2846FFF709FC00280E
:10821000FAD1684601780898017068464178089854
:10822000417068468178089881706846C1780898DE
:10823000C17068460E99007908800102684640794D
:1082400008180E9908806846807901026846C0794E
:108250000818E05327E0224630460699FFF710FC45
:10826000ADE7224CE05B002821D10222694630466E
:10827000FFF706FC28464021FFF7D4FB2846FFF70E
:10828000CFFB0028FAD168460078010268464078A2
:10829000081880B21649E053884204D93046FFF7E7
:1082A00019FC144839E70F498020891D8855E45B83
:1082B00007988442CFD90446CDE7F8B51446064660
:1082C000082802D90020C043F8BD04480927054BFF
:1082D000FF43B204243010185D880DE00000014611
:1082E000200201460800002000010146880300200A
:1082F000EA05000017FCFFFF0B0009F075F90805FF
:1083000015191B232B342E3D21780120B040012963
:1083100002D0002904D02FE087492843488029E073
:10832000854985434D8025E0F540E807C00F18E0FA
:10833000824801E0814820301018FFF771FB80026D
:10834000208017E020781F2816D8C1067C48C90E67
:1083500010180DE07A4808381018FFF761FBC006C6
:10836000C00E207006E021781F2905D8C906C90E65
:10837000FFF758FB0120F8BD3846F8BDF8B51546A3
:10838000082802D90020C043F8BD84046B4B6C4A16
:108390006B48803BD83228380427E618A2182018EA
:1083A000FF430B0009F020F9084E05091041131690
:1083B000434E63482978E03002E061482978DC3098
:1083C0002018FFF72FFB30E0288810612DE0288867
:1083D00010622AE0FFF724FB0007000F01282CD1D0
:1083E0003046FFF71DFB002802D00120C043F8BD36
:1083F00053482221183820180546FFF713FB504830
:10840000083826180CE03046FFF70AFB000707D5AE
:108410004B4808212018FFF705FB0C20C043F8BD8E
:108420002846FFF7FDFA0028EDD10120F8BDFFF73F
:10843000F7FA0007000F012801D03846F8BD297867
:108440003046BEE70920C043F8BDF8B514460646DD
:10845000082802D90020C043F8BDB5043848384A7E
:10846000364B2838D832EF182818AA180B0009F014
:10847000BBF80D080D121517305F323E40424852CE
:108480005F00FFF7CDFA0009000102E02C48E03060
:1084900033E020703DE02A48DC302EE01069F8E738
:1084A0002648D9382818FFF7BBFA20702348DA3855
:1084B0002818FFF7B5FA60702048DB382818FFF756
:1084C000AFFAA0701D48DC382818FFF7A9FAE07051
:1084D0001FE0106A1CE0FFF7A3FA0007000F012855
:1084E0001FD1164880382818FFF79AFA10E07868EC
:1084F0000EE0786A0CE0124808302818FFF790FA6E
:10850000C7E7FFF78DFA0128F3D00E497000085A2B
:1085100020800120F8BDFFF783FA0007000F012833
:1085200002D00420C043F8BD0348801D805DB0E741
:108530000120C043F8BD00000800002000020146F1
:108540002800014688030020704770477047704735
:108550000078704701707047002070477047FE4AEE
:10856000002804D0002902D0D16090607047FB48F9
:108570009060FB48D0607047F74A002804D000297B
:1085800002D0516110617047F6481061F6485061A1
:10859000704710B5F04A1388DC05FDD5002804D0DB
:1085A000002902D0D161906110BDF0489061F0487F
:1085B000D06110BD10B5E84A13889C05FDD5002890
:1085C00004D0002902D0D161906110BDE9489061CA
:1085D000E948D06110BD0020C04370470020C0436F
:1085E000704710B5E548FFF71BFA0446E348103022
:1085F000FFF716FA0002001980B210BD10B5C1B223
:10860000040A09090901DD48FFF70CFADB48214695
:108610001030FFF707FA10BDD84810B5001FFFF75C
:10862000FFF90446D5480C30FFF7FAF900020019AB
:1086300080B210BD10B5C1B2040AD04809090901C1
:10864000001DFFF7EFF9CD4821460C30FFF7EAF99E
:1086500010BDF0B593B0CA48FFF7E2F91190C848D1
:10866000401EFFF7DDF9C64C1090A41E2046FFF710
:10867000D7F9651E0F902846FFF7D2F90E90A01D7E
:10868000FFF7CEF90D90601DFFF7CAF90C90BC48BA
:108690000830FFF7C5F90B90B948C01DFFF7C0F9C6
:1086A000B74E0A90B61D3046FFF7BAF90990E01DA3
:1086B000FFF7B6F90890B01DFFF7B2F90790701DEB
:1086C000FFF7AEF90690301DFFF7AAF90590F01CF0
:1086D000FFF7A6F90490AA481030FFF7A1F9A84FB8
:1086E00003900F373846FFF79BF90290781EFFF78B
:1086F00097F90190F01DFFF793F900908021A148B0
:10870000FFF790F99F48FFF78BF9A01C1199FFF72D
:1087100089F9601C1099FFF785F920460F99FFF73A
:1087200081F928460E99FFF77DF9A01D0D99FFF7F5
:1087300079F9601D0C99FFF775F9B01C0B99FFF7DB
:1087400071F9701C0A99FFF76DF930460999FFF726
:1087500069F9E01D0899FFF765F9B01D0799FFF762
:1087600061F9701D0699FFF75DF9301D0599FFF756
:1087700059F9F01C0499FFF755F9781C0399FFF794
:1087800051F938460299FFF74DF9781E0199FFF724
:1087900049F9F01D0099FFF745F913B0F0BDF8B5A0
:1087A0000D4606460024FFF754FF002E14D0002289
:1087B000B05C521C001952B244B2082AF8DB102CEB
:1087C00017DC714F0024A004315DC019FFF72AF9AE
:1087D000641C64B2082CF6DB002D19D00021084679
:1087E0002A5C401C511840B249B20828F8DB102915
:1087F00002DD0020C043F8BD634E00242036A004F3
:10880000295D8019FFF70EF9641C64B2082CF6DBB1
:108810000020F8BD70B50C460246002108464D1EEA
:10882000130008F0E1FE0906091511181C2E2E2070
:108830002E00FFF70EFF22E0002C02D0214620463A
:108840000831FFF7ACFF70BD2088FFF7F3FE16E09C
:10885000FFF7E2FE05E02088FFF7D0FE0FE0FFF70C
:10886000C0FE20800BE03C4882782270C2786270A3
:108870000279A2704279E2708079207161710020E2
:1088800070BD284670BD10B504463D484130FFF725
:10889000C7F820703A483D300068608010BD10B5C0
:1088A0000446017836484130FFF7BCF83449608807
:1088B0003D31086010BD10B53248FFF7B1F810BD6A
:1088C00070B50446C720044202D00020C04370BDEA
:1088D0002C4D2846FFF7A4F8204301462846FFF711
:1088E000A1F8002070BD10B504462548FFF798F8A0
:1088F00020702348401EFFF793F860702048801EC8
:10890000FFF78EF8A0701E48C01EFFF789F8E070D0
:108910001B48001DFFF784F820711948C01CFFF7A1
:108920007FF8607116480830FFF77AF8A073144892
:10893000C01DFFF775F8E0731148801DFFF770F850
:1089400020740F48401DFFF76BF860740C480C3022
:10895000FFF766F8A07219E02000002049850000AA
:108960004B8500004D8500004F85000051850000BB
:1089700055850000598500005D85000004210046F2
:108980000360004600230046000201465F480B30AA
:10899000FFF746F8E0725D480A30FFF741F82073B0
:1089A0005A480930FFF73CF8607358481030FFF719
:1089B00037F8A07155480F30FFF732F8E07153488F
:1089C0000E30FFF72DF8207250480D30FFF728F8D1
:1089D00060724F480178A1744178E1748178217503
:1089E000C07860754A48401E0078A07510BD10B56B
:1089F000044601784548FFF715F844486178401E61
:108A0000FFF710F84148A178801EFFF70BF83F48A8
:108A1000E178C01EFFF706F83C482179001DFFF7FA
:108A200001F83A486179C01CFEF7FCFF3748A17B8A
:108A30000830FEF7F7FF3548E17BC01DFEF7F2FF77
:108A40003248217C801DFEF7EDFF3048617C401DDF
:108A5000FEF7E8FF2D48A17A0C30FEF7E3FF2B4824
:108A6000E17A0B30FEF7DEFF2848217B0A30FEF763
:108A7000D9FF2648617B0930FEF7D4FF2348A1794E
:108A80001030FEF7CFFF2148E1790F30FEF7CAFF23
:108A90001E48217A0E30FEF7C5FF1C48617A0D3062
:108AA000FEF7C0FF1A48A17C0170E17C4170217D76
:108AB0008170617DC1701649A07D491E087010BD8E
:108AC00010B50C46030008F08FFD0604080C1014C6
:108AD000181D0846FFF78BFF12E00846FFF703FF5B
:108AE0000EE00878FFF7ECFE10BDFFF7E4FE207003
:108AF00006E00846FFF7D3FE02E00846FFF7C3FE94
:108B0000002010BD0020C04310BD000003600046DF
:108B1000190000207D220021D200504300E0491CB2
:108B20008842FCD8704770B504460120C00320611C
:108B3000451029462046FEF74EFD0120FFF7EAFFCB
:108B400029462046FEF755FD0120FFF7E3FF70BDE3
:108B5000F1B500200126B6030446770045003146F2
:108B60000098FEF738FD0120FFF7D4FF314600984A
:108B7000FEF73FFD0120FFF7CDFF39460098FEF7D5
:108B800016FD2843641C102CE8D3F8BD70B50446CC
:108B90000120C00360610120FFF7BCFF0125AD0388
:108BA00029462046FEF717FD0120FFF7B3FF2946AF
:108BB0002046FEF71EFD0120FFF7ACFF70BDF7B5A4
:108BC00014462020001B81400127FF030D467E1024
:108BD00018E00098002D394602DAFEF7FCFC01E0AF
:108BE000FEF707FD0120FFF795FF31460098FEF7DD
:108BF000F2FC0120FFF78EFF31460098FEF7F9FCEA
:108C00006D00641E002CE4D1FEBD70B50C46002141
:108C100005462022C943FFF7D2FF04220621284639
:108C2000FFF7CDFF5048052201682846FFF7C7FF30
:108C3000052221462846FFF7C2FF2846FFF7A6FF78
:108C40002846FFF785FF04462846FFF76CFF2046BD
:108C500070BD10B5432001210006FFF7D6FF400785
:108C6000C00F10BD70B50C461646002105462022E7
:108C7000C943FFF7A4FF042205212846FFF79FFF01
:108C80003948052201682846FFF799FF0522214649
:108C90002846FFF794FF022211462846FFF78FFF70
:108CA000102231462846FFF78AFF2846FFF73BFF90
:108CB00070BD01221203904203D021210902084015
:108CC0000246002143200006CCE7F8B54326274F93
:108CD0003606002400212022C9433046FFF76FFFEB
:108CE000042206213046FFF76AFF0522214630465E
:108CF000FFF765FF052201213046FFF760FF304690
:108D0000FFF744FF3046FFF723FF05463046FFF7E5
:108D10000AFF002D03D0BD4201D02046F8BD641CDF
:108D2000082CD7DD12A006F0AFFFD2E77CB50646CF
:108D300014460D466846FEF733FC2543012069467C
:108D4000009508713046FEF7CAFB0122D103104698
:108D5000FEF7A0FC012291031046FEF79BFCFFF7F3
:108D6000B4FF014908607CBD40000020FFFF000007
:108D70000D0A7068792069642064657465637420E5
:108D80006572726F7221210D0A00000010B5FE4C51
:108D9000FE482178FEF746FEFC486178401EFEF74B
:108DA00041FEFA48A178801EFEF73CFEF748E178C4
:108DB000C01EFEF737FEF54808342178001FFEF785
:108DC00031FEF2486178401FFEF72CFEEF48A17893
:108DD000801FFEF727FEED48E178C01FFEF722FE58
:108DE000EA48241F21780838FEF71CFEE74861781E
:108DF0000938FEF717FEE548A1780A38FEF712FE9B
:108E0000E248E1780B38FEF70DFE10BD10B5E04CDE
:108E100080212046FEF706FE2046FEF701FEFFF702
:108E2000B5FFD94CD948353421781038FEF7FAFD12
:108E3000D64861781138FEF7F5FDD448A17812388C
:108E4000FEF7F0FDD148E1781338FEF7EBFDCF488F
:108E500021790C38FEF7E6FDCC4861790D38FEF734
:108E6000E1FD10BD10B5CA4C80212046FEF7DAFDA9
:108E70002046FEF7D5FDC44CC4483534217810385F
:108E8000FEF7D0FDC14861781138FEF7CBFDBF4831
:108E9000A1781238FEF7C6FDBC48E1781338FEF71A
:108EA000C1FDBA4821790C38FEF7BCFDB74861799D
:108EB0000D38FEF7B7FD10BDB34B10B5DB1FB54C39
:108EC0005C62B54C9C62B54CDC62002800D05862F4
:108ED000002900D09962002A00D0DA6210BD30B5B6
:108EE000A94B0120DB1F996B087048700620887021
:108EF0000020C8705A6B120E0A715A6B120C4A711C
:108F00009A8E120A8A719A8ECA71996B8022088190
:108F10008A72C872996B1A46087348738873C8734B
:108F2000087448748874C874087548758875C8755D
:108F3000087648768876C8763C3214780C77547870
:108F40004C7794788C77D478CC770C46157920348C
:108F500025705279627006228C18521CD2B220778A
:108F6000102AF9D39A6B002154182034491CC9B235
:108F700020734029F8D39A6B002154186034491C9F
:108F8000C9B220738029F8D3986B6321E030017354
:108F90008222427353228273C17330BD0007000FD7
:108FA000092801D83030704737307047FEB5FFF7D9
:108FB00096FF754C3522E41FA06BF0210A54012264
:108FC000F1210A54F2210A543D22F3210A540722C6
:108FD000F4210A540122F5210A5421463C310A7831
:108FE000F6210A5421463C314A78F7210A54224698
:108FF0003C329378F822135422463C32D378F9223B
:10900000135422463C321379FA22135422463C323E
:109010005379FB2213540C21FC2211540023FD210F
:109020000B54122225461946423506E08718E037D0
:10903000521C491C3E7392B289B26E5C002EF5D16F
:10904000514D3535E8780009FFF7A8FFA66BB61833
:10905000E0363073521C92B2E878FFF79FFFA66BA0
:10906000B618E03630732879521C92B20009FFF727
:1090700095FFA66BB618E0363073521C92B2287971
:10908000FFF78CFFA66BB618E03630736879521C78
:1090900092B20009FFF782FFA66BB618E036307374
:1090A000521C92B26879FFF779FFA56BAE18E036D3
:1090B0003073521C92B2881D511A4919E03148711F
:1090C000A06B37218518E0352973521C91B24518E1
:1090D000491C89B246180622E0352A730125E0367C
:1090E0003573491C89B246180325E036491C35738F
:1090F00089B24518E0352A73491C89B245180F22F8
:10910000E0352A73491C89B242183A25E0321573BA
:10911000491C89B242183B25E0321573491C89B2BB
:109120004518FF22E0352A73491CFF2589B23935DD
:1091300004E04618E036491C337389B2A942F8D3DB
:109140006846027142718271C27143200090892287
:1091500001AB9200A078A16BFEF72BFFFEBDFEB520
:10916000FFF7BDFE084B0020DB1FDA1D1856144622
:109170002934FF27032844D0042842D068460771C9
:1091800047718771C7710BE04B00002013600046E8
:10919000002300468D8D00000D8E0000658E0000BE
:1091A000986B3521F02529540121F12529540321FB
:1091B000F22529543D21F32529540721F42529546A
:1091C0000121F5252954F849F62509782954F6494D
:1091D000F72549782954F449F82589782954F24922
:1091E000F925C9782954F049FA2509792954EE4915
:1091F000FB25497929546D46ED791021FF2D16D0B4
:1092000039E0986B00218172C17211780173517835
:10921000417391788173D178C17321786846017167
:1092200061784171A1788171E178C171ABE7322534
:10923000FC210D540425FD210D541678FE210E54F9
:109240005678FF210E549678491C0E54D278491C4A
:109250000A543622491C0A54491C0D542278491CD0
:109260000A546278491C0A54A278491C0A54E278CC
:10927000491C0A541C2143180C22E0331A73491C60
:1092800042180025E032C84B15739B1D2A46491C25
:1092900005E04618E036491C347389B2521C9C5CC8
:1092A000002CF6D1C04BD8780009FFF777FEBE4CF2
:1092B0003C3CA66B7618E0363073491C89B2D878EE
:1092C000FFF76CFEA66B7618E03630731879491CF0
:1092D00089B20009FFF762FEA66B7618E03630739C
:1092E000491C89B21879FFF759FEA66B7618E0364B
:1092F00030735879491C89B20009FFF74FFEA66BFD
:109300007618E0363073491C89B25879FFF746FE6B
:10931000A36B5E18E0363073491C88B2911D821A27
:10932000D218E0325171A16B37220B18E0331A7357
:10933000401C80B20B180822E0331A73401C80B224
:109340000B180122E0331A73401C80B20B18032261
:10935000E0331A73401C80B20B180622E0331A73F4
:10936000401C80B20B180F22E0331A73401C80B2ED
:109370000B183A22E0331A73401C80B20B183B22C0
:10938000E0331A73401C80B20B181F22E0331A73AB
:10939000401C80B20B182122E033401C1A7380B2AB
:1093A0000A18E0321773401CFF2280B2393203E002
:1093B0000B18E0331D73401C9042F9DB43200090F2
:1093C000892201AB9200A078A16BFEF7F2FDFEBDF1
:1093D0001CB5FFF784FD744800213C38806B3522B2
:1093E0008172C172F0210A540122F1210A5404222F
:1093F000F2210A543D23F3210B540722F4210A548D
:109400000122F5210A546849F6220B7813544B784F
:10941000F72213548B78F8221354CB78F922135483
:109420000B79FA2213544A79FB210A543222FC2187
:109430000A540422FD210A545B4935390A78FE2179
:109440000A54594935394A78FF210A545649353961
:109450008A78FF2101310A5453493539CA78FF21EE
:1094600002310A543622491C0A540422491C0A5467
:109470004D49FF220C390B78053213544B78521C9E
:1094800013548B78521C1354CA78FF2108310A54A4
:10949000FF22491C0A541D210023FF22393244189F
:1094A000E034491C23739142F9DBFF2069460871BF
:1094B00048718871C871432000903B4889223C382C
:1094C000816B01AB92008078FEF773FD1CBD7FB508
:1094D000354C364A3C3CA07881048918496A0A0414
:1094E000120C26D001A9009102ABA16BFEF70EFE73
:1094F00082B26846808843283BD1A06B2A49037F0B
:109500000D78AB4215D1457F4B789D4211D1837FB9
:109510008D78AB420DD1C37FCD78AB4209D10346E4
:1095200020331D780E79B54203D15B7849798B429F
:1095300002D0002004B070BDF03000258118F03951
:1095400015E00278332A41D008DC002A15D0012A20
:1095500018D0032A1AD0062A06D129E0352A0ED0BF
:10956000362A42D0FF2A06D04278801C80188842D2
:10957000E7D368B2DEE70846F9E7401CF7E78578ED
:10958000C01CF4E7084A83782D3A31E0064A437854
:109590008678313A1670C678567006799670467994
:1095A000801DD670C0180FE0800000200002014628
:1095B000F84B427886781E70C6785E7006799E7089
:1095C0004679801DDE708018001FD0E78278A26186
:1095D000C37812029A18A261037912029A18A26142
:1095E000437912029A18A26109E0EA4A83781D328F
:1095F0001370C3785370037993704379D370801DCF
:10960000B5E7E44800211338C161052202624170C8
:10961000704770B5DF4C0125133C61570026224688
:109620009057022917DAE269216A914223D2012870
:1096300004D0022805D0042805D102E0FFF7B6FCCB
:1096400001E0FFF78CFDE661E069401D2062607873
:10965000401C60700FE0012804D0022805D00428C7
:1096600007D102E02670002503E0FFF79FFC0120F0
:109670002070FFF7C6FF284670BDF8B5C64E3046CD
:10968000FEF7CEF9054603213046FEF7CBF9C14B74
:10969000C2480C3BDC1F00901122C1A1A078FEF74C
:1096A00088FC074629463046FEF7BCF90D3708D03E
:1096B000FFF78EFEE069E169091A0229FBD3002059
:1096C000F8BD0120F8BDF8B5B24C133C207806284F
:1096D0001ED0A078B74980044018FEF7A1F92228CF
:1096E00005D0002344220221A078FEF723FA0125A9
:1096F000FFF7EDFEC1B20022A256A64800260127C0
:109700000C38130007F070FF05060D1C314C2F00BC
:109710000520F8BD067046708670C670FFF746FCDF
:109720005EE002291CD1A16B0A7C02704A7C427067
:109730008A7C8270C97CC170FFF711FD02204BE06A
:1097400005290BD1FFF799FF002801D0606A3FE09F
:10975000FFF757FFE06A8047267004E006293DD0F6
:10976000FFF757FF05462846F8BDA16904254A1CA6
:10977000F9D0E26949089142F5D286490278103958
:109780000A7042784A7082788A70C078C870606BBC
:10979000401C6063FFF7E3FCFFF733FF04201BE08E
:1097A00004250529DAD17B49667010390A780378D7
:1097B0009A420BD14A7843789A4207D18A788378C3
:1097C0009A4203D1C978C078814202D0A06A0325A9
:1097D0008047FFF716FF03202070C4E7FFF711FF53
:1097E0002770C0E710B56B4C133CA078FEF772F9F8
:1097F0000620207010BDF3B5674F83B006460025E4
:10980000413F38460095FEF70BF9624C2934207031
:10981000781EFEF705F96070B81EFEF701F9A0701A
:10982000F81EFEF7FDF8E070381DFEF7F9F820711C
:10983000F81CFEF7F5F86071014620786278E3784D
:109840001043A2781A4310432279104308431FD1D2
:10985000257008206070DC20A070E5702571294615
:1098600065713846FEF7DEF86178781EFEF7DAF8A3
:10987000A178B81EFEF7D6F8E178F81EFEF7D2F808
:109880002179381DFEF7CEF86179F81CFEF7CAF889
:10989000404F4949133FBE700498B863E07863793C
:1098A000421821798A1848409A18584080187863DD
:1098B0006846017838480C463138FEF7B3F86846F8
:1098C00040780290014634483238FEF7ABF86846DB
:1098D00080780190014630483338FEF7A3F8684697
:1098E000C6782D4831463438FEF79CF82A48214680
:1098F0003138FEF797F8284802993238FEF792F887
:10990000254801993338FEF78DF82348314634381D
:10991000FEF788F8204821463938FEF783F81E48BC
:1099200002993A38FEF77EF81B4801993B38FEF75A
:1099300079F8194831463C38FEF774F8FFF761FEB4
:109940003D7005B0F0BD13481338C169491CC161B1
:10995000704710490C390A7802704A7842708A7848
:109960008270C978C17070470A4908390A78027054
:109970004A7842708A788270C978C1707047054908
:10998000091F0A7802704A7842708A788270C97812
:10999000C1707047570000204460004688130000E3
:1099A000434845434B5F49505F434F4E464C494304
:1099B00054000000300001467856341206490A78F7
:1099C00002704A7842708A788270C978C170E0E784
:1099D000014813388069DCE757000020017840789F
:1099E0000902401880B270470A0A02704170801C58
:1099F0007047F0B584460020054606460C78491CA1
:109A0000002D00D1401C2706BF0F032F0AD1002DC7
:109A100000D1401CA4060978A40C6444091901254E
:109A20000C78491C002C19D01B1B5B1E1BB2002B91
:109A300002DA0020C043F0BD002D05D1001903E07B
:109A40000F781770491C521C2746641EA4B2002FC1
:109A5000F6D12E241470521C761CCFE7002E02D1B2
:109A60002E211170521C00211170F0BD10B593B061
:109A70000C464B236A46FFF7BCFF411C03D020185D
:109A8000001D13B010BD0020FBE770B593B0154664
:109A90000C4606464B236A46FFF7ABFF411C46D0F7
:109AA00024182046FFF79AFF0A34030007F09CFDB4
:109AB000103C09133C3C13291313133C3C13183C72
:109AC0001F3C2078287060786870A078A870E078D3
:109AD000E870241D28E04B236A460BE0241823E09D
:109AE0002078641C20180178401C44181CE04B238B
:109AF0006A46A41C21463046FFF77BFF411C16D066
:109B0000ECE74B236A4621463046FFF772FF411CC3
:109B10000DD024184B236A4621463046FFF769FFD3
:109B2000411C04D024181434204613B070BD00200A
:109B3000FBE7F7B50D460446122106F004FD284662
:109B4000FFF74CFF2080A81CFFF748FF020401210B
:109B5000002A00DAA1704204120FE270420500D51B
:109B60002171820500D56171C20500D5A17102067F
:109B700000D5E1710007000F2072281DFFF72EFFAE
:109B80006081A81DFFF72AFFA08128460830FFF753
:109B900025FFE08128460A30FFF720FF29460C31D7
:109BA00000262082771E06E02846FFF75FFF0100AF
:109BB00014D0761CB6B26089B042F5D8002607E012
:109BC0002846029AFFF761FF010007D0761CB6B263
:109BD000A089B042F4D80020E18903E03846FEBDF8
:109BE000401C80B28142FBD80020218A01E0401C49
:109BF00080B28142FBD8207A002801D00020FEBD2F
:109C00000120FEBDFFB55E4A0D46518895B0034662
:109C1000491C89B217985180FFF7E6FED902FF313F
:109C2000013189B2FFF7E0FE0121FFF7DDFE0021DF
:109C3000FFF7DAFE0021FFF7D7FE0021FFF7D4FE81
:109C400004462946684606F07DFB6E46304606F01F
:109C50009FFB80B213902E21304606F027FB0700B1
:109C600002D0B81B85B200E0139D2570641C002D46
:109C700012D02A463146204606F06AFC6419002FAD
:109C800007D013987619401B401E80B2761C1390A3
:109C9000E1E700202070641C01212046FFF7A4FEAC
:109CA0000121FFF7A1FE179919B0401A00B2F0BDCB
:109CB0003348816803290BD300228260017802298E
:109CC00002D30270501E7047491C0170002070477B
:109CD000012070472A4A50702A48516050807047CE
:109CE000F7B5274C0D46002388B01A46022160784C
:109CF000FDF720FFFF260136334629460020626823
:109D0000FFF780FF3525009582B2089B6078616877
:109D1000FEF74FF91C4F60788004C019406A0504B3
:109D20002D0C16D0B54200D9354607A8009006ABD9
:109D30002A4660786168FEF7E9F90A9A01A8616825
:109D4000FFF7F7FE05466078FDF7C4FE28460BB026
:109D5000F0BDFFF7ADFF002801DA0020F7E700288B
:109D6000D9D1352000902A46089B60786168FEF7BB
:109D700020F9D0E702488168491C816070470000E3
:109D8000900000202211000000020146F0B587B0CB
:109D900002F080FB04466D46A81DFFF7DAFD03A81C
:109DA00002300690FFF7E0FD02A802300746FFF7F9
:109DB000E6FD04A802300646FFF700FE2146062213
:109DC0002931684602F0A8FC20460422A91D2F3044
:109DD00002F0A6FC204604223330069902F0A0FCD3
:109DE000204604223946373002F09AFC20460422ED
:109DF0003146513002F094FC4034E07B002801D021
:109E0000022000E00120694688750020FEF758FE18
:109E100007B0F0BD7047000070477047704770474B
:109E200010B500F05FFC10BD7047704710B5002101
:109E3000104804F065FC10BD10B501210E4804F077
:109E40005FFC10BD704770477047704770477047A0
:109E50007047704710B504F0B0FB10BD70477047F5
:109E6000704770477047704770477047704770473A
:109E70007047704700C0004000D0004010B5C0B22D
:109E8000FDF7A8FD10BD10B5FDF7B6FDFDF7A2FD6D
:109E900010BD0020C043704710B5C0B2FDF79AFD59
:109EA00010BDFEE7F0B595B002F0F4FA0446382292
:109EB0008B4902A8FDF780F9A11D8AA005F0E4FEF8
:109EC0008EA005F0E1FE4F20005D01280CD091A18D
:109ED00092A005F0D9FE9AA005F0D6FEE07F0028FA
:109EE00004D022461F3202E09BA1F1E79FA2002886
:109EF00001D0A0A100E0A1A1A3A005F0C5FEA64944
:109F0000A6A005F0C1FEA449ACA0491C05F0BCFE0A
:109F1000B2A178A005F0B8FE00260A20704305190A
:109F20003B20405D8100BA4842583146B9A005F057
:109F3000ABFEBFA005F0A8FE28464130417800786E
:109F400009020143BFA005F09FFE3146C4A005F001
:109F50009BFE142070430719384680300190007C26
:109F6000012813D085A1CBA2D2A005F08DFE3146E9
:109F7000D3A005F089FEDEA005F086FE6137787F6C
:109F80003A7F0102114303D0DFA003E079A1EAE7A1
:109F90007AA158A005F078FEDFA005F075FE0198C3
:109FA000417900790902014301D0E1A001E073A1E8
:109FB00050A005F069FE3146E1A005F065FE33468C
:109FC000E8A2E8A1E9A005F05FFEF0000719A037BC
:109FD000387B8100EC484158ECA005F055FE787BB9
:109FE000810002A84158EFA005F04EFEB97BF04871
:109FF000415CF0A005F048FEF87B8100EE48415836
:10A00000EEA005F041FE397CED48415CEDA005F085
:10A010003BFE387B002814D0EC480168ECA005F02A
:10A0200033FE3146EFA005F02FFEFAA005F02CFE1E
:10A030002846A030417F007F0902014306D0BCA022
:10A0400006E0787C8100E1484158E7E74BA129A070
:10A0500005F01AFEF2A005F017FE2846A230417F57
:10A06000007F0902014301D0F0A001E043A121A03B
:10A0700005F00AFEF1A005F007FEC0352879012899
:10A080002BD03EA11BA005F0FFFD54A119A005F0A7
:10A09000FBFD761CF6B2022E00D23EE70223B1A2EF
:10A0A000B0A1E9A005F0F0FDEEA3F0A2F1A1F5A0AA
:10A0B00005F0EAFD49A10FA005F0E6FDF6A005F0C8
:10A0C000E3FDA034E079012808D02CA1FCA005F024
:10A0D000DBFDA37A627A217AF6E1FFE101E200007A
:10A0E000B0170100202D20446576696365206E61FC
:10A0F0006D653A2025730D0A00000000202D204ECA
:10A100006574776F726B2073657474696E67733AE8
:10A11000200D0A005374617469630000092D204FFB
:10A12000627461696E696E6720495020736574744A
:10A13000696E67733A205B25735D0D0A00000000AD
:10A14000202D2053656172636820494420636F6449
:10A15000653A200D0A0000004175746F6D617469E5
:10A1600063202D2044484350000000004E6F6E6570
:10A1700000000000456E61626C65640044697361B3
:10A18000626C656400000000092D2025733A205B95
:10A1900025735D0D0A00000051C30000202D2054DE
:10A1A00043502F5544502073657474696E67207056
:10A1B0006F72743A205B25645D0D0A00202D2046E5
:10A1C00069726D7761726520757064617465207065
:10A1D0006F72743A205B25645D0D0A003D3D3D3D84
:10A1E0003D3D3D3D3D3D3D3D3D3D3D3D3D3D3D3D9F
:10A1F0003D3D3D3D3D3D3D3D3D3D3D3D3D3D3D3D8F
:10A200003D3D3D3D3D3D3D3D3D3D3D3D3D3D0000F8
:10A2100030010020202D205B25645D204368616EA5
:10A220006E656C206D6F64653A2025730D0A000021
:10A23000092D205443502F55445020706F72747371
:10A240000D0A0000092020202B2053324520646194
:10A25000746120706F72743A205B25645D0D0A0092
:10A26000202D205B25645D204368616E6E656C2047
:10A2700045746865726E657420636F6E6E65637495
:10A28000696F6E2070617373776F72643A200D0A84
:10A2900000000000285443502073657276657220D8
:10A2A0002F206D69786564206D6F6465206F6E6C1A
:10A2B00079290000092D2025732025730D0A00003F
:10A2C000202D205B25645D204368616E6E656C20E7
:10A2D000436F6E6E656374696F6E2074696D65722D
:10A2E0002073657474696E67733A200D0A0000006C
:10A2F000092D20496E6163746976697479207469E7
:10A300006D65723A200000005B25645D202873654E
:10A3100063290D0A00000000092D205265636F6E4D
:10A320006E65637420696E74657276616C3A2000A4
:10A330005B25645D20286D736563290D0A000000AC
:10A34000202D205B25645D204368616E6E656C2066
:10A3500053657269616C2073657474696E67733AD2
:10A36000200D0A005541525400000000092D2044E0
:10A3700061746120257320706F72743A20205B2510
:10A380007325645D0D0A0000480300200920202089
:10A390002B20554152542049463A205B25735D0DD0
:10A3A0000A000000092020202B2025642D00000039
:10A3B0002503002025642D002803002025732D008F
:10A3C000340300202564202F2000000038030020E3
:10A3D000466C6F7720636F6E74726F6C3A202573D2
:10A3E0000D0A0000202D205B25645D204368616E0E
:10A3F0006E656C2053657269616C206461746120C4
:10A400007061636B696E67206F7074696F6E733A09
:10A410000D0A0000092D2054696D653A20000000E6
:10A42000092D2053697A653A200000005B25645DA0
:10A4300020286279746573290D0A0000092D2043D4
:10A440006861723A20000000202D20446562756723
:10A4500020257320706F72743A205B257325645D2C
:10A460000D0A000028666978656429004E4F4E4544
:10A47000000000003131353230302D382D4E2D3175
:10A48000000000002020202B202573202F20257382
:10A490002025730D0A000000202D2053657269618C
:10A4A0006C20636F6D6D616E64206D6F64652073E9
:10A4B000777469636820636F64653A0D0A00000071
:10A4C000092D2025730D0A00D6A005F0DDFBDE491D
:10A4D0000846E83805F0D8FB15B0F0BD2978DBA0B8
:10A4E000D1E5D9496839F1E538B501F0D3FF044623
:10A4F000D4A005F0C9FBD4490846E83805F0C4FBF0
:10A500000222D7A1DAA005F0BFFBDEA005F0BCFB5C
:10A51000E6A0009063792279E178E6A005F0B4FB2B
:10A52000C9490846E83805F0AFFB38BD01B5EA482F
:10A530000099416041680029FCD108BD1FB501F0B8
:10A54000A9FF074600F046F9E4A103C90191009074
:10A55000E2A103C903910290FCF766FEE14906F00F
:10A560008AF8E149086008202070E04860802046B1
:10A57000FEF795F902A96846FEF711F900F045FAD1
:10A5800002F03EFA05F0AAF802F074F80024012661
:10A590000A206043C01920300677204604F052FAA2
:10A5A000641CE4B2022CF3D33C46A034A079012809
:10A5B00003D1FFF799FFFFF775FC05F02BFA002890
:10A5C000FBD13D464035E87B012803D100F0D3F8AC
:10A5D000042805D002F034FAA079012803D011E054
:10A5E000C3480670F8E702F0F8F801F053FF403076
:10A5F000C07B012806D1BE48007801280AD0BDA042
:10A6000005F042FB2037F87E012820D0287C012865
:10A6100007D01CE0FFF7DCF90146BBA005F034FBD6
:10A62000F0E700F067F8C24F012800D13E70A07932
:10A6300001280CD101F02EFF014640310A7C012A8D
:10A6400005D13A78012A0AD0BAA005F01DFBBD4811
:10A65000BD4F067038780026012814D017E0024656
:10A660004332537817781A020B7801463A43203167
:10A67000CF7F0097019302928B7F4A7F3531B3A041
:10A6800005F002FBE3E7002001F06EFC3E706E492E
:10A690000846E83805F0F8FA8F48B54F067003F021
:10A6A0001AFC01F0D4FCE87B012801D1FFF70BF87C
:10A6B000894E3078002803D005F0ACF900203070C6
:10A6C0000026B85D012808D1A079012803D13146C0
:10A6D000A8A005F0D9FA0020B855761CF6B2022ED3
:10A6E000EFD3DCE77C484168002902D04168491E6D
:10A6F00041607047FEB501F0CDFE04460026A64934
:10A700000520FFF7E7FA20464030427C69460A7090
:10A71000827C4A70C27C07468A70007DC870002522
:10A720000321284600F0F6F96D1CEDB2022DF7D397
:10A7300020463D305534019021466846019AFFF786
:10A74000CFFA054601280BD0761CF6B2022E07D8A8
:10A7500003F0C1FBF87B0128EED1FEF7B4FFEBE775
:10A7600000240121204600F0D5F9641CE4B2022C3B
:10A77000F7D32846FEBD70B5002587490420FFF7B2
:10A780003AF88749854A0846FEF796FB00240321DC
:10A79000204600F0BFF9641CE4B2022CF7D3FEF7A8
:10A7A00092FF0646042807D0002E01D16D1CEDB2A1
:10A7B000032D0CD9FFF716F800240121204600F0E4
:10A7C000A9F9641CE4B2022CF7D370B270BD03F097
:10A7D00082FBE4E710B500F04EF9724A724901209D
:10A7E000FCF786FD03F0C6FE04F080F9FCF71CFDC3
:10A7F0007D21C90005F03FFF6C49401E88420CD8FE
:10A800006B4948616B480722C3691B021B0A4C0451
:10A810002343C361002088610A610A20FFF786FE96
:10A8200010BD0000092D205B252E32585D5B252EC2
:10A8300032585D5B252E32585D2028486578206FA0
:10A840006E6C79290D0A0000DCA100005B252E3218
:10A85000585D2028686578206F6E6C79290D0A0094
:10A8600057495A37353253522D31327800000000A3
:10A870002025735B25645D4368616E6E656C200DF9
:10A880000A000000203E3E2057495A6E657420534E
:10A89000657269616C20746F2045746865726E65BD
:10A8A00074204465766963650D0A00004E75766F05
:10A8B0004F6E6500203E3E204669726D776172657D
:10A8C0002076657273696F6E3A2025642E25642E9A
:10A8D00025642025730D0A00A00000200202020258
:10A8E000020200001027000000200046C4090000FA
:10A8F0004001002020232044484350204661696CD9
:10A9000065640D0A000000002023204448435020C5
:10A910004950204C65617365642074696D65203A07
:10A92000202575207365636F6E64730D0A00000047
:10A93000BF000020202320444E53204661696C65EF
:10A94000640D0A00B8000020A80000202023204445
:10A950004E533A202573203D3E2025642E25642E3B
:10A9600025642E2564203A2025640D0A000000008D
:10A970001D030020203E204348414E4E454C5B25A0
:10A98000645D52782052696E6720627566666572F2
:10A990002046756C6C0D0A0098030020159E00007F
:10A9A0008D9D0000006CDC0200127A00FFFFFF00AA
:10A9B00000E000E004ED00E0704710B50123212025
:10A9C000002219464006FCF78DFE10BD7047FEB50B
:10A9D0000446022818D24A4E6500705B00900120A0
:10A9E000694608714748A700C059FCF778FD4548FB
:10A9F000715B401F025D801E005DFCF74BFE41480D
:10AA0000715BC059FCF7E7FDFEBD70B50020FFF794
:10AA1000DEFF0120FFF7DBFF012003F032FE3A49A1
:10AA200061200863394B01225A6148619A6188614B
:10AA3000364880308261344902208031886140206C
:10AA400045210906486008614402432501022D069C
:10AA500022462846FEF76AF9224600212846FEF7DC
:10AA600001F9002003F00DFE264900200839087086
:10AA7000FFF7A3FF70BD2649022008632349403930
:10AA80008860704710B5FEF7E4F8002801D0002078
:10AA900010BD012010BD0120704770470020704795
:10AAA0000120704710B5022807D2154A4100515ABB
:10AAB000144A80001058FCF79CFD10BD10B5022808
:10AAC00007D20F4A4100515A0E4A80001058FCF735
:10AAD00082FD10BD022808D20A49820089584A68BE
:10AAE000074B4000185A42404A60704710B5044A6C
:10AAF0004100515A034A80001058FCF762FD10BD16
:10AB0000E8170100B0000020403000414020004123
:10AB10004011004170B50D46044601F0BBFC2146D2
:10AB20000A2251433B302B0006F05EFD061204065C
:10AB30000A0E1012012204E002220818427011E0ED
:10AB400003220818427007E00422FAE70522F8E71A
:10AB500008184078022805D000222146012004F080
:10AB6000FFFE70BD0122F8E7F0B58BB0064601F09C
:10AB700091FCAC30059001F08DFCA530029001F005
:10AB800089FC3B30089001F085FC00206946087480
:10AB9000002E0AD0FE480390F00005990690401858
:10ABA00007904079022802D006E0FA48F3E73046E1
:10ABB00004F066F800287DD1B004F74909904018E8
:10ABC000406A012180B289020190884201D9084679
:10ABD00001901420F14970434518E8682969B400D0
:10ABE000401AA988081A80B2009000282BD0EC499E
:10ABF0000A460851083A13590831834220D10859AE
:10AC0000401C08510A281ED3002220210398FCF77B
:10AC10005BFE284604A904F0B4FF00280AD02021D6
:10AC20000398FCF74AFE0128F9D06846017C039896
:10AC3000FCF730FE012220210398FCF745FE02E0DC
:10AC400000230B511051D74AB002019987180029EF
:10AC500053D00846009988424FD8D34909984018E4
:10AC6000FCF7DEFE172835D01C2833D022283AD135
:10AC7000CB48394646380346009024333046019A83
:10AC8000FDF744FA0146C648103801510146042236
:10AC900012390E3805F028FB002824D0C04822388D
:10ACA000018881804188C1800298407801281AD1AA
:10ACB000BB4800E050E06438C38B4230C2788178F2
:10ACC000009102930192437802783146B7A004F0D4
:10ACD000DBFF08E00122394692023046FDF702F917
:10ACE000AF4910390851AE4A00207100363A50522F
:10ACF000121D5052114616398855A948103800596E
:10AD0000002829D00798C079012803D104F080FEDB
:10AD1000002821D005990698085C012804D00798DE
:10AD2000407901281AD01EE0304603F067FF9C48A6
:10AD3000103803593A462946039803F04CFDA649BA
:10AD40000020401C80B28842FBD3304603F07FFFD6
:10AD500093490020103908510BB0F0BD9048443899
:10AD6000805D0128F8D18E4E103E33593A4629466F
:10AD7000039803F030FD00203051EDE7F0B587B0C7
:10AD8000054601F087FBBC300390142093496843CB
:10AD90004018019001F074FB86B28148AC0018386D
:10ADA0000059A9028E4A05918918009183190A2138
:10ADB0000120694380020291834226D30846039909
:10ADC00047183879002819D0012E17D1012204A97B
:10ADD000019803F027FD002806D06846017C7048E2
:10ADE00018380259009811546D48183802590099C2
:10ADF000515C3A79914201D100596DE068481838A8
:10AE0000015901208002401A86B20399029847181E
:10AE1000787839780002084307D1F878B9780002C9
:10AE2000084302D13879002801D0002038E03246AA
:10AE30000099019803F0F6FC59481838015989190E
:10AE40000151D9E7012204A9019803F0EBFC002885
:10AE500009D053496846027C18390859009B1B18D1
:10AE6000401C08511A703879002809D04C4918390B
:10AE70000A595B4952180599491E515C814209D013
:10AE8000F878B9780002084307D0454918390959BC
:10AE9000884202D142481838AEE70298401C80B27E
:10AEA0000290B042CED3787839780002084309D0B6
:10AEB0003B4E183E3059002804D03746383F785D65
:10AEC000012802D0002007B0F0BD019801F0D8FAA7
:10AED000002800D17855305980B2F4E7F0B585B03C
:10AEE000044601F0D7FA3B30039001F0D3FAA530C5
:10AEF000029001F0CFFA7D3000902046FFF73EFF30
:10AF000000266700019000286CD02749A004401853
:10AF1000FCF786FDA5000246142876D03049A00231
:10AF20004118172A73D01C2A71D0222A5AD12046E0
:10AF30000A225043039A83189878002808D1D878B9
:10AF4000002805D11879002802D15879002808D0A6
:10AF5000587A1A7A00021043009020469B1C019AEE
:10AF600015E00F4822380278002A08D14278002ADA
:10AF700005D18278002A02D1C078002837D008484D
:10AF8000074B6438C08B0090223B2046019A2AE090
:10AF900000D0004000C0004000020146C41800205C
:10AFA00020010020980B002030000146203E205B4D
:10AFB00025645D55445020506565722049502F50DE
:10AFC0006F72743A2025642E25642E25642E256424
:10AFD000203A2025640D0A00FFFF0000EC18002035
:10AFE0009803002010E0FCF7E4FF04B206E00298AA
:10AFF0004078012802D1FB4804F046FE002C26DDF3
:10B00000F9484159091B415121E02AE0FFE7F64880
:10B010003438005D01281AD12046019AFCF7D3FE8E
:10B0200001B2002903DDF0484259511A4151142060
:10B030000099604340188078012808D1EA483038E8
:10B04000015D002908D00655E7481A38C653E6487E
:10B050001E38C65305B0F0BDE349012042390855FA
:10B06000F2E7E1484651F5E7FEB5044601F012FA71
:10B070003B30029001F00EFAA530019001F00AFA7F
:10B080000746A004D9490090BC374018FCF7C8FC1B
:10B090000146D7481422264656433018A5000029F9
:10B0A0001CD0222919D101F0EBF9002803D1CE4898
:10B0B0004059002802D02046FFF710FFCD490098E4
:10B0C0004018406A0004000C04D1C74808304059B9
:10B0D000002802D02046FFF747FDFEBD03F0A6FB87
:10B0E000C548301803F0A2FBBF4900204851083181
:10B0F00048510A20029960434118C87989790202AF
:10B100000A43002302212046FCF714FDA042E4D1AB
:10B1100005212046FFF7FEFC7878397800020843C5
:10B1200002D0B1494C39C881019840780128D4D166
:10B130002146B2A004F0A8FDFEBD70B5AA4C4500A2
:10B14000223C605B002809D0B449884204D2401CEC
:10B150000840605302D00DE00020605303F098FADD
:10B1600005F07EF8FCF70CF8AD4905F08EFAAD4815
:10B170000818605380B270BD9B4A0021443A1154B4
:10B180000A321154083A11540C321154921E1154BF
:10B19000921D1154921E11544000163211520C325D
:10B1A0001152083A11520C321152704770B50546CF
:10B1B00001F070F904468D49A8043B344018FCF7AF
:10B1C0002FFC002809D00A216943615C032909D0BA
:10B1D000172804D01C2802D004E0284670BD284659
:10B1E000FCF7AFFD2846FCF775FCF6E710B500222A
:10B1F0000621FDF7C3F810BDF1B584B001F04AF99E
:10B200004F30039001F046F90546A53501F042F9AB
:10B210000446002000903B3401268348FCF700FCE4
:10B220000746684607708048401EFCF7F9FB014658
:10B23000684641707C480291801EFCF7F1FB014694
:10B240006846817078480191C01EFCF7E9FB014611
:10B250006846C17003984078012804D162484C3890
:10B26000C078002802D0002F05D00CE068780128B3
:10B2700058D16EA014E00298002804D1019800284B
:10B2800001D1002908D004980A225043001982787D
:10B290009446002A07D00FE06878012842D16DA0BB
:10B2A00004F0F2FC3EE0C278002A05D10279002ABF
:10B2B00002D14279002A10D0674515D1C378029A8D
:10B2C0009A4211D10379019A9A420DD14279914261
:10B2D0000AD16878012805D024E06878012821D1B6
:10B2E0006B48DDE76BA0DBE7C02F1CD10299A829D2
:10B2F00019D103990978002915D16146C02912D1C5
:10B30000C178A8290FD10079019981420BD06878C2
:10B31000012807D1607900902379E278A1786A4802
:10B3200004F0B2FC0026304694E6F0B58FB0044637
:10B3300001F0B0F87D30059001F0ACF83B300190A1
:10B3400001F0A8F8A530029001F0A4F8A73007900A
:10B3500001F0A0F8BC3006900020694603900884F4
:10B36000A00422490C904018FCF75AFB01462248E1
:10B3700014222746574338180E901D481D4A381886
:10B3800009900C98650080180D9020460A225043C1
:10B39000A6000090172920D020DC00291FD01329F7
:10B3A0001ED0142917D1104E463E305D002812D110
:10B3B000099801F065F800280DD02046FFF7F6FE49
:10B3C0000120305505983818017AC27908021043D7
:10B3D0003146303148530FB0F0BDCCE076E0F5E0B7
:10B3E0007FE00000E4180100080100203000014661
:10B3F000EC18002000020146C4180020203E205313
:10B4000045475B25645D3A5544505F4D4F44453A8E
:10B41000534F434B4F50454E0D0A0000FFFF0000B5
:10B4200010270000B888000013600046203E20531B
:10B4300045473A434F4E4E454354494F4E204641AF
:10B44000494C4544202D20444E53204661696C658B
:10B45000640D0A00203E205345473A434F4E4E4567
:10B460004354494F4E204641494C4544202D2049E4
:10B470006E76616C69642049502061646472657302
:10B48000733A205A65726F2049500D0A000000007F
:10B4900078190100203E205345473A434F4E4E4510
:10B4A0004354494F4E204641494C4544202D2044A9
:10B4B00075706C69636174652049502061646472C1
:10B4C0006573730D0A0000003019010018297DD042
:10B4D0001C2980D1FE4D0D98406A0004000C76D1E5
:10B4E00066E1FB484E38005D0128F2D1F8481E386D
:10B4F000425B059979180B7ACF79190239438A4250
:10B5000000D268E7002747532046FFF775FE002862
:10B510001DD0019900984118487A0B7A02021A430B
:10B520002046891CFCF7A8FBE94D303D285D401CF6
:10B53000C0B228550A28E4D32046FFF737FE2F551E
:10B54000099803F073F9E2484E38075543E720465F
:10B55000FFF72CFEDE4830380755099803F066F9EE
:10B560000E9803F063F9DA480830875108308751A4
:10B5700008308751E7E7D7490C984018FCF750FA94
:10B58000C0077CD002212046FFF7C4FAD0482638F5
:10B59000405B00280AD105983918487809780002DC
:10B5A000084303D0CA4801214C380155C848223805
:10B5B000405B002808D1059838188078012803D10D
:10B5C000C34801214A380155059801E0F7E0EBE056
:10B5D0003818C07C002807D0BD484E38005D0128CF
:10B5E00002D0002805D011E0B94801213C380155AE
:10B5F0000CE0B7483C38005D002807D1B448012171
:10B600003E380155B2490020163948530298407817
:10B6100001281BD103AA04212046FCF716FF08AA23
:10B6200005212046FCF711FFA9486B464E38005D06
:10B6300000286846028CC17B807B07C36846437B39
:10B64000027B21460AD0A4A004F01EFBA0484E387D
:10B65000015D002904D0012912D013E0AAA0F3E76C
:10B66000099803F0E3F80E9803F0E0F898490020F9
:10B6700008318851083188510831885102E00CE0C6
:10B6800000210155924800213038015591490C980C
:10B69000083140180121FCF7C5F9099800F0F0FEC7
:10B6A000002804D18A4808388059002802D0204652
:10B6B000FFF714FC0D98406A0004000C03D1844885
:10B6C0008059002802D02046FFF74EFA80484C38B7
:10B6D000005D012815D17E482638415B05983A184F
:10B6E000507812780002104381420AD32046FFF7B7
:10B6F0005DFD774900204A390855283148532C39D7
:10B70000085505983E18B078012830D170484A385D
:10B71000005D01282BD16E483838005D002802D02A
:10B72000012814D023E06A4F223F795B3279F37805
:10B730001002184381421AD3002818D02046FFF780
:10B7400055FD002078530120394616390855604FC1
:10B75000223F795BB279737910021843814206D394
:10B76000002804D02046FFF741FD002078535848B8
:10B770004E38005D002800D02DE6F07C0128FBD17A
:10B7800053483C38005D0028F6D1514E163E705BA0
:10B7900069498842F0D32046FFF708FD0020314672
:10B7A00028390855705316E62046FFF7DDF992E672
:10B7B000A8590028F8D12046FCF7C3FA0BE601216E
:10B7C0002046FFF7A7F94248414D4E38005D543DF1
:10B7D000002812D03E49002088512046FFF7ADFCDA
:10B7E0000246202301212046FCF7A4F9A042C3D140
:10B7F0000798007801282CD032E02046FFF7BCFCE7
:10B80000334900200839885108318851019900983E
:10B8100020234118C879897902020A430121204670
:10B82000FCF788F9A042A7D107980078012806D133
:10B830000698417802780802104300D0E88120463B
:10B84000FCF7E3F902984078012895D121463BA006
:10B850001AE00698417802780802104300D0E88187
:10B860001B484438015D002908D1059979180A7AE6
:10B87000CB791102194301D001210155029840787A
:10B88000012890D1214638A004F0FEF9A3E5F0B5D7
:10B890008DB0044600F0FEFD7D30059000F0FAFD0D
:10B8A000A530009000F0F6FD07463B3700F0F2FDB2
:10B8B000A730029000F0EEFD054600206946039097
:10B8C00008830448A104BC3510300818019161E0D8
:10B8D0001001002020000146203E205345475B25F3
:10B8E000645D3A434F4E4E454354454420544F20E7
:10B8F0002D2025642E25642E25642E2564203A20D3
:10B9000025640D0A00000000203E205345475B25BA
:10B91000645D3A434F4E4E45435445442046524F92
:10B920004D202D2025642E25642E25642E2564208F
:10B930003A2025640D0A000088130000203E2053A1
:10B9400045475B25645D3A5443505F4D4958454433
:10B950005F4D4F44453A5345525645525F534F430E
:10B960004B4F50454E0D0A00203E205345475B2566
:10B97000645D3A5443505F4D495845445F4D4F44D0
:10B98000453A434C49454E545F534F434B4F504506
:10B990004E0D0A00FCF744F8FE4A0199A6008918EA
:10B9A0000C9117280ED002DC00287DD1FFE018286A
:10B9B000FCD01C2878D1F84D0C98406A0004000C8B
:10B9C00073D1EDE0F54901984018FCF729F8C1075B
:10B9D000F348142227465743381865000B90002976
:10B9E00057D0EE490198083140180121FCF71AF8A8
:10B9F00002212046FFF78EF8E7482638405B0028F2
:10BA00000AD105983918487809780002084303D00C
:10BA1000E14901204C39085505983818C07C0028A8
:10BA20000CD0DD4901203E390855DB48002116388D
:10BA3000415300984078012805D01BE0D6490120E9
:10BA40003C390855F5E703AA04212046FCF7FDFC24
:10BA500006AA05212046FCF7F8FC6846028BC17B4C
:10BA6000807B6B4607C36846437B027B2146CD48FB
:10BA700004F00AF90B9802F0D9FECB48381802F00E
:10BA8000D5FEC54900200831885108318851083158
:10BA900088510B9800F0F4FC002804D1BE48083807
:10BAA0008059002805D001E074E075E02046FFF7DA
:10BAB00015FA0C98406A0004000C03D1B64880596E
:10BAC000002802D02046FFF74FF8B3484C38005DFD
:10BAD000012813D1B0482638415B05983A185078B0
:10BAE000127800021043814208D32046FFF75EFB24
:10BAF000A94900204A3908552831485305983E186D
:10BB0000B078012830D1A4484A38005D01282BD1F3
:10BB1000A1483838005D002802D0012814D023E065
:10BB20009D4F223F795B3279F378100218438142AE
:10BB30001AD3002818D02046FFF758FB002179536C
:10BB40000120394616390855934F223F795BB27967
:10BB5000737910021843814206D3002804D020468E
:10BB6000FFF744FB00207853F07C012812D18A486B
:10BB70003C38005D00280DD1874E163E705B8B4926
:10BB8000884207D32046FFF711FB002031462839B1
:10BB9000085570530DB01FE42046FEF7E5FF0BE794
:10BBA000A8590028F8D12046FCF7CBF8F2E701218C
:10BBB0002046FEF7AFFF2046FFF7DEFA7649002069
:10BBC00008398851083188510A206043C019C17969
:10BBD00080790A020243002301212046FBF7AAFFD5
:10BBE000A042D7D102980078012807D16878297837
:10BBF0000002084302D068495439C8812046FCF746
:10BC000004F8009840780128C4D1214668A004F0C7
:10BC10003BF8BFE7F0B58FB0044600F03BFC7D3049
:10BC2000049000F037FC3B30099000F033FCA73063
:10BC3000029000F02FFCA530009000F02BFCBC30EF
:10BC4000019000206946059008835448A1041030F3
:10BC500008180B91FBF7E4FE4E4A0B99264689180B
:10BC60000D9114216500A7004E4317282ED022DC29
:10BC700000287DD013281DD147481E38425B049907
:10BC800071180B7ACE79190231438A4212D30021FE
:10BC900041532046FFF7B0FA00280BD00A2009993B
:10BCA00060434118487A0B7A02021A432046891CE5
:10BCB000FBF7E2FF4AE41828DBD01C28FAD1364D06
:10BCC0000D98406A0004000C62D103E133490B98DF
:10BCD0004018FBF7A5FEC207314914206043401805
:10BCE0000C90002A55D002212046FEF713FF2A4867
:10BCF0002638405B00280AD1049831184878097822
:10BD00000002084303D0244901204C390855224839
:10BD10002238405B002808D1049830188078002829
:10BD200003D01D4801214A3801551B4901203C39E7
:10BD3000085508460838015D012903D10021015545
:10BD40002630415300984078012819D105AA0421D2
:10BD50002046FCF77AFB06AA05212046FCF775FB76
:10BD60006846028BC17D807D6B4607C3684600E054
:10BD7000B7E0437D027D0B482146303803F084FF55
:10BD80000C9802F053FD0848301802F04FFD23E0F4
:10BD90009CE030E000020146100100202000014636
:10BDA000EC18002008B90000C41800208813000017
:10BDB000203E205345475B25645D3A5443505F5312
:10BDC00045525645525F4D4F44453A534F434B4FB2
:10BDD00050454E0D0A000000FA490020C8510831B4
:10BDE000C8510831C8514A390855F7490B984018CD
:10BDF0000121FBF717FE0C9800F042FB002804D14C
:10BE0000F0481038C059002802D02046FFF766F8E5
:10BE10000D98406A0004000C04D1EA480838C05963
:10BE2000002802D02046FEF79FFEE6485438005D09
:10BE3000012813D1E3482E38415B0498321850781A
:10BE4000127800021043814208D32046FFF7AEF972
:10BE5000DC490020523908552831485304983618D7
:10BE6000B078012800D025E7D6485238005D012877
:10BE7000F9D1D4484038005D002812D00128F2D111
:10BE8000D04F2A3F795BB07972790002104381422A
:10BE9000E9D30028E7D02046FFF7A8F9002078531F
:10BEA00081E4C84F2A3F795B3279F3781002184356
:10BEB0008142F5D30028F3D02046FFF797F9002000
:10BEC00078530120394616390855D9E72046FEF740
:10BED0004BFEF5E6E8590028F8D12046FBF731FF84
:10BEE00061E401212046FEF715FE2046FFF744F9E4
:10BEF000B44900201039C8510831C8512046FFF715
:10BF00001CF90246002301212046FBF713FEA04244
:10BF1000C6D102980078012808D1019841780278AA
:10BF20000802104302D0A7495C39C881A5484C38A3
:10BF3000015D002908D1049971180A7ACB791102A0
:10BF4000194301D001210155009840780128A7D15B
:10BF50009C4D3A3D285D0028A2D121469BA003F0CC
:10BF600093FE012028551EE4F8B5044600F092FA2D
:10BF70000546A53500F08EFA924E07463B375C3EEB
:10BF8000002C0CD001203070002401212046FEF747
:10BF9000C1FD0A206043385C022819D01CE0002053
:10BFA0003070044604212046FEF7B4FD641CE4B260
:10BFB000022CF7D36878012806D18EA003F064FE26
:10BFC00091A19548FBF7F2FC0120FEF76BFD14E010
:10BFD0007C49002056390855641CE4B2022CD4D3A5
:10BFE0006878002806D08DA003F04EFE90A18A4804
:10BFF000FBF7DCFC0120FEF761FD002425467148BB
:10C00000A1001038455044380555801C05550830AE
:10C0100005556C4960002E390D52091D0D5208312D
:10C020000D520846263805552046142148438449B8
:10C030000746401802F0FAFB8248381802F0F6FB77
:10C04000641CE4B2022CDAD3B570B581F8BDF8B542
:10C0500000F020FA06463B3600F01CFA0546AC35E7
:10C0600000F01AFA0078012856D0564F5C3F387815
:10C07000012851D1787801280FD100242046FFF7FC
:10C0800095F8641CE4B2022CF8D30020FFF76CFF93
:10C0900000207870387801283ED100240A206043BF
:10C0A000305C002806D0012808D002280AD00328D6
:10C0B0000FD10BE02046FFF7ADFD0AE02046FFF769
:10C0C000E6FB06E02046FFF730F902E02046FEF7E7
:10C0D000CBFF002C17D05C4F786800280BD00821CC
:10C0E0003846FBF7E1FB002802D03846FBF7D4FBCB
:10C0F0007868C0437860E00040194179012904D094
:10C10000022902D004E0444FE6E7204602F004FD95
:10C11000641CE4B2022CC1D3F8BD10B5044600F093
:10C12000B9F90A214C433B302018407810BDF7B5CF
:10C1300084B017460D4600F0ADF9002604467D3464
:10C140000096019602960B2D00D30A252A466846D2
:10C15000049904F09BF9142047433C190934204604
:10C1600004F016F9A84207D120462A46694604F091
:10C17000BBF8002800D10126304607B0F0BDF8B565
:10C180000024104E07462546363E06E031192D485C
:10C1900003F09DFC3555641CE4B2BC42F6D309485B
:10C1A0005C3885704571F8BD70B5054600F072F9D0
:10C1B000044C01465C3C2078A731012846D0002081
:10C1C00070BD00001801002028000146203E2053C9
:10C1D00045475B25645D3A5443505F434C49454EA7
:10C1E000545F4D4F44453A534F434B4F50454E0DCE
:10C1F0000A000000203E205345473A4154204D6F2D
:10C2000064650D0A000000005345473A4154204D33
:10C210006F64650D0A00000000C00040203E2053FE
:10C2200045473A4757204D6F64650D0A00000000EE
:10C230005345473A4757204D6F64650D0A0000008B
:10C24000C4180020EC18002000D000400878002816
:10C25000B6D060798C4A002806D0012810D0022878
:10C260000ED003281ED117E04878A8421AD1A08921
:10C27000E189884216D1157001206071A07011E02B
:10C2800009184978A9420BD1A189E389994207D2BB
:10C290001554401C607105E0A189E289914201D2E8
:10C2A000FFF76DFF0020A081607989E770B50E4629
:10C2B000044600F0EFF805463B3500F0EBF8214668
:10C2C0000A23594302464B195B78AC320020012BFC
:10C2D00006D0022B07D0042B05D0052B12D102E08B
:10C2E000695C02290ED1E1008918497901200129F0
:10C2F00008D16549891F112E05D0132E02D10020C7
:10C30000085500205CE70120FAE770B5044600F00C
:10C31000C1F80546A73500F0BDF801462878BC31C4
:10C32000012818D1584826380078012813D10A204E
:10C330006043411848780978000208430BD05248FE
:10C340001438015D002901D1012101554E4A002018
:10C3500061001432505233E7F8B500F09BF84A4EB2
:10C36000BC300090163E002031462631474D0A1F52
:10C370000446335C002B08D04300CF5AAF4203D2AF
:10C38000CF5A7F1CCF5200E0CC523F4B1C3B1B5C72
:10C39000002B08D04300D75AAF4203D2D75A7F1C94
:10C3A000D75200E0D452401CC0B20228E1D3364E2E
:10C3B000263EB089F189884202D2B089401CB08102
:10C3C000B07800280AD0B089F189884206D1707906
:10C3D00003281DD0FFF7D3FE7471B4702A4A0020E1
:10C3E000143A115C00291CD0274B410014335F5ACA
:10C3F0000A2603467343009E9E19737836781B0203
:10C4000033439F42224B06D25E5A761C5E5208E0AE
:10C4100001207070E0E75C521B4B01211454123B69
:10C42000195419491039095C00290AD018494300E8
:10C43000091DCE5AAE4203D2CE5A761CCE5200E02F
:10C44000CC52401CC0B20228CBD3F8BD30B50E4B45
:10C4500000201E3B0D4C194626311A5C012A06D1DC
:10C4600042008D5AA54202D28D5A6D1C8D52401C3D
:10C47000C0B20228F1D3044901202639087130BD29
:10C48000C1680069081A7047E2000020FFFF000041
:10C49000F6000020FE487047FD48D8307047F8B5D8
:10C4A000FB48D82141770021817707463970012563
:10C4B0007D700C46B9700D21B81D04F044F80D22B2
:10C4C000F4A1B81D03F0E2FF0720F8703C710226CA
:10C4D0003A467E71C0212032D173A82313740B20F9
:10C4E00050749674D174137550759575FF26D67572
:10C4F00016765676947600223E4610460A21484328
:10C50000801901462031CD760D77C0234B77A823C3
:10C510008B770B23CB77032340210B54E14953182E
:10C52000014641310B701F0A4F70891C0B701B0AAA
:10C530004B70142151438B19194661310C77270A2E
:10C540004F771F31D84F0F713F0A4F718C4601460C
:10C55000A0310C77270A4F77891C0C77270A4F7771
:10C56000C030047044708470C470047144717F21C1
:10C57000CD54CE4861460870000A4870C9488233DD
:10C580001870000A5870D0008019A03004730C2174
:10C5900041738573C47304744474521C8474D2B29E
:10C5A000C474022AA9D3BA4F0120A037B871384603
:10C5B0000A21813803F0C7FF002514202946414392
:10C5C000B3480E18304686300A2103F0BCFF80368F
:10C5D0006D1CEDB23474022DEFD3AD48082140300C
:10C5E000C473047441748174C174017528211530B9
:10C5F00003F0A9FF0126FE71FC722B2038727872BD
:10C60000B872A3480F21C030017400214174811C0D
:10C610000E7400224A740C220275002242750C75B9
:10C62000200A0D46487516352C70A14928464170E0
:10C63000090A8170E91C104604F015F85020287290
:10C640000020687228460B30AE721E21044603F0AB
:10C650007AFF132297A1204603F018FF28462930BD
:10C660002821044603F06FFF202297A1204603F003
:10C670000DFFF8BDF8B5FEF710FAD823844A002163
:10C68000012001F007FF824A5123D8320021022005
:10C6900001F000FF7E48817F427F0802104302D0F4
:10C6A000914988420ED1FFF7FAFED823784A00213B
:10C6B000012001F030FF764A5123D83200210220B8
:10C6C00001F029FF0024724E0127E0008519A035F2
:10C6D000687C03280FD004280DD0FEF7DFF92873FB
:10C6E000641CE4B2022CF0D30720F07000203071FB
:10C6F00002207071F8BD2F73F2E710B5D823644A99
:10C700000021012001F007FF614A5123D8320021A6
:10C71000022001F000FF10BD10B503F0B7FE10BD00
:10C7200010B503F0B3FE10BD10B5044601465848DD
:10C7300006222930FFF7F4FF55480422A11D2F30AF
:10C74000FFF7EEFF5248214604220E313330FFF747
:10C75000E7FF4F48214604220A313730FFF7E0FF58
:10C760004B482146042212315130FFF7D9FF484887
:10C77000A17D4030012902D00121C17310BD0021EB
:10C78000FBE710B54249044606222931FFF7C4FFF2
:10C790003F4904222F31A01DFFF7BEFF3C49204630
:10C7A000042233310E30FFF7B7FF39492046042207
:10C7B00037310A30FFF7B0FF3549204604225131A6
:10C7C0001230FFF7A9FF32484030C07B012802D069
:10C7D0000120A07510BD0220FBE7F0B589B02C4DFB
:10C7E00003A90120FCF76CF96846427C017CC07B00
:10C7F0006B4607C36846837B427B017B3BA003F00B
:10C8000043FA2F464337797A387A09020143B81E32
:10C8100042780078120202436846407D00900192FF
:10C8200002916846037DC27C817C3AA003F02CFA19
:10C830006846407F00906846037FC27E817E41A0AB
:10C8400003F022FA6846407E00906846037EC27D6F
:10C85000817D42A003F018FA08A84078009008A84B
:10C8600003786846C27F817F42A003F00DFA00265C
:10C8700030460A214843401904462034E17E01290C
:10C8800004D05021495D012901D07FE09EE092E073
:10C890009813002057495A37353253522D31327888
:10C8A0000000000088130000B80B0000581B0000B7
:10C8B00052C300006465766963652E77697A77698B
:10C8C0006B692E6E657400002F77697A3735307387
:10C8D000722F66772F5737353030785F5332455F88
:10C8E0004170702E62696E00FFFF00002023204D12
:10C8F00041433A20253032583A253032583A2530D3
:10C9000032583A253032583A253032583A253032AA
:10C91000580D0A002023204950203A2025642E2556
:10C92000642E25642E2564202F20506F7274313AB6
:10C930002025642C20506F7274323A2025640D0A31
:10C94000000000002023204757203A2025642E2590
:10C95000642E25642E25640D0A0000002023205338
:10C960004E203A2025642E25642E25642E25640D44
:10C970000A000000202320444E533A2025642E252F
:10C98000642E25642E25640D0A0000000146433103
:10C990004A780B78403002900078110219430090D9
:10C9A0000191E37FA27F617F48A003F06DF9E07EF3
:10C9B00003280CD01BE0002E19D1787839780202B8
:10C9C0000A43294655314CA003F05EF90FE0607F21
:10C9D000002809D1A07F002806D1E07F002803D1DC
:10C9E00002980078002809D04DA003F04DF9761C7C
:10C9F000F6B2022E00D23BE709B0F0BD4DA0F4E73D
:10CA000010B5514C5148617AFBF70CF84F48A17AA8
:10CA1000401EFBF707F84D48E17A801EFBF702F84D
:10CA20004A48217BC01EFAF7FDFF4848617B001D84
:10CA3000FAF7F8FF4548A17BC01CFAF7F3FF10BDD9
:10CA400010B5414C86B0203C21460622293168466B
:10CA5000FFF762FE214601A804222F310230FFF7C2
:10CA60005BFE214603A8042233310230FFF754FE57
:10CA7000214602A8042237310230FFF74DFE21463D
:10CA800004A8042251310230FFF746FE4034E07B17
:10CA9000002801D0022000E00120694688750020AE
:10CAA000FCF70EF806B010BD274820300121C173F5
:10CAB0007047254820300021C17370470146224845
:10CAC00010B50622093003F0E1FC10BD20232044FC
:10CAD000657374696E6174696F6E2049503A2025E0
